{
  "address": "0x6882630e42Eae25A27b0556b252fC9d01E1403f5",
  "abi": [
    {
      "inputs": [
        {
          "internalType": "address",
          "name": "_lzEndpoint",
          "type": "address"
        }
      ],
      "stateMutability": "nonpayable",
      "type": "constructor"
    },
    {
      "anonymous": false,
      "inputs": [
        {
          "indexed": false,
          "internalType": "uint16",
          "name": "_srcChainId",
          "type": "uint16"
        },
        {
          "indexed": false,
          "internalType": "bytes",
          "name": "_srcAddress",
          "type": "bytes"
        },
        {
          "indexed": false,
          "internalType": "uint64",
          "name": "_nonce",
          "type": "uint64"
        },
        {
          "indexed": false,
          "internalType": "bytes",
          "name": "_payload",
          "type": "bytes"
        },
        {
          "indexed": false,
          "internalType": "bytes",
          "name": "_reason",
          "type": "bytes"
        }
      ],
      "name": "MessageFailed",
      "type": "event"
    },
    {
      "anonymous": false,
      "inputs": [
        {
          "indexed": true,
          "internalType": "address",
          "name": "previousOwner",
          "type": "address"
        },
        {
          "indexed": true,
          "internalType": "address",
          "name": "newOwner",
          "type": "address"
        }
      ],
      "name": "OwnershipTransferred",
      "type": "event"
    },
    {
      "anonymous": false,
      "inputs": [
        {
          "indexed": true,
          "internalType": "uint256",
          "name": "id",
          "type": "uint256"
        },
        {
          "indexed": false,
          "internalType": "enum VotingExecutorStructures.VotingFormat",
          "name": "format",
          "type": "uint8"
        },
        {
          "indexed": false,
          "internalType": "bytes32",
          "name": "root",
          "type": "bytes32"
        },
        {
          "indexed": false,
          "internalType": "uint64",
          "name": "deadline",
          "type": "uint64"
        },
        {
          "indexed": false,
          "internalType": "uint8",
          "name": "optionsLength",
          "type": "uint8"
        }
      ],
      "name": "ProposalCreated",
      "type": "event"
    },
    {
      "anonymous": false,
      "inputs": [
        {
          "indexed": false,
          "internalType": "uint16",
          "name": "_srcChainId",
          "type": "uint16"
        },
        {
          "indexed": false,
          "internalType": "bytes",
          "name": "_srcAddress",
          "type": "bytes"
        },
        {
          "indexed": false,
          "internalType": "uint64",
          "name": "_nonce",
          "type": "uint64"
        },
        {
          "indexed": false,
          "internalType": "bytes32",
          "name": "_payloadHash",
          "type": "bytes32"
        }
      ],
      "name": "RetryMessageSuccess",
      "type": "event"
    },
    {
      "anonymous": false,
      "inputs": [
        {
          "indexed": false,
          "internalType": "uint16",
          "name": "_dstChainId",
          "type": "uint16"
        },
        {
          "indexed": false,
          "internalType": "uint16",
          "name": "_type",
          "type": "uint16"
        },
        {
          "indexed": false,
          "internalType": "uint256",
          "name": "_minDstGas",
          "type": "uint256"
        }
      ],
      "name": "SetMinDstGas",
      "type": "event"
    },
    {
      "anonymous": false,
      "inputs": [
        {
          "indexed": false,
          "internalType": "address",
          "name": "precrime",
          "type": "address"
        }
      ],
      "name": "SetPrecrime",
      "type": "event"
    },
    {
      "anonymous": false,
      "inputs": [
        {
          "indexed": false,
          "internalType": "uint16",
          "name": "_remoteChainId",
          "type": "uint16"
        },
        {
          "indexed": false,
          "internalType": "bytes",
          "name": "_path",
          "type": "bytes"
        }
      ],
      "name": "SetTrustedRemote",
      "type": "event"
    },
    {
      "anonymous": false,
      "inputs": [
        {
          "indexed": false,
          "internalType": "uint16",
          "name": "_remoteChainId",
          "type": "uint16"
        },
        {
          "indexed": false,
          "internalType": "bytes",
          "name": "_remoteAddress",
          "type": "bytes"
        }
      ],
      "name": "SetTrustedRemoteAddress",
      "type": "event"
    },
    {
      "anonymous": false,
      "inputs": [
        {
          "indexed": true,
          "internalType": "uint256",
          "name": "id",
          "type": "uint256"
        },
        {
          "indexed": true,
          "internalType": "uint256",
          "name": "optionId",
          "type": "uint256"
        },
        {
          "indexed": true,
          "internalType": "address",
          "name": "voter",
          "type": "address"
        },
        {
          "indexed": false,
          "internalType": "bool",
          "name": "vote",
          "type": "bool"
        }
      ],
      "name": "VoteRecorded",
      "type": "event"
    },
    {
      "anonymous": false,
      "inputs": [
        {
          "indexed": true,
          "internalType": "uint256",
          "name": "proposalId",
          "type": "uint256"
        },
        {
          "indexed": true,
          "internalType": "uint8",
          "name": "optionId",
          "type": "uint8"
        },
        {
          "indexed": true,
          "internalType": "address",
          "name": "voter",
          "type": "address"
        },
        {
          "indexed": false,
          "internalType": "bool",
          "name": "vote",
          "type": "bool"
        }
      ],
      "name": "VoteSent",
      "type": "event"
    },
    {
      "inputs": [],
      "name": "DEFAULT_PAYLOAD_SIZE_LIMIT",
      "outputs": [
        {
          "internalType": "uint256",
          "name": "",
          "type": "uint256"
        }
      ],
      "stateMutability": "view",
      "type": "function"
    },
    {
      "inputs": [
        {
          "internalType": "enum VotingExecutorStructures.VotingFormat",
          "name": "format",
          "type": "uint8"
        },
        {
          "internalType": "uint64",
          "name": "deadline",
          "type": "uint64"
        },
        {
          "internalType": "uint8",
          "name": "length",
          "type": "uint8"
        },
        {
          "internalType": "bytes32",
          "name": "root",
          "type": "bytes32"
        }
      ],
      "name": "createProposal",
      "outputs": [],
      "stateMutability": "nonpayable",
      "type": "function"
    },
    {
      "inputs": [
        {
          "internalType": "uint16",
          "name": "",
          "type": "uint16"
        },
        {
          "internalType": "bytes",
          "name": "",
          "type": "bytes"
        },
        {
          "internalType": "uint64",
          "name": "",
          "type": "uint64"
        }
      ],
      "name": "failedMessages",
      "outputs": [
        {
          "internalType": "bytes32",
          "name": "",
          "type": "bytes32"
        }
      ],
      "stateMutability": "view",
      "type": "function"
    },
    {
      "inputs": [
        {
          "internalType": "uint16",
          "name": "_srcChainId",
          "type": "uint16"
        },
        {
          "internalType": "bytes",
          "name": "_srcAddress",
          "type": "bytes"
        }
      ],
      "name": "forceResumeReceive",
      "outputs": [],
      "stateMutability": "nonpayable",
      "type": "function"
    },
    {
      "inputs": [
        {
          "internalType": "uint256",
          "name": "proposalId",
          "type": "uint256"
        },
        {
          "internalType": "address",
          "name": "voter",
          "type": "address"
        }
      ],
      "name": "getAddressVotesForProposal",
      "outputs": [
        {
          "internalType": "uint256",
          "name": "",
          "type": "uint256"
        },
        {
          "internalType": "uint256",
          "name": "",
          "type": "uint256"
        }
      ],
      "stateMutability": "view",
      "type": "function"
    },
    {
      "inputs": [
        {
          "internalType": "uint16",
          "name": "_version",
          "type": "uint16"
        },
        {
          "internalType": "uint16",
          "name": "_chainId",
          "type": "uint16"
        },
        {
          "internalType": "address",
          "name": "",
          "type": "address"
        },
        {
          "internalType": "uint256",
          "name": "_configType",
          "type": "uint256"
        }
      ],
      "name": "getConfig",
      "outputs": [
        {
          "internalType": "bytes",
          "name": "",
          "type": "bytes"
        }
      ],
      "stateMutability": "view",
      "type": "function"
    },
    {
      "inputs": [
        {
          "internalType": "uint256",
          "name": "proposalId",
          "type": "uint256"
        }
      ],
      "name": "getProposalStatus",
      "outputs": [
        {
          "internalType": "uint256[]",
          "name": "",
          "type": "uint256[]"
        },
        {
          "internalType": "uint256[]",
          "name": "",
          "type": "uint256[]"
        }
      ],
      "stateMutability": "view",
      "type": "function"
    },
    {
      "inputs": [
        {
          "internalType": "uint16",
          "name": "_remoteChainId",
          "type": "uint16"
        }
      ],
      "name": "getTrustedRemoteAddress",
      "outputs": [
        {
          "internalType": "bytes",
          "name": "",
          "type": "bytes"
        }
      ],
      "stateMutability": "view",
      "type": "function"
    },
    {
      "inputs": [
        {
          "internalType": "uint16",
          "name": "_srcChainId",
          "type": "uint16"
        },
        {
          "internalType": "bytes",
          "name": "_srcAddress",
          "type": "bytes"
        }
      ],
      "name": "isTrustedRemote",
      "outputs": [
        {
          "internalType": "bool",
          "name": "",
          "type": "bool"
        }
      ],
      "stateMutability": "view",
      "type": "function"
    },
    {
      "inputs": [],
      "name": "lzEndpoint",
      "outputs": [
        {
          "internalType": "contract ILayerZeroEndpoint",
          "name": "",
          "type": "address"
        }
      ],
      "stateMutability": "view",
      "type": "function"
    },
    {
      "inputs": [
        {
          "internalType": "uint16",
          "name": "_srcChainId",
          "type": "uint16"
        },
        {
          "internalType": "bytes",
          "name": "_srcAddress",
          "type": "bytes"
        },
        {
          "internalType": "uint64",
          "name": "_nonce",
          "type": "uint64"
        },
        {
          "internalType": "bytes",
          "name": "_payload",
          "type": "bytes"
        }
      ],
      "name": "lzReceive",
      "outputs": [],
      "stateMutability": "nonpayable",
      "type": "function"
    },
    {
      "inputs": [
        {
          "internalType": "uint16",
          "name": "",
          "type": "uint16"
        },
        {
          "internalType": "uint16",
          "name": "",
          "type": "uint16"
        }
      ],
      "name": "minDstGasLookup",
      "outputs": [
        {
          "internalType": "uint256",
          "name": "",
          "type": "uint256"
        }
      ],
      "stateMutability": "view",
      "type": "function"
    },
    {
      "inputs": [
        {
          "internalType": "uint16",
          "name": "_srcChainId",
          "type": "uint16"
        },
        {
          "internalType": "bytes",
          "name": "_srcAddress",
          "type": "bytes"
        },
        {
          "internalType": "uint64",
          "name": "_nonce",
          "type": "uint64"
        },
        {
          "internalType": "bytes",
          "name": "_payload",
          "type": "bytes"
        }
      ],
      "name": "nonblockingLzReceive",
      "outputs": [],
      "stateMutability": "nonpayable",
      "type": "function"
    },
    {
      "inputs": [],
      "name": "owner",
      "outputs": [
        {
          "internalType": "address",
          "name": "",
          "type": "address"
        }
      ],
      "stateMutability": "view",
      "type": "function"
    },
    {
      "inputs": [
        {
          "internalType": "uint16",
          "name": "",
          "type": "uint16"
        }
      ],
      "name": "payloadSizeLimitLookup",
      "outputs": [
        {
          "internalType": "uint256",
          "name": "",
          "type": "uint256"
        }
      ],
      "stateMutability": "view",
      "type": "function"
    },
    {
      "inputs": [],
      "name": "precrime",
      "outputs": [
        {
          "internalType": "address",
          "name": "",
          "type": "address"
        }
      ],
      "stateMutability": "view",
      "type": "function"
    },
    {
      "inputs": [
        {
          "internalType": "uint256",
          "name": "",
          "type": "uint256"
        }
      ],
      "name": "proposals",
      "outputs": [
        {
          "internalType": "enum VotingExecutorStructures.VotingFormat",
          "name": "format",
          "type": "uint8"
        },
        {
          "internalType": "bytes32",
          "name": "merkleTreeRoot",
          "type": "bytes32"
        },
        {
          "internalType": "uint64",
          "name": "deadline",
          "type": "uint64"
        },
        {
          "internalType": "uint8",
          "name": "optionsLength",
          "type": "uint8"
        }
      ],
      "stateMutability": "view",
      "type": "function"
    },
    {
      "inputs": [],
      "name": "renounceOwnership",
      "outputs": [],
      "stateMutability": "nonpayable",
      "type": "function"
    },
    {
      "inputs": [
        {
          "internalType": "uint16",
          "name": "_srcChainId",
          "type": "uint16"
        },
        {
          "internalType": "bytes",
          "name": "_srcAddress",
          "type": "bytes"
        },
        {
          "internalType": "uint64",
          "name": "_nonce",
          "type": "uint64"
        },
        {
          "internalType": "bytes",
          "name": "_payload",
          "type": "bytes"
        }
      ],
      "name": "retryMessage",
      "outputs": [],
      "stateMutability": "payable",
      "type": "function"
    },
    {
      "inputs": [
        {
          "internalType": "uint256",
          "name": "proposalId",
          "type": "uint256"
        },
        {
          "internalType": "uint8",
          "name": "optionId",
          "type": "uint8"
        },
        {
          "internalType": "bool",
          "name": "vote",
          "type": "bool"
        },
        {
          "internalType": "bytes32[]",
          "name": "proof",
          "type": "bytes32[]"
        }
      ],
      "name": "sendVote",
      "outputs": [],
      "stateMutability": "payable",
      "type": "function"
    },
    {
      "inputs": [
        {
          "internalType": "uint16",
          "name": "_version",
          "type": "uint16"
        },
        {
          "internalType": "uint16",
          "name": "_chainId",
          "type": "uint16"
        },
        {
          "internalType": "uint256",
          "name": "_configType",
          "type": "uint256"
        },
        {
          "internalType": "bytes",
          "name": "_config",
          "type": "bytes"
        }
      ],
      "name": "setConfig",
      "outputs": [],
      "stateMutability": "nonpayable",
      "type": "function"
    },
    {
      "inputs": [
        {
          "internalType": "uint16",
          "name": "_dstChainId",
          "type": "uint16"
        },
        {
          "internalType": "uint16",
          "name": "_packetType",
          "type": "uint16"
        },
        {
          "internalType": "uint256",
          "name": "_minGas",
          "type": "uint256"
        }
      ],
      "name": "setMinDstGas",
      "outputs": [],
      "stateMutability": "nonpayable",
      "type": "function"
    },
    {
      "inputs": [
        {
          "internalType": "uint16",
          "name": "_dstChainId",
          "type": "uint16"
        },
        {
          "internalType": "uint256",
          "name": "_size",
          "type": "uint256"
        }
      ],
      "name": "setPayloadSizeLimit",
      "outputs": [],
      "stateMutability": "nonpayable",
      "type": "function"
    },
    {
      "inputs": [
        {
          "internalType": "address",
          "name": "_precrime",
          "type": "address"
        }
      ],
      "name": "setPrecrime",
      "outputs": [],
      "stateMutability": "nonpayable",
      "type": "function"
    },
    {
      "inputs": [
        {
          "internalType": "uint16",
          "name": "_version",
          "type": "uint16"
        }
      ],
      "name": "setReceiveVersion",
      "outputs": [],
      "stateMutability": "nonpayable",
      "type": "function"
    },
    {
      "inputs": [
        {
          "internalType": "uint16",
          "name": "_version",
          "type": "uint16"
        }
      ],
      "name": "setSendVersion",
      "outputs": [],
      "stateMutability": "nonpayable",
      "type": "function"
    },
    {
      "inputs": [
        {
          "internalType": "uint16",
          "name": "_remoteChainId",
          "type": "uint16"
        },
        {
          "internalType": "bytes",
          "name": "_path",
          "type": "bytes"
        }
      ],
      "name": "setTrustedRemote",
      "outputs": [],
      "stateMutability": "nonpayable",
      "type": "function"
    },
    {
      "inputs": [
        {
          "internalType": "uint16",
          "name": "_remoteChainId",
          "type": "uint16"
        },
        {
          "internalType": "bytes",
          "name": "_remoteAddress",
          "type": "bytes"
        }
      ],
      "name": "setTrustedRemoteAddress",
      "outputs": [],
      "stateMutability": "nonpayable",
      "type": "function"
    },
    {
      "inputs": [
        {
          "internalType": "address",
          "name": "newOwner",
          "type": "address"
        }
      ],
      "name": "transferOwnership",
      "outputs": [],
      "stateMutability": "nonpayable",
      "type": "function"
    },
    {
      "inputs": [
        {
          "internalType": "uint16",
          "name": "",
          "type": "uint16"
        }
      ],
      "name": "trustedRemoteLookup",
      "outputs": [
        {
          "internalType": "bytes",
          "name": "",
          "type": "bytes"
        }
      ],
      "stateMutability": "view",
      "type": "function"
    }
  ],
  "transactionHash": "0xdaf80e6673b32c6e8268c495f9ba4bd9136998f814dc471bfdd70dc4b3f68e41",
  "args": [
    "0x7dcAD72640F835B0FA36EFD3D6d3ec902C7E5acf"
  ],
  "numDeployments": 1,
  "solcInputHash": "71d6acd0837d1777633cc8f65da51f7a",
  "bytecode": "0x60a06040523480156200001157600080fd5b50604051620035bb380380620035bb8339810160408190526200003491620000a8565b8080620000413362000056565b6001600160a01b031660805250620000da9050565b600280546001600160a01b038381166001600160a01b0319831681179093556040519116919082907f8be0079c531659141344cd1fd0a4f28419497f9722a3daafe3b4186f6b6457e090600090a35050565b600060208284031215620000bb57600080fd5b81516001600160a01b0381168114620000d357600080fd5b9392505050565b60805161349b620001206000396000818161059b015281816106a90152818161096901528181610a3701528181610e08015281816115000152611a27015261349b6000f3fe6080604052600436106101cc5760003560e01c80637533d788116100f7578063baf3292d11610095578063df2a5b3b11610064578063df2a5b3b14610626578063eb8d72b714610646578063f2fde38b14610666578063f5ecbdbc1461068657600080fd5b8063baf3292d146105bd578063c4461834146105dd578063cbed8b9c146105f3578063d1deba1f1461061357600080fd5b8063950c8a74116100d1578063950c8a741461051c5780639f38369a14610549578063a6c3d16514610569578063b353aaa71461058957600080fd5b80637533d7881461046b5780638cfd8f5c146104985780638da5cb5b146104d057600080fd5b80633d8b38f61161016f57806351b1e5e21161013e57806351b1e5e2146103c75780635b8c41e6146103e757806366ad5c8a14610436578063715018a61461045657600080fd5b80633d8b38f61461030e5780633f1f4fa41461033e578063401853b71461037957806342d65a8d146103a757600080fd5b80630df37483116101ab5780630df374831461028657806310ddb137146102a65780631bf96a2d146102c65780631c8b7296146102d957600080fd5b80621d3567146101d1578063013cf08b146101f357806307e0db1714610266575b600080fd5b3480156101dd57600080fd5b506101f16101ec36600461264e565b6106a6565b005b3480156101ff57600080fd5b5061024d61020e3660046126e2565b600160208190526000918252604090912080549181015460029091015460ff9283169267ffffffffffffffff8216916801000000000000000090041684565b60405161025d949392919061272a565b60405180910390f35b34801561027257600080fd5b506101f161028136600461278e565b61092f565b34801561029257600080fd5b506101f16102a13660046127a9565b6109de565b3480156102b257600080fd5b506101f16102c136600461278e565b6109fd565b6101f16102d4366004612892565b610a7b565b3480156102e557600080fd5b506102f96102f4366004612979565b610a8e565b6040805192835260208301919091520161025d565b34801561031a57600080fd5b5061032e6103293660046129a9565b610add565b604051901515815260200161025d565b34801561034a57600080fd5b5061036b61035936600461278e565b60056020526000908152604090205481565b60405190815260200161025d565b34801561038557600080fd5b506103996103943660046126e2565b610ba9565b60405161025d929190612a37565b3480156103b357600080fd5b506101f16103c23660046129a9565b610dc3565b3480156103d357600080fd5b506101f16103e2366004612a5c565b610e6f565b3480156103f357600080fd5b5061036b610402366004612af5565b6007602090815260009384526040808520845180860184018051928152908401958401959095209452929052825290205481565b34801561044257600080fd5b506101f161045136600461264e565b6110a8565b34801561046257600080fd5b506101f16111b5565b34801561047757600080fd5b5061048b61048636600461278e565b6111c9565b60405161025d9190612bff565b3480156104a457600080fd5b5061036b6104b3366004612c12565b600460209081526000928352604080842090915290825290205481565b3480156104dc57600080fd5b5060025473ffffffffffffffffffffffffffffffffffffffff165b60405173ffffffffffffffffffffffffffffffffffffffff909116815260200161025d565b34801561052857600080fd5b506006546104f79073ffffffffffffffffffffffffffffffffffffffff1681565b34801561055557600080fd5b5061048b61056436600461278e565b611263565b34801561057557600080fd5b506101f16105843660046129a9565b611393565b34801561059557600080fd5b506104f77f000000000000000000000000000000000000000000000000000000000000000081565b3480156105c957600080fd5b506101f16105d8366004612c45565b61143a565b3480156105e957600080fd5b5061036b61271081565b3480156105ff57600080fd5b506101f161060e366004612c62565b6114bb565b6101f161062136600461264e565b611576565b34801561063257600080fd5b506101f1610641366004612cd1565b6117f8565b34801561065257600080fd5b506101f16106613660046129a9565b6118cc565b34801561067257600080fd5b506101f1610681366004612c45565b611926565b34801561069257600080fd5b5061048b6106a1366004612d0d565b6119dd565b337f000000000000000000000000000000000000000000000000000000000000000073ffffffffffffffffffffffffffffffffffffffff161461074a576040517f08c379a000000000000000000000000000000000000000000000000000000000815260206004820152601e60248201527f4c7a4170703a20696e76616c696420656e64706f696e742063616c6c6572000060448201526064015b60405180910390fd5b61ffff86166000908152600360205260408120805461076890612d4a565b80601f016020809104026020016040519081016040528092919081815260200182805461079490612d4a565b80156107e15780601f106107b6576101008083540402835291602001916107e1565b820191906000526020600020905b8154815290600101906020018083116107c457829003601f168201915b505050505090508051868690501480156107fc575060008151115b801561082457508051602082012060405161081a9088908890612d9d565b6040518091039020145b6108b0576040517f08c379a000000000000000000000000000000000000000000000000000000000815260206004820152602660248201527f4c7a4170703a20696e76616c696420736f757263652073656e64696e6720636f60448201527f6e747261637400000000000000000000000000000000000000000000000000006064820152608401610741565b6109268787878080601f01602080910402602001604051908101604052809392919081815260200183838082843760009201919091525050604080516020601f8a018190048102820181019092528881528a935091508890889081908401838280828437600092019190915250611ad292505050565b50505050505050565b610937611b96565b6040517f07e0db1700000000000000000000000000000000000000000000000000000000815261ffff821660048201527f000000000000000000000000000000000000000000000000000000000000000073ffffffffffffffffffffffffffffffffffffffff16906307e0db17906024015b600060405180830381600087803b1580156109c357600080fd5b505af11580156109d7573d6000803e3d6000fd5b5050505050565b6109e6611b96565b61ffff909116600090815260056020526040902055565b610a05611b96565b6040517f10ddb13700000000000000000000000000000000000000000000000000000000815261ffff821660048201527f000000000000000000000000000000000000000000000000000000000000000073ffffffffffffffffffffffffffffffffffffffff16906310ddb137906024016109a9565b610a883385858585611c17565b50505050565b600082815260016020908152604080832073ffffffffffffffffffffffffffffffffffffffff851684526004810183528184205460059091019092529091205460ff91821691165b9250929050565b61ffff831660009081526003602052604081208054829190610afe90612d4a565b80601f0160208091040260200160405190810160405280929190818152602001828054610b2a90612d4a565b8015610b775780601f10610b4c57610100808354040283529160200191610b77565b820191906000526020600020905b815481529060010190602001808311610b5a57829003601f168201915b505050505090508383604051610b8e929190612d9d565b60405180910390208180519060200120149150509392505050565b60008181526001602052604090206002810154606091829168010000000000000000900460ff16610c36576040517f08c379a000000000000000000000000000000000000000000000000000000000815260206004820152601060248201527f496e76616c69642070726f706f73616c000000000000000000000000000000006044820152606401610741565b600281015460009068010000000000000000900460ff1667ffffffffffffffff811115610c6557610c656127f0565b604051908082528060200260200182016040528015610c8e578160200160208202803683370190505b50600283015490915060009068010000000000000000900460ff1667ffffffffffffffff811115610cc157610cc16127f0565b604051908082528060200260200182016040528015610cea578160200160208202803683370190505b50905060005b600284015460ff6801000000000000000090910481169082161015610db75760ff8116600081815260038601602052604090208054855191926fffffffffffffffffffffffffffffffff909116918691908110610d4f57610d4f612dad565b6020908102919091010152805483517001000000000000000000000000000000009091046fffffffffffffffffffffffffffffffff1690849060ff8516908110610d9b57610d9b612dad565b602090810291909101015250610db081612e0b565b9050610cf0565b50909590945092505050565b610dcb611b96565b6040517f42d65a8d00000000000000000000000000000000000000000000000000000000815273ffffffffffffffffffffffffffffffffffffffff7f000000000000000000000000000000000000000000000000000000000000000016906342d65a8d90610e4190869086908690600401612e73565b600060405180830381600087803b158015610e5b57600080fd5b505af1158015610926573d6000803e3d6000fd5b60008260ff1611610f02576040517f08c379a000000000000000000000000000000000000000000000000000000000815260206004820152602860248201527f4e756d626572206f66206f7074696f6e73206d7573742062652067726561746560448201527f72207468616e20300000000000000000000000000000000000000000000000006064820152608401610741565b67ffffffffffffffff83161580610f225750428367ffffffffffffffff16115b610f88576040517f08c379a000000000000000000000000000000000000000000000000000000000815260206004820152601260248201527f496e636f727265637420646561646c696e6500000000000000000000000000006044820152606401610741565b600080549080610f9783612e91565b909155505060008054808252600160208190526040909220805491929091879183917fffffffffffffffffffffffffffffffffffffffffffffffffffffffffffffff001690838015610feb57610feb6126fb565b0217905550600181018390556002810180547fffffffffffffffffffffffffffffffffffffffffffffff000000000000000000166801000000000000000060ff8716027fffffffffffffffffffffffffffffffffffffffffffffffff0000000000000000161767ffffffffffffffff87161790556000546040517f506199aaea2f31584a9b29033a4a538f10f26833b39fcc2a50533675181c45f49061109890899087908a908a9061272a565b60405180910390a2505050505050565b333014611137576040517f08c379a000000000000000000000000000000000000000000000000000000000815260206004820152602660248201527f4e6f6e626c6f636b696e674c7a4170703a2063616c6c6572206d75737420626560448201527f204c7a41707000000000000000000000000000000000000000000000000000006064820152608401610741565b6111ad8686868080601f01602080910402602001604051908101604052809392919081815260200183838082843760009201919091525050604080516020601f89018190048102820181019092528781528993509150879087908190840183828082843760009201919091525061204592505050565b505050505050565b6111bd611b96565b6111c76000612078565b565b600360205260009081526040902080546111e290612d4a565b80601f016020809104026020016040519081016040528092919081815260200182805461120e90612d4a565b801561125b5780601f106112305761010080835404028352916020019161125b565b820191906000526020600020905b81548152906001019060200180831161123e57829003601f168201915b505050505081565b61ffff811660009081526003602052604081208054606092919061128690612d4a565b80601f01602080910402602001604051908101604052809291908181526020018280546112b290612d4a565b80156112ff5780601f106112d4576101008083540402835291602001916112ff565b820191906000526020600020905b8154815290600101906020018083116112e257829003601f168201915b505050505090508051600003611371576040517f08c379a000000000000000000000000000000000000000000000000000000000815260206004820152601d60248201527f4c7a4170703a206e6f20747275737465642070617468207265636f72640000006044820152606401610741565b61138c6000601483516113849190612ec9565b8391906120ef565b9392505050565b61139b611b96565b8181306040516020016113b093929190612edc565b604080517fffffffffffffffffffffffffffffffffffffffffffffffffffffffffffffffe081840301815291815261ffff85166000908152600360205220906113f99082612f60565b507f8c0400cfe2d1199b1a725c78960bcc2a344d869b80590d0f2bd005db15a572ce83838360405161142d93929190612e73565b60405180910390a1505050565b611442611b96565b600680547fffffffffffffffffffffffff00000000000000000000000000000000000000001673ffffffffffffffffffffffffffffffffffffffff83169081179091556040519081527f5db758e995a17ec1ad84bdef7e8c3293a0bd6179bcce400dff5d4c3d87db726b9060200160405180910390a150565b6114c3611b96565b6040517fcbed8b9c00000000000000000000000000000000000000000000000000000000815273ffffffffffffffffffffffffffffffffffffffff7f0000000000000000000000000000000000000000000000000000000000000000169063cbed8b9c9061153d908890889088908890889060040161307a565b600060405180830381600087803b15801561155757600080fd5b505af115801561156b573d6000803e3d6000fd5b505050505050505050565b61ffff861660009081526007602052604080822090516115999088908890612d9d565b908152604080516020928190038301902067ffffffffffffffff87166000908152925290205490508061164e576040517f08c379a000000000000000000000000000000000000000000000000000000000815260206004820152602360248201527f4e6f6e626c6f636b696e674c7a4170703a206e6f2073746f726564206d65737360448201527f61676500000000000000000000000000000000000000000000000000000000006064820152608401610741565b80838360405161165f929190612d9d565b6040518091039020146116f4576040517f08c379a000000000000000000000000000000000000000000000000000000000815260206004820152602160248201527f4e6f6e626c6f636b696e674c7a4170703a20696e76616c6964207061796c6f6160448201527f64000000000000000000000000000000000000000000000000000000000000006064820152608401610741565b61ffff871660009081526007602052604080822090516117179089908990612d9d565b908152604080516020928190038301812067ffffffffffffffff8916600090815290845282902093909355601f880182900482028301820190528682526117b0918991899089908190840183828082843760009201919091525050604080516020601f8a018190048102820181019092528881528a93509150889088908190840183828082843760009201919091525061204592505050565b7fc264d91f3adc5588250e1551f547752ca0cfa8f6b530d243b9f9f4cab10ea8e587878787856040516117e79594939291906130b3565b60405180910390a150505050505050565b611800611b96565b6000811161186a576040517f08c379a000000000000000000000000000000000000000000000000000000000815260206004820152601560248201527f4c7a4170703a20696e76616c6964206d696e47617300000000000000000000006044820152606401610741565b61ffff83811660008181526004602090815260408083209487168084529482529182902085905581519283528201929092529081018290527f9d5c7c0b934da8fefa9c7760c98383778a12dfbfc0c3b3106518f43fb9508ac09060600161142d565b6118d4611b96565b61ffff831660009081526003602052604090206118f28284836130ef565b507ffa41487ad5d6728f0b19276fa1eddc16558578f5109fc39d2dc33c3230470dab83838360405161142d93929190612e73565b61192e611b96565b73ffffffffffffffffffffffffffffffffffffffff81166119d1576040517f08c379a000000000000000000000000000000000000000000000000000000000815260206004820152602660248201527f4f776e61626c653a206e6577206f776e657220697320746865207a65726f206160448201527f64647265737300000000000000000000000000000000000000000000000000006064820152608401610741565b6119da81612078565b50565b6040517ff5ecbdbc00000000000000000000000000000000000000000000000000000000815261ffff808616600483015284166024820152306044820152606481018290526060907f000000000000000000000000000000000000000000000000000000000000000073ffffffffffffffffffffffffffffffffffffffff169063f5ecbdbc90608401600060405180830381865afa158015611a83573d6000803e3d6000fd5b505050506040513d6000823e601f3d9081017fffffffffffffffffffffffffffffffffffffffffffffffffffffffffffffffe0168201604052611ac99190810190613209565b95945050505050565b600080611b805a60966366ad5c8a60e01b89898989604051602401611afa9493929190613277565b604080517fffffffffffffffffffffffffffffffffffffffffffffffffffffffffffffffe08184030181529190526020810180517bffffffffffffffffffffffffffffffffffffffffffffffffffffffff167fffffffff000000000000000000000000000000000000000000000000000000009093169290921790915230929190612269565b91509150816111ad576111ad86868686856122f4565b60025473ffffffffffffffffffffffffffffffffffffffff1633146111c7576040517f08c379a000000000000000000000000000000000000000000000000000000000815260206004820181905260248201527f4f776e61626c653a2063616c6c6572206973206e6f7420746865206f776e65726044820152606401610741565b6000848152600160205260409020600281015467ffffffffffffffff1615611cb25760028101544267ffffffffffffffff90911611611cb2576040517f08c379a000000000000000000000000000000000000000000000000000000000815260206004820152600e60248201527f566f74696e67206973206f7665720000000000000000000000000000000000006044820152606401610741565b600281015460ff68010000000000000000909104811690851610611d32576040517f08c379a000000000000000000000000000000000000000000000000000000000815260206004820152601360248201527f496e636f7272656374206f7074696f6e206964000000000000000000000000006044820152606401610741565b600181015415611dfa5760018101546040517fffffffffffffffffffffffffffffffffffffffff000000000000000000000000606089901b166020820152611d9491849160340160405160208183030381529060405280519060200120612392565b611dfa576040517f08c379a000000000000000000000000000000000000000000000000000000000815260206004820152600b60248201527f43616e6e6f7420766f74650000000000000000000000000000000000000000006044820152606401610741565b6000815460ff168015611e0f57611e0f6126fb565b03611e685773ffffffffffffffffffffffffffffffffffffffff861660009081526005820160209081526040808320546004850190925290912054611e68918591611e609160ff90811691166132b6565b60ff166123a8565b8215611f225760ff8416600090815260038201602052604081208054909190611ea2906fffffffffffffffffffffffffffffffff166132cf565b82546fffffffffffffffffffffffffffffffff9182166101009390930a928302919092021990911617905573ffffffffffffffffffffffffffffffffffffffff8616600090815260048201602052604081208054909190611f059060ff16612e0b565b91906101000a81548160ff021916908360ff160217905550611fe6565b60ff8416600090815260038201602052604090208054601090611f6a9070010000000000000000000000000000000090046fffffffffffffffffffffffffffffffff166132cf565b82546fffffffffffffffffffffffffffffffff9182166101009390930a928302919092021990911617905573ffffffffffffffffffffffffffffffffffffffff8616600090815260058201602052604081208054909190611fcd9060ff16612e0b565b91906101000a81548160ff021916908360ff1602179055505b8573ffffffffffffffffffffffffffffffffffffffff168460ff16867fff4c775c9f079c87c88545ae279d03fedd35bdd4696db6daff91b36e5d46aeda86604051612035911515815260200190565b60405180910390a4505050505050565b60008060008060008580602001905181019061206191906132fe565b9450945094509450945061156b8585858585611c17565b6002805473ffffffffffffffffffffffffffffffffffffffff8381167fffffffffffffffffffffffff0000000000000000000000000000000000000000831681179093556040519116919082907f8be0079c531659141344cd1fd0a4f28419497f9722a3daafe3b4186f6b6457e090600090a35050565b6060816120fd81601f6133d7565b1015612165576040517f08c379a000000000000000000000000000000000000000000000000000000000815260206004820152600e60248201527f736c6963655f6f766572666c6f770000000000000000000000000000000000006044820152606401610741565b61216f82846133d7565b845110156121d9576040517f08c379a000000000000000000000000000000000000000000000000000000000815260206004820152601160248201527f736c6963655f6f75744f66426f756e64730000000000000000000000000000006044820152606401610741565b6060821580156121f85760405191506000825260208201604052612260565b6040519150601f8416801560200281840101858101878315602002848b0101015b81831015612231578051835260209283019201612219565b5050858452601f017fffffffffffffffffffffffffffffffffffffffffffffffffffffffffffffffe016604052505b50949350505050565b6000606060008060008661ffff1667ffffffffffffffff81111561228f5761228f6127f0565b6040519080825280601f01601f1916602001820160405280156122b9576020820181803683370190505b50905060008087516020890160008d8df191503d9250868311156122db578692505b828152826000602083013e909890975095505050505050565b8180519060200120600760008761ffff1661ffff1681526020019081526020016000208560405161232591906133ea565b90815260408051918290036020908101832067ffffffffffffffff88166000908152915220919091557fe183f33de2837795525b4792ca4cd60535bd77c53b7e7030060bfcf5734d6b0c906123839087908790879087908790613406565b60405180910390a15050505050565b60008261239f8584612562565b14949350505050565b60038110612438576040517f08c379a000000000000000000000000000000000000000000000000000000000815260206004820152602d60248201527f566f7465722068617320616c726561647920646973747269627574656420616c60448201527f6c20746865697220766f746573000000000000000000000000000000000000006064820152608401610741565b81156124d257600281106124ce576040517f08c379a000000000000000000000000000000000000000000000000000000000815260206004820152603260248201527f566f7465722068617320616c726561647920646973747269627574656420746860448201527f65697220706f73697469766520766f74657300000000000000000000000000006064820152608401610741565b5050565b806002146124ce576040517f08c379a000000000000000000000000000000000000000000000000000000000815260206004820152602560248201527f566f7465722063616e6e6f742064697374726962757465206e6567617469766560448201527f20766f74650000000000000000000000000000000000000000000000000000006064820152608401610741565b600081815b84518110156125a7576125938286838151811061258657612586612dad565b60200260200101516125b1565b91508061259f81612e91565b915050612567565b5090505b92915050565b60008183106125cd57600082815260208490526040902061138c565b5060009182526020526040902090565b803561ffff811681146125ef57600080fd5b919050565b60008083601f84011261260657600080fd5b50813567ffffffffffffffff81111561261e57600080fd5b602083019150836020828501011115610ad657600080fd5b803567ffffffffffffffff811681146125ef57600080fd5b6000806000806000806080878903121561266757600080fd5b612670876125dd565b9550602087013567ffffffffffffffff8082111561268d57600080fd5b6126998a838b016125f4565b90975095508591506126ad60408a01612636565b945060608901359150808211156126c357600080fd5b506126d089828a016125f4565b979a9699509497509295939492505050565b6000602082840312156126f457600080fd5b5035919050565b7f4e487b7100000000000000000000000000000000000000000000000000000000600052602160045260246000fd5b6080810160018610612765577f4e487b7100000000000000000000000000000000000000000000000000000000600052602160045260246000fd5b948152602081019390935267ffffffffffffffff91909116604083015260ff1660609091015290565b6000602082840312156127a057600080fd5b61138c826125dd565b600080604083850312156127bc57600080fd5b6127c5836125dd565b946020939093013593505050565b60ff811681146119da57600080fd5b80151581146119da57600080fd5b7f4e487b7100000000000000000000000000000000000000000000000000000000600052604160045260246000fd5b604051601f82017fffffffffffffffffffffffffffffffffffffffffffffffffffffffffffffffe016810167ffffffffffffffff81118282101715612866576128666127f0565b604052919050565b600067ffffffffffffffff821115612888576128886127f0565b5060051b60200190565b600080600080608085870312156128a857600080fd5b843593506020808601356128bb816127d3565b935060408601356128cb816127e2565b9250606086013567ffffffffffffffff8111156128e757600080fd5b8601601f810188136128f857600080fd5b803561290b6129068261286e565b61281f565b81815260059190911b8201830190838101908a83111561292a57600080fd5b928401925b828410156129485783358252928401929084019061292f565b979a9699509497505050505050565b73ffffffffffffffffffffffffffffffffffffffff811681146119da57600080fd5b6000806040838503121561298c57600080fd5b82359150602083013561299e81612957565b809150509250929050565b6000806000604084860312156129be57600080fd5b6129c7846125dd565b9250602084013567ffffffffffffffff8111156129e357600080fd5b6129ef868287016125f4565b9497909650939450505050565b600081518084526020808501945080840160005b83811015612a2c57815187529582019590820190600101612a10565b509495945050505050565b604081526000612a4a60408301856129fc565b8281036020840152611ac981856129fc565b60008060008060808587031215612a7257600080fd5b843560018110612a8157600080fd5b9350612a8f60208601612636565b92506040850135612a9f816127d3565b9396929550929360600135925050565b600067ffffffffffffffff821115612ac957612ac96127f0565b50601f017fffffffffffffffffffffffffffffffffffffffffffffffffffffffffffffffe01660200190565b600080600060608486031215612b0a57600080fd5b612b13846125dd565b9250602084013567ffffffffffffffff811115612b2f57600080fd5b8401601f81018613612b4057600080fd5b8035612b4e61290682612aaf565b818152876020838501011115612b6357600080fd5b81602084016020830137600060208383010152809450505050612b8860408501612636565b90509250925092565b60005b83811015612bac578181015183820152602001612b94565b50506000910152565b60008151808452612bcd816020860160208601612b91565b601f017fffffffffffffffffffffffffffffffffffffffffffffffffffffffffffffffe0169290920160200192915050565b60208152600061138c6020830184612bb5565b60008060408385031215612c2557600080fd5b612c2e836125dd565b9150612c3c602084016125dd565b90509250929050565b600060208284031215612c5757600080fd5b813561138c81612957565b600080600080600060808688031215612c7a57600080fd5b612c83866125dd565b9450612c91602087016125dd565b935060408601359250606086013567ffffffffffffffff811115612cb457600080fd5b612cc0888289016125f4565b969995985093965092949392505050565b600080600060608486031215612ce657600080fd5b612cef846125dd565b9250612cfd602085016125dd565b9150604084013590509250925092565b60008060008060808587031215612d2357600080fd5b612d2c856125dd565b9350612d3a602086016125dd565b92506040850135612a9f81612957565b600181811c90821680612d5e57607f821691505b602082108103612d97577f4e487b7100000000000000000000000000000000000000000000000000000000600052602260045260246000fd5b50919050565b8183823760009101908152919050565b7f4e487b7100000000000000000000000000000000000000000000000000000000600052603260045260246000fd5b7f4e487b7100000000000000000000000000000000000000000000000000000000600052601160045260246000fd5b600060ff821660ff8103612e2157612e21612ddc565b60010192915050565b8183528181602085013750600060208284010152600060207fffffffffffffffffffffffffffffffffffffffffffffffffffffffffffffffe0601f840116840101905092915050565b61ffff84168152604060208201526000611ac9604083018486612e2a565b60007fffffffffffffffffffffffffffffffffffffffffffffffffffffffffffffffff8203612ec257612ec2612ddc565b5060010190565b818103818111156125ab576125ab612ddc565b8284823760609190911b7fffffffffffffffffffffffffffffffffffffffff000000000000000000000000169101908152601401919050565b601f821115612f5b57600081815260208120601f850160051c81016020861015612f3c5750805b601f850160051c820191505b818110156111ad57828155600101612f48565b505050565b815167ffffffffffffffff811115612f7a57612f7a6127f0565b612f8e81612f888454612d4a565b84612f15565b602080601f831160018114612fe15760008415612fab5750858301515b7fffffffffffffffffffffffffffffffffffffffffffffffffffffffffffffffff600386901b1c1916600185901b1785556111ad565b6000858152602081207fffffffffffffffffffffffffffffffffffffffffffffffffffffffffffffffe08616915b8281101561302e5788860151825594840194600190910190840161300f565b508582101561306a57878501517fffffffffffffffffffffffffffffffffffffffffffffffffffffffffffffffff600388901b60f8161c191681555b5050505050600190811b01905550565b600061ffff8088168352808716602084015250846040830152608060608301526130a8608083018486612e2a565b979650505050505050565b61ffff861681526080602082015260006130d1608083018688612e2a565b67ffffffffffffffff94909416604083015250606001529392505050565b67ffffffffffffffff831115613107576131076127f0565b61311b836131158354612d4a565b83612f15565b6000601f84116001811461316d57600085156131375750838201355b7fffffffffffffffffffffffffffffffffffffffffffffffffffffffffffffffff600387901b1c1916600186901b1783556109d7565b6000838152602090207fffffffffffffffffffffffffffffffffffffffffffffffffffffffffffffffe0861690835b828110156131bc578685013582556020948501946001909201910161319c565b50868210156131f7577fffffffffffffffffffffffffffffffffffffffffffffffffffffffffffffffff60f88860031b161c19848701351681555b505060018560011b0183555050505050565b60006020828403121561321b57600080fd5b815167ffffffffffffffff81111561323257600080fd5b8201601f8101841361324357600080fd5b805161325161290682612aaf565b81815285602083850101111561326657600080fd5b611ac9826020830160208601612b91565b61ffff851681526080602082015260006132946080830186612bb5565b67ffffffffffffffff8516604084015282810360608401526130a88185612bb5565b60ff81811683821601908111156125ab576125ab612ddc565b60006fffffffffffffffffffffffffffffffff8083168181036132f4576132f4612ddc565b6001019392505050565b600080600080600060a0868803121561331657600080fd5b855161332181612957565b809550506020808701519450604087015161333b816127d3565b606088015190945061334c816127e2565b608088015190935067ffffffffffffffff81111561336957600080fd5b8701601f8101891361337a57600080fd5b80516133886129068261286e565b81815260059190911b8201830190838101908b8311156133a757600080fd5b928401925b828410156133c5578351825292840192908401906133ac565b80955050505050509295509295909350565b808201808211156125ab576125ab612ddc565b600082516133fc818460208701612b91565b9190910192915050565b61ffff8616815260a06020820152600061342360a0830187612bb5565b67ffffffffffffffff8616604084015282810360608401526134458186612bb5565b905082810360808401526134598185612bb5565b9897505050505050505056fea2646970667358221220e8aafe55c89865a989e3de57115ac346321fd84bfe7968412cf15001e987abc664736f6c63430008110033",
  "devdoc": {
    "author": "Bloxauce",
    "kind": "dev",
    "methods": {
      "createProposal(uint8,uint64,uint8,bytes32)": {
        "params": {
          "deadline": "Until when can people vote",
          "format": "Selected format of voting",
          "length": "Number of options",
          "root": "Merkle tree root if voting is locked. Leave empty for public voting"
        }
      },
      "getAddressVotesForProposal(uint256,address)": {
        "params": {
          "proposalId": "Proposal id",
          "voter": "Address of the voter"
        },
        "returns": {
          "_0": "positive votes",
          "_1": "negative votes"
        }
      },
      "getProposalStatus(uint256)": {
        "params": {
          "proposalId": "Proposal id"
        },
        "returns": {
          "_0": "array of positive votes sorted by id",
          "_1": "array of negative votes sorted by id"
        }
      },
      "owner()": {
        "details": "Returns the address of the current owner."
      },
      "renounceOwnership()": {
        "details": "Leaves the contract without owner. It will not be possible to call `onlyOwner` functions. Can only be called by the current owner. NOTE: Renouncing ownership will leave the contract without an owner, thereby disabling any functionality that is only available to the owner."
      },
      "sendVote(uint256,uint8,bool,bytes32[])": {
        "params": {
          "optionId": "Id of the option",
          "proof": "For merkle tree if applicable",
          "proposalId": "Id of the proposal to vote for",
          "vote": "True = positive, false = negative"
        }
      },
      "transferOwnership(address)": {
        "details": "Transfers ownership of the contract to a new account (`newOwner`). Can only be called by the current owner."
      }
    },
    "title": "Voting Executor",
    "version": 1
  },
  "userdoc": {
    "events": {
      "ProposalCreated(uint256,uint8,bytes32,uint64,uint8)": {
        "notice": "Event emitted when a proposal is created"
      },
      "VoteRecorded(uint256,uint256,address,bool)": {
        "notice": "Event emitted when a vote is recorded"
      },
      "VoteSent(uint256,uint8,address,bool)": {
        "notice": "Event emitted when a vote is sent"
      }
    },
    "kind": "user",
    "methods": {
      "createProposal(uint8,uint64,uint8,bytes32)": {
        "notice": "Creates a proposal for voting"
      },
      "getAddressVotesForProposal(uint256,address)": {
        "notice": "Gets the number of votes for an address for proposal"
      },
      "getProposalStatus(uint256)": {
        "notice": "Gets the number of positive and negative votes of all options in a proposal"
      },
      "sendVote(uint256,uint8,bool,bytes32[])": {
        "notice": "Sends a vote to executor"
      }
    },
    "notice": "Contract to create projects and collect votes",
    "version": 1
  },
  "storageLayout": {
    "storage": [
      {
        "astId": 2765,
        "contract": "contracts/Voting/Executor/VotingExecutor.sol:VotingExecutor",
        "label": "lastProposalId",
        "offset": 0,
        "slot": "0",
        "type": "t_uint256"
      },
      {
        "astId": 2770,
        "contract": "contracts/Voting/Executor/VotingExecutor.sol:VotingExecutor",
        "label": "proposals",
        "offset": 0,
        "slot": "1",
        "type": "t_mapping(t_uint256,t_struct(Proposal)2799_storage)"
      },
      {
        "astId": 7,
        "contract": "contracts/Voting/Executor/VotingExecutor.sol:VotingExecutor",
        "label": "_owner",
        "offset": 0,
        "slot": "2",
        "type": "t_address"
      },
      {
        "astId": 3049,
        "contract": "contracts/Voting/Executor/VotingExecutor.sol:VotingExecutor",
        "label": "trustedRemoteLookup",
        "offset": 0,
        "slot": "3",
        "type": "t_mapping(t_uint16,t_bytes_storage)"
      },
      {
        "astId": 3055,
        "contract": "contracts/Voting/Executor/VotingExecutor.sol:VotingExecutor",
        "label": "minDstGasLookup",
        "offset": 0,
        "slot": "4",
        "type": "t_mapping(t_uint16,t_mapping(t_uint16,t_uint256))"
      },
      {
        "astId": 3059,
        "contract": "contracts/Voting/Executor/VotingExecutor.sol:VotingExecutor",
        "label": "payloadSizeLimitLookup",
        "offset": 0,
        "slot": "5",
        "type": "t_mapping(t_uint16,t_uint256)"
      },
      {
        "astId": 3061,
        "contract": "contracts/Voting/Executor/VotingExecutor.sol:VotingExecutor",
        "label": "precrime",
        "offset": 0,
        "slot": "6",
        "type": "t_address"
      },
      {
        "astId": 3598,
        "contract": "contracts/Voting/Executor/VotingExecutor.sol:VotingExecutor",
        "label": "failedMessages",
        "offset": 0,
        "slot": "7",
        "type": "t_mapping(t_uint16,t_mapping(t_bytes_memory_ptr,t_mapping(t_uint64,t_bytes32)))"
      }
    ],
    "types": {
      "t_address": {
        "encoding": "inplace",
        "label": "address",
        "numberOfBytes": "20"
      },
      "t_bytes32": {
        "encoding": "inplace",
        "label": "bytes32",
        "numberOfBytes": "32"
      },
      "t_bytes_memory_ptr": {
        "encoding": "bytes",
        "label": "bytes",
        "numberOfBytes": "32"
      },
      "t_bytes_storage": {
        "encoding": "bytes",
        "label": "bytes",
        "numberOfBytes": "32"
      },
      "t_enum(VotingFormat)2776": {
        "encoding": "inplace",
        "label": "enum VotingExecutorStructures.VotingFormat",
        "numberOfBytes": "1"
      },
      "t_mapping(t_address,t_uint8)": {
        "encoding": "mapping",
        "key": "t_address",
        "label": "mapping(address => uint8)",
        "numberOfBytes": "32",
        "value": "t_uint8"
      },
      "t_mapping(t_bytes_memory_ptr,t_mapping(t_uint64,t_bytes32))": {
        "encoding": "mapping",
        "key": "t_bytes_memory_ptr",
        "label": "mapping(bytes => mapping(uint64 => bytes32))",
        "numberOfBytes": "32",
        "value": "t_mapping(t_uint64,t_bytes32)"
      },
      "t_mapping(t_uint16,t_bytes_storage)": {
        "encoding": "mapping",
        "key": "t_uint16",
        "label": "mapping(uint16 => bytes)",
        "numberOfBytes": "32",
        "value": "t_bytes_storage"
      },
      "t_mapping(t_uint16,t_mapping(t_bytes_memory_ptr,t_mapping(t_uint64,t_bytes32)))": {
        "encoding": "mapping",
        "key": "t_uint16",
        "label": "mapping(uint16 => mapping(bytes => mapping(uint64 => bytes32)))",
        "numberOfBytes": "32",
        "value": "t_mapping(t_bytes_memory_ptr,t_mapping(t_uint64,t_bytes32))"
      },
      "t_mapping(t_uint16,t_mapping(t_uint16,t_uint256))": {
        "encoding": "mapping",
        "key": "t_uint16",
        "label": "mapping(uint16 => mapping(uint16 => uint256))",
        "numberOfBytes": "32",
        "value": "t_mapping(t_uint16,t_uint256)"
      },
      "t_mapping(t_uint16,t_uint256)": {
        "encoding": "mapping",
        "key": "t_uint16",
        "label": "mapping(uint16 => uint256)",
        "numberOfBytes": "32",
        "value": "t_uint256"
      },
      "t_mapping(t_uint256,t_struct(Proposal)2799_storage)": {
        "encoding": "mapping",
        "key": "t_uint256",
        "label": "mapping(uint256 => struct VotingExecutorStructures.Proposal)",
        "numberOfBytes": "32",
        "value": "t_struct(Proposal)2799_storage"
      },
      "t_mapping(t_uint64,t_bytes32)": {
        "encoding": "mapping",
        "key": "t_uint64",
        "label": "mapping(uint64 => bytes32)",
        "numberOfBytes": "32",
        "value": "t_bytes32"
      },
      "t_mapping(t_uint8,t_struct(Option)2804_storage)": {
        "encoding": "mapping",
        "key": "t_uint8",
        "label": "mapping(uint8 => struct VotingExecutorStructures.Option)",
        "numberOfBytes": "32",
        "value": "t_struct(Option)2804_storage"
      },
      "t_struct(Option)2804_storage": {
        "encoding": "inplace",
        "label": "struct VotingExecutorStructures.Option",
        "members": [
          {
            "astId": 2801,
            "contract": "contracts/Voting/Executor/VotingExecutor.sol:VotingExecutor",
            "label": "positiveVotes",
            "offset": 0,
            "slot": "0",
            "type": "t_uint128"
          },
          {
            "astId": 2803,
            "contract": "contracts/Voting/Executor/VotingExecutor.sol:VotingExecutor",
            "label": "negativeVotes",
            "offset": 16,
            "slot": "0",
            "type": "t_uint128"
          }
        ],
        "numberOfBytes": "32"
      },
      "t_struct(Proposal)2799_storage": {
        "encoding": "inplace",
        "label": "struct VotingExecutorStructures.Proposal",
        "members": [
          {
            "astId": 2779,
            "contract": "contracts/Voting/Executor/VotingExecutor.sol:VotingExecutor",
            "label": "format",
            "offset": 0,
            "slot": "0",
            "type": "t_enum(VotingFormat)2776"
          },
          {
            "astId": 2781,
            "contract": "contracts/Voting/Executor/VotingExecutor.sol:VotingExecutor",
            "label": "merkleTreeRoot",
            "offset": 0,
            "slot": "1",
            "type": "t_bytes32"
          },
          {
            "astId": 2783,
            "contract": "contracts/Voting/Executor/VotingExecutor.sol:VotingExecutor",
            "label": "deadline",
            "offset": 0,
            "slot": "2",
            "type": "t_uint64"
          },
          {
            "astId": 2785,
            "contract": "contracts/Voting/Executor/VotingExecutor.sol:VotingExecutor",
            "label": "optionsLength",
            "offset": 8,
            "slot": "2",
            "type": "t_uint8"
          },
          {
            "astId": 2790,
            "contract": "contracts/Voting/Executor/VotingExecutor.sol:VotingExecutor",
            "label": "options",
            "offset": 0,
            "slot": "3",
            "type": "t_mapping(t_uint8,t_struct(Option)2804_storage)"
          },
          {
            "astId": 2794,
            "contract": "contracts/Voting/Executor/VotingExecutor.sol:VotingExecutor",
            "label": "addressPositiveVotes",
            "offset": 0,
            "slot": "4",
            "type": "t_mapping(t_address,t_uint8)"
          },
          {
            "astId": 2798,
            "contract": "contracts/Voting/Executor/VotingExecutor.sol:VotingExecutor",
            "label": "addressNegativeVotes",
            "offset": 0,
            "slot": "5",
            "type": "t_mapping(t_address,t_uint8)"
          }
        ],
        "numberOfBytes": "192"
      },
      "t_uint128": {
        "encoding": "inplace",
        "label": "uint128",
        "numberOfBytes": "16"
      },
      "t_uint16": {
        "encoding": "inplace",
        "label": "uint16",
        "numberOfBytes": "2"
      },
      "t_uint256": {
        "encoding": "inplace",
        "label": "uint256",
        "numberOfBytes": "32"
      },
      "t_uint64": {
        "encoding": "inplace",
        "label": "uint64",
        "numberOfBytes": "8"
      },
      "t_uint8": {
        "encoding": "inplace",
        "label": "uint8",
        "numberOfBytes": "1"
      }
    }
  }
}