{
  "address": "0x6dbd9c7a43f5AfDaF79c9e1ACcd84b0218A5a5D4",
  "abi": [
    {
      "inputs": [
        {
          "internalType": "address",
          "name": "_lzEndpoint",
          "type": "address"
        }
      ],
      "stateMutability": "nonpayable",
      "type": "constructor"
    },
    {
      "anonymous": false,
      "inputs": [
        {
          "indexed": false,
          "internalType": "uint16",
          "name": "first",
          "type": "uint16"
        },
        {
          "indexed": false,
          "internalType": "bytes",
          "name": "second",
          "type": "bytes"
        },
        {
          "indexed": false,
          "internalType": "uint64",
          "name": "third",
          "type": "uint64"
        },
        {
          "indexed": false,
          "internalType": "bytes",
          "name": "fourth",
          "type": "bytes"
        }
      ],
      "name": "IncrementCounterMessage",
      "type": "event"
    },
    {
      "anonymous": false,
      "inputs": [
        {
          "indexed": false,
          "internalType": "uint16",
          "name": "_srcChainId",
          "type": "uint16"
        },
        {
          "indexed": false,
          "internalType": "bytes",
          "name": "_srcAddress",
          "type": "bytes"
        },
        {
          "indexed": false,
          "internalType": "uint64",
          "name": "_nonce",
          "type": "uint64"
        },
        {
          "indexed": false,
          "internalType": "bytes",
          "name": "_payload",
          "type": "bytes"
        },
        {
          "indexed": false,
          "internalType": "bytes",
          "name": "_reason",
          "type": "bytes"
        }
      ],
      "name": "MessageFailed",
      "type": "event"
    },
    {
      "anonymous": false,
      "inputs": [
        {
          "indexed": true,
          "internalType": "address",
          "name": "previousOwner",
          "type": "address"
        },
        {
          "indexed": true,
          "internalType": "address",
          "name": "newOwner",
          "type": "address"
        }
      ],
      "name": "OwnershipTransferred",
      "type": "event"
    },
    {
      "anonymous": false,
      "inputs": [
        {
          "indexed": false,
          "internalType": "uint16",
          "name": "_srcChainId",
          "type": "uint16"
        },
        {
          "indexed": false,
          "internalType": "bytes",
          "name": "_srcAddress",
          "type": "bytes"
        },
        {
          "indexed": false,
          "internalType": "uint64",
          "name": "_nonce",
          "type": "uint64"
        },
        {
          "indexed": false,
          "internalType": "bytes32",
          "name": "_payloadHash",
          "type": "bytes32"
        }
      ],
      "name": "RetryMessageSuccess",
      "type": "event"
    },
    {
      "anonymous": false,
      "inputs": [
        {
          "indexed": false,
          "internalType": "uint16",
          "name": "_dstChainId",
          "type": "uint16"
        },
        {
          "indexed": false,
          "internalType": "uint16",
          "name": "_type",
          "type": "uint16"
        },
        {
          "indexed": false,
          "internalType": "uint256",
          "name": "_minDstGas",
          "type": "uint256"
        }
      ],
      "name": "SetMinDstGas",
      "type": "event"
    },
    {
      "anonymous": false,
      "inputs": [
        {
          "indexed": false,
          "internalType": "address",
          "name": "precrime",
          "type": "address"
        }
      ],
      "name": "SetPrecrime",
      "type": "event"
    },
    {
      "anonymous": false,
      "inputs": [
        {
          "indexed": false,
          "internalType": "uint16",
          "name": "_remoteChainId",
          "type": "uint16"
        },
        {
          "indexed": false,
          "internalType": "bytes",
          "name": "_path",
          "type": "bytes"
        }
      ],
      "name": "SetTrustedRemote",
      "type": "event"
    },
    {
      "anonymous": false,
      "inputs": [
        {
          "indexed": false,
          "internalType": "uint16",
          "name": "_remoteChainId",
          "type": "uint16"
        },
        {
          "indexed": false,
          "internalType": "bytes",
          "name": "_remoteAddress",
          "type": "bytes"
        }
      ],
      "name": "SetTrustedRemoteAddress",
      "type": "event"
    },
    {
      "inputs": [],
      "name": "DEFAULT_PAYLOAD_SIZE_LIMIT",
      "outputs": [
        {
          "internalType": "uint256",
          "name": "",
          "type": "uint256"
        }
      ],
      "stateMutability": "view",
      "type": "function"
    },
    {
      "inputs": [],
      "name": "counter",
      "outputs": [
        {
          "internalType": "uint256",
          "name": "",
          "type": "uint256"
        }
      ],
      "stateMutability": "view",
      "type": "function"
    },
    {
      "inputs": [
        {
          "internalType": "uint16",
          "name": "",
          "type": "uint16"
        },
        {
          "internalType": "bytes",
          "name": "",
          "type": "bytes"
        },
        {
          "internalType": "uint64",
          "name": "",
          "type": "uint64"
        }
      ],
      "name": "failedMessages",
      "outputs": [
        {
          "internalType": "bytes32",
          "name": "",
          "type": "bytes32"
        }
      ],
      "stateMutability": "view",
      "type": "function"
    },
    {
      "inputs": [
        {
          "internalType": "uint16",
          "name": "_srcChainId",
          "type": "uint16"
        },
        {
          "internalType": "bytes",
          "name": "_srcAddress",
          "type": "bytes"
        }
      ],
      "name": "forceResumeReceive",
      "outputs": [],
      "stateMutability": "nonpayable",
      "type": "function"
    },
    {
      "inputs": [
        {
          "internalType": "uint16",
          "name": "_version",
          "type": "uint16"
        },
        {
          "internalType": "uint16",
          "name": "_chainId",
          "type": "uint16"
        },
        {
          "internalType": "address",
          "name": "",
          "type": "address"
        },
        {
          "internalType": "uint256",
          "name": "_configType",
          "type": "uint256"
        }
      ],
      "name": "getConfig",
      "outputs": [
        {
          "internalType": "bytes",
          "name": "",
          "type": "bytes"
        }
      ],
      "stateMutability": "view",
      "type": "function"
    },
    {
      "inputs": [
        {
          "internalType": "uint16",
          "name": "_remoteChainId",
          "type": "uint16"
        }
      ],
      "name": "getTrustedRemoteAddress",
      "outputs": [
        {
          "internalType": "bytes",
          "name": "",
          "type": "bytes"
        }
      ],
      "stateMutability": "view",
      "type": "function"
    },
    {
      "inputs": [
        {
          "internalType": "uint16",
          "name": "_dstChainId",
          "type": "uint16"
        }
      ],
      "name": "incrementCounter",
      "outputs": [],
      "stateMutability": "payable",
      "type": "function"
    },
    {
      "inputs": [
        {
          "internalType": "uint16",
          "name": "_srcChainId",
          "type": "uint16"
        },
        {
          "internalType": "bytes",
          "name": "_srcAddress",
          "type": "bytes"
        }
      ],
      "name": "isTrustedRemote",
      "outputs": [
        {
          "internalType": "bool",
          "name": "",
          "type": "bool"
        }
      ],
      "stateMutability": "view",
      "type": "function"
    },
    {
      "inputs": [],
      "name": "lzEndpoint",
      "outputs": [
        {
          "internalType": "contract ILayerZeroEndpoint",
          "name": "",
          "type": "address"
        }
      ],
      "stateMutability": "view",
      "type": "function"
    },
    {
      "inputs": [
        {
          "internalType": "uint16",
          "name": "_srcChainId",
          "type": "uint16"
        },
        {
          "internalType": "bytes",
          "name": "_srcAddress",
          "type": "bytes"
        },
        {
          "internalType": "uint64",
          "name": "_nonce",
          "type": "uint64"
        },
        {
          "internalType": "bytes",
          "name": "_payload",
          "type": "bytes"
        }
      ],
      "name": "lzReceive",
      "outputs": [],
      "stateMutability": "nonpayable",
      "type": "function"
    },
    {
      "inputs": [
        {
          "internalType": "uint16",
          "name": "",
          "type": "uint16"
        },
        {
          "internalType": "uint16",
          "name": "",
          "type": "uint16"
        }
      ],
      "name": "minDstGasLookup",
      "outputs": [
        {
          "internalType": "uint256",
          "name": "",
          "type": "uint256"
        }
      ],
      "stateMutability": "view",
      "type": "function"
    },
    {
      "inputs": [
        {
          "internalType": "uint16",
          "name": "_srcChainId",
          "type": "uint16"
        },
        {
          "internalType": "bytes",
          "name": "_srcAddress",
          "type": "bytes"
        },
        {
          "internalType": "uint64",
          "name": "_nonce",
          "type": "uint64"
        },
        {
          "internalType": "bytes",
          "name": "_payload",
          "type": "bytes"
        }
      ],
      "name": "nonblockingLzReceive",
      "outputs": [],
      "stateMutability": "nonpayable",
      "type": "function"
    },
    {
      "inputs": [],
      "name": "owner",
      "outputs": [
        {
          "internalType": "address",
          "name": "",
          "type": "address"
        }
      ],
      "stateMutability": "view",
      "type": "function"
    },
    {
      "inputs": [
        {
          "internalType": "uint16",
          "name": "",
          "type": "uint16"
        }
      ],
      "name": "payloadSizeLimitLookup",
      "outputs": [
        {
          "internalType": "uint256",
          "name": "",
          "type": "uint256"
        }
      ],
      "stateMutability": "view",
      "type": "function"
    },
    {
      "inputs": [],
      "name": "precrime",
      "outputs": [
        {
          "internalType": "address",
          "name": "",
          "type": "address"
        }
      ],
      "stateMutability": "view",
      "type": "function"
    },
    {
      "inputs": [],
      "name": "renounceOwnership",
      "outputs": [],
      "stateMutability": "nonpayable",
      "type": "function"
    },
    {
      "inputs": [
        {
          "internalType": "uint16",
          "name": "_srcChainId",
          "type": "uint16"
        },
        {
          "internalType": "bytes",
          "name": "_srcAddress",
          "type": "bytes"
        },
        {
          "internalType": "uint64",
          "name": "_nonce",
          "type": "uint64"
        },
        {
          "internalType": "bytes",
          "name": "_payload",
          "type": "bytes"
        }
      ],
      "name": "retryMessage",
      "outputs": [],
      "stateMutability": "payable",
      "type": "function"
    },
    {
      "inputs": [
        {
          "internalType": "uint16",
          "name": "_version",
          "type": "uint16"
        },
        {
          "internalType": "uint16",
          "name": "_chainId",
          "type": "uint16"
        },
        {
          "internalType": "uint256",
          "name": "_configType",
          "type": "uint256"
        },
        {
          "internalType": "bytes",
          "name": "_config",
          "type": "bytes"
        }
      ],
      "name": "setConfig",
      "outputs": [],
      "stateMutability": "nonpayable",
      "type": "function"
    },
    {
      "inputs": [
        {
          "internalType": "uint16",
          "name": "_dstChainId",
          "type": "uint16"
        },
        {
          "internalType": "uint16",
          "name": "_packetType",
          "type": "uint16"
        },
        {
          "internalType": "uint256",
          "name": "_minGas",
          "type": "uint256"
        }
      ],
      "name": "setMinDstGas",
      "outputs": [],
      "stateMutability": "nonpayable",
      "type": "function"
    },
    {
      "inputs": [
        {
          "internalType": "uint16",
          "name": "_dstChainId",
          "type": "uint16"
        },
        {
          "internalType": "uint256",
          "name": "_size",
          "type": "uint256"
        }
      ],
      "name": "setPayloadSizeLimit",
      "outputs": [],
      "stateMutability": "nonpayable",
      "type": "function"
    },
    {
      "inputs": [
        {
          "internalType": "address",
          "name": "_precrime",
          "type": "address"
        }
      ],
      "name": "setPrecrime",
      "outputs": [],
      "stateMutability": "nonpayable",
      "type": "function"
    },
    {
      "inputs": [
        {
          "internalType": "uint16",
          "name": "_version",
          "type": "uint16"
        }
      ],
      "name": "setReceiveVersion",
      "outputs": [],
      "stateMutability": "nonpayable",
      "type": "function"
    },
    {
      "inputs": [
        {
          "internalType": "uint16",
          "name": "_version",
          "type": "uint16"
        }
      ],
      "name": "setSendVersion",
      "outputs": [],
      "stateMutability": "nonpayable",
      "type": "function"
    },
    {
      "inputs": [
        {
          "internalType": "uint16",
          "name": "_remoteChainId",
          "type": "uint16"
        },
        {
          "internalType": "bytes",
          "name": "_path",
          "type": "bytes"
        }
      ],
      "name": "setTrustedRemote",
      "outputs": [],
      "stateMutability": "nonpayable",
      "type": "function"
    },
    {
      "inputs": [
        {
          "internalType": "uint16",
          "name": "_remoteChainId",
          "type": "uint16"
        },
        {
          "internalType": "bytes",
          "name": "_remoteAddress",
          "type": "bytes"
        }
      ],
      "name": "setTrustedRemoteAddress",
      "outputs": [],
      "stateMutability": "nonpayable",
      "type": "function"
    },
    {
      "inputs": [
        {
          "internalType": "address",
          "name": "newOwner",
          "type": "address"
        }
      ],
      "name": "transferOwnership",
      "outputs": [],
      "stateMutability": "nonpayable",
      "type": "function"
    },
    {
      "inputs": [
        {
          "internalType": "uint16",
          "name": "",
          "type": "uint16"
        }
      ],
      "name": "trustedRemoteLookup",
      "outputs": [
        {
          "internalType": "bytes",
          "name": "",
          "type": "bytes"
        }
      ],
      "stateMutability": "view",
      "type": "function"
    }
  ],
  "transactionHash": "0x565d32fd42ce90a4abaa45aff36e09bc1c8c0a3ee1c596b4e3b53aece6f0611f",
  "args": [
    "0x6Fcb97553D41516Cb228ac03FdC8B9a0a9df04A1"
  ],
  "numDeployments": 2,
  "solcInputHash": "972deedbd6e90cb1c56be02000e992ac",
  "bytecode": "0x60a06040523480156200001157600080fd5b5060405162002297380380620022978339810160408190526200003491620000a6565b8080620000413362000056565b6001600160a01b031660805250620000d89050565b600080546001600160a01b038381166001600160a01b0319831681178455604051919092169283917f8be0079c531659141344cd1fd0a4f28419497f9722a3daafe3b4186f6b6457e09190a35050565b600060208284031215620000b957600080fd5b81516001600160a01b0381168114620000d157600080fd5b9392505050565b60805161217262000125600039600081816103f80152818161050601528181610755015281816107fd0152818161091f01528181610d6b015281816111aa01526114d701526121726000f3fe60806040526004361061013b5760003560e01c80621d35671461014057806307e0db17146101625780630df374831461018257806310ddb137146101a25780633d8b38f6146101c25780633f1f4fa4146101f757806342d65a8d146102325780635b8c41e61461025257806361bc221a146102a157806366ad5c8a146102b7578063715018a6146102d75780637533d788146102ec5780638cfd8f5c146103195780638da5cb5b14610351578063950c8a74146103735780639917565c146103935780639f38369a146103a6578063a6c3d165146103c6578063b353aaa7146103e6578063baf3292d1461041a578063c44618341461043a578063cbed8b9c14610450578063d1deba1f14610470578063df2a5b3b14610483578063eb8d72b7146104a3578063f2fde38b146104c3578063f5ecbdbc146104e3575b600080fd5b34801561014c57600080fd5b5061016061015b366004611873565b610503565b005b34801561016e57600080fd5b5061016061017d366004611906565b610734565b34801561018e57600080fd5b5061016061019d366004611921565b6107bd565b3480156101ae57600080fd5b506101606101bd366004611906565b6107dc565b3480156101ce57600080fd5b506101e26101dd36600461194b565b610834565b60405190151581526020015b60405180910390f35b34801561020357600080fd5b50610224610212366004611906565b60036020526000908152604090205481565b6040519081526020016101ee565b34801561023e57600080fd5b5061016061024d36600461194b565b610900565b34801561025e57600080fd5b5061022461026d366004611a0a565b6005602090815260009384526040808520845180860184018051928152908401958401959095209452929052825290205481565b3480156102ad57600080fd5b5061022460065481565b3480156102c357600080fd5b506101606102d2366004611873565b610986565b3480156102e357600080fd5b50610160610a62565b3480156102f857600080fd5b5061030c610307366004611906565b610a76565b6040516101ee9190611afa565b34801561032557600080fd5b50610224610334366004611b0d565b600260209081526000928352604080842090915290825290205481565b34801561035d57600080fd5b50610366610b10565b6040516101ee9190611b40565b34801561037f57600080fd5b50600454610366906001600160a01b031681565b6101606103a1366004611906565b610b1f565b3480156103b257600080fd5b5061030c6103c1366004611906565b610b4f565b3480156103d257600080fd5b506101606103e136600461194b565b610c65565b3480156103f257600080fd5b506103667f000000000000000000000000000000000000000000000000000000000000000081565b34801561042657600080fd5b50610160610435366004611b6b565b610cee565b34801561044657600080fd5b5061022461271081565b34801561045c57600080fd5b5061016061046b366004611b86565b610d4c565b61016061047e366004611873565b610de1565b34801561048f57600080fd5b5061016061049e366004611bf4565b610ff7565b3480156104af57600080fd5b506101606104be36600461194b565b6110a9565b3480156104cf57600080fd5b506101606104de366004611b6b565b611103565b3480156104ef57600080fd5b5061030c6104fe366004611c30565b611179565b337f00000000000000000000000000000000000000000000000000000000000000006001600160a01b0316146105805760405162461bcd60e51b815260206004820152601e60248201527f4c7a4170703a20696e76616c696420656e64706f696e742063616c6c6572000060448201526064015b60405180910390fd5b61ffff86166000908152600160205260408120805461059e90611c7b565b80601f01602080910402602001604051908101604052809291908181526020018280546105ca90611c7b565b80156106175780601f106105ec57610100808354040283529160200191610617565b820191906000526020600020905b8154815290600101906020018083116105fa57829003601f168201915b50505050509050805186869050148015610632575060008151115b801561065a5750805160208201206040516106509088908890611cb5565b6040518091039020145b6106b55760405162461bcd60e51b815260206004820152602660248201527f4c7a4170703a20696e76616c696420736f757263652073656e64696e6720636f6044820152651b9d1c9858dd60d21b6064820152608401610577565b61072b8787878080601f01602080910402602001604051908101604052809392919081815260200183838082843760009201919091525050604080516020601f8a018190048102820181019092528881528a93509150889088908190840183828082843760009201919091525061122a92505050565b50505050505050565b61073c6112a3565b6040516307e0db1760e01b815261ffff821660048201527f00000000000000000000000000000000000000000000000000000000000000006001600160a01b0316906307e0db17906024015b600060405180830381600087803b1580156107a257600080fd5b505af11580156107b6573d6000803e3d6000fd5b5050505050565b6107c56112a3565b61ffff909116600090815260036020526040902055565b6107e46112a3565b6040516310ddb13760e01b815261ffff821660048201527f00000000000000000000000000000000000000000000000000000000000000006001600160a01b0316906310ddb13790602401610788565b61ffff83166000908152600160205260408120805482919061085590611c7b565b80601f016020809104026020016040519081016040528092919081815260200182805461088190611c7b565b80156108ce5780601f106108a3576101008083540402835291602001916108ce565b820191906000526020600020905b8154815290600101906020018083116108b157829003601f168201915b5050505050905083836040516108e5929190611cb5565b60405180910390208180519060200120149150509392505050565b6109086112a3565b6040516342d65a8d60e01b81526001600160a01b037f000000000000000000000000000000000000000000000000000000000000000016906342d65a8d9061095890869086908690600401611cee565b600060405180830381600087803b15801561097257600080fd5b505af115801561072b573d6000803e3d6000fd5b3330146109e45760405162461bcd60e51b815260206004820152602660248201527f4e6f6e626c6f636b696e674c7a4170703a2063616c6c6572206d7573742062656044820152650204c7a4170760d41b6064820152608401610577565b610a5a8686868080601f01602080910402602001604051908101604052809392919081815260200183838082843760009201919091525050604080516020601f89018190048102820181019092528781528993509150879087908190840183828082843760009201919091525061130292505050565b505050505050565b610a6a6112a3565b610a74600061135e565b565b60016020526000908152604090208054610a8f90611c7b565b80601f0160208091040260200160405190810160405280929190818152602001828054610abb90611c7b565b8015610b085780601f10610add57610100808354040283529160200191610b08565b820191906000526020600020905b815481529060010190602001808311610aeb57829003601f168201915b505050505081565b6000546001600160a01b031690565b610b4c816040518060200160405280600081525033600060405180602001604052806000815250346113ae565b50565b61ffff8116600090815260016020526040812080546060929190610b7290611c7b565b80601f0160208091040260200160405190810160405280929190818152602001828054610b9e90611c7b565b8015610beb5780601f10610bc057610100808354040283529160200191610beb565b820191906000526020600020905b815481529060010190602001808311610bce57829003601f168201915b505050505090508051600003610c435760405162461bcd60e51b815260206004820152601d60248201527f4c7a4170703a206e6f20747275737465642070617468207265636f72640000006044820152606401610577565b610c5e600060148351610c569190611d22565b839190611553565b9392505050565b610c6d6112a3565b818130604051602001610c8293929190611d3b565b60408051601f1981840301815291815261ffff8516600090815260016020522090610cad9082611db7565b507f8c0400cfe2d1199b1a725c78960bcc2a344d869b80590d0f2bd005db15a572ce838383604051610ce193929190611cee565b60405180910390a1505050565b610cf66112a3565b600480546001600160a01b0319166001600160a01b0383161790556040517f5db758e995a17ec1ad84bdef7e8c3293a0bd6179bcce400dff5d4c3d87db726b90610d41908390611b40565b60405180910390a150565b610d546112a3565b6040516332fb62e760e21b81526001600160a01b037f0000000000000000000000000000000000000000000000000000000000000000169063cbed8b9c90610da89088908890889088908890600401611e70565b600060405180830381600087803b158015610dc257600080fd5b505af1158015610dd6573d6000803e3d6000fd5b505050505050505050565b61ffff86166000908152600560205260408082209051610e049088908890611cb5565b90815260408051602092819003830190206001600160401b03871660009081529252902054905080610e845760405162461bcd60e51b815260206004820152602360248201527f4e6f6e626c6f636b696e674c7a4170703a206e6f2073746f726564206d65737360448201526261676560e81b6064820152608401610577565b808383604051610e95929190611cb5565b604051809103902014610ef45760405162461bcd60e51b815260206004820152602160248201527f4e6f6e626c6f636b696e674c7a4170703a20696e76616c6964207061796c6f616044820152601960fa1b6064820152608401610577565b61ffff87166000908152600560205260408082209051610f179089908990611cb5565b90815260408051602092819003830181206001600160401b038916600090815290845282902093909355601f88018290048202830182019052868252610faf918991899089908190840183828082843760009201919091525050604080516020601f8a018190048102820181019092528881528a93509150889088908190840183828082843760009201919091525061130292505050565b7fc264d91f3adc5588250e1551f547752ca0cfa8f6b530d243b9f9f4cab10ea8e58787878785604051610fe6959493929190611ea9565b60405180910390a150505050505050565b610fff6112a3565b600081116110475760405162461bcd60e51b81526020600482015260156024820152744c7a4170703a20696e76616c6964206d696e47617360581b6044820152606401610577565b61ffff83811660008181526002602090815260408083209487168084529482529182902085905581519283528201929092529081018290527f9d5c7c0b934da8fefa9c7760c98383778a12dfbfc0c3b3106518f43fb9508ac090606001610ce1565b6110b16112a3565b61ffff831660009081526001602052604090206110cf828483611ee4565b507ffa41487ad5d6728f0b19276fa1eddc16558578f5109fc39d2dc33c3230470dab838383604051610ce193929190611cee565b61110b6112a3565b6001600160a01b0381166111705760405162461bcd60e51b815260206004820152602660248201527f4f776e61626c653a206e6577206f776e657220697320746865207a65726f206160448201526564647265737360d01b6064820152608401610577565b610b4c8161135e565b604051633d7b2f6f60e21b815261ffff808616600483015284166024820152306044820152606481018290526060907f00000000000000000000000000000000000000000000000000000000000000006001600160a01b03169063f5ecbdbc90608401600060405180830381865afa1580156111f9573d6000803e3d6000fd5b505050506040513d6000823e601f3d908101601f191682016040526112219190810190611f9d565b95945050505050565b60008061128d5a60966366ad5c8a60e01b89898989604051602401611252949392919061200a565b60408051601f198184030181529190526020810180516001600160e01b03166001600160e01b03199093169290921790915230929190611660565b9150915081610a5a57610a5a86868686856116ea565b336112ac610b10565b6001600160a01b031614610a745760405162461bcd60e51b815260206004820181905260248201527f4f776e61626c653a2063616c6c6572206973206e6f7420746865206f776e65726044820152606401610577565b6001600660008282546113159190612048565b90915550506040517f6e80a5ae157cae329dd064eb3cfaa7da6b014becadcf1eb72c1fe09ae856fb559061135090869086908690869061200a565b60405180910390a150505050565b600080546001600160a01b038381166001600160a01b0319831681178455604051919092169283917f8be0079c531659141344cd1fd0a4f28419497f9722a3daafe3b4186f6b6457e09190a35050565b61ffff8616600090815260016020526040812080546113cc90611c7b565b80601f01602080910402602001604051908101604052809291908181526020018280546113f890611c7b565b80156114455780601f1061141a57610100808354040283529160200191611445565b820191906000526020600020905b81548152906001019060200180831161142857829003601f168201915b5050505050905080516000036114b65760405162461bcd60e51b815260206004820152603060248201527f4c7a4170703a2064657374696e6174696f6e20636861696e206973206e6f742060448201526f61207472757374656420736f7572636560801b6064820152608401610577565b6114c1878751611787565b60405162c5803160e81b81526001600160a01b037f0000000000000000000000000000000000000000000000000000000000000000169063c5803100908490611518908b9086908c908c908c908c9060040161205b565b6000604051808303818588803b15801561153157600080fd5b505af1158015611545573d6000803e3d6000fd5b505050505050505050505050565b60608161156181601f612048565b10156115a05760405162461bcd60e51b815260206004820152600e60248201526d736c6963655f6f766572666c6f7760901b6044820152606401610577565b6115aa8284612048565b845110156115ee5760405162461bcd60e51b8152602060048201526011602482015270736c6963655f6f75744f66426f756e647360781b6044820152606401610577565b60608215801561160d5760405191506000825260208201604052611657565b6040519150601f8416801560200281840101858101878315602002848b0101015b8183101561164657805183526020928301920161162e565b5050858452601f01601f1916604052505b50949350505050565b6000606060008060008661ffff166001600160401b038111156116855761168561199d565b6040519080825280601f01601f1916602001820160405280156116af576020820181803683370190505b50905060008087516020890160008d8df191503d9250868311156116d1578692505b828152826000602083013e909890975095505050505050565b8180519060200120600560008761ffff1661ffff1681526020019081526020016000208560405161171b91906120c2565b9081526040805191829003602090810183206001600160401b0388166000908152915220919091557fe183f33de2837795525b4792ca4cd60535bd77c53b7e7030060bfcf5734d6b0c9061177890879087908790879087906120de565b60405180910390a15050505050565b61ffff8216600090815260036020526040812054908190036117a857506127105b808211156117f85760405162461bcd60e51b815260206004820181905260248201527f4c7a4170703a207061796c6f61642073697a6520697320746f6f206c617267656044820152606401610577565b505050565b803561ffff8116811461180f57600080fd5b919050565b60008083601f84011261182657600080fd5b5081356001600160401b0381111561183d57600080fd5b60208301915083602082850101111561185557600080fd5b9250929050565b80356001600160401b038116811461180f57600080fd5b6000806000806000806080878903121561188c57600080fd5b611895876117fd565b955060208701356001600160401b03808211156118b157600080fd5b6118bd8a838b01611814565b90975095508591506118d160408a0161185c565b945060608901359150808211156118e757600080fd5b506118f489828a01611814565b979a9699509497509295939492505050565b60006020828403121561191857600080fd5b610c5e826117fd565b6000806040838503121561193457600080fd5b61193d836117fd565b946020939093013593505050565b60008060006040848603121561196057600080fd5b611969846117fd565b925060208401356001600160401b0381111561198457600080fd5b61199086828701611814565b9497909650939450505050565b634e487b7160e01b600052604160045260246000fd5b604051601f8201601f191681016001600160401b03811182821017156119db576119db61199d565b604052919050565b60006001600160401b038211156119fc576119fc61199d565b50601f01601f191660200190565b600080600060608486031215611a1f57600080fd5b611a28846117fd565b925060208401356001600160401b03811115611a4357600080fd5b8401601f81018613611a5457600080fd5b8035611a67611a62826119e3565b6119b3565b818152876020838501011115611a7c57600080fd5b81602084016020830137600060208383010152809450505050611aa16040850161185c565b90509250925092565b60005b83811015611ac5578181015183820152602001611aad565b50506000910152565b60008151808452611ae6816020860160208601611aaa565b601f01601f19169290920160200192915050565b602081526000610c5e6020830184611ace565b60008060408385031215611b2057600080fd5b611b29836117fd565b9150611b37602084016117fd565b90509250929050565b6001600160a01b0391909116815260200190565b80356001600160a01b038116811461180f57600080fd5b600060208284031215611b7d57600080fd5b610c5e82611b54565b600080600080600060808688031215611b9e57600080fd5b611ba7866117fd565b9450611bb5602087016117fd565b93506040860135925060608601356001600160401b03811115611bd757600080fd5b611be388828901611814565b969995985093965092949392505050565b600080600060608486031215611c0957600080fd5b611c12846117fd565b9250611c20602085016117fd565b9150604084013590509250925092565b60008060008060808587031215611c4657600080fd5b611c4f856117fd565b9350611c5d602086016117fd565b9250611c6b60408601611b54565b9396929550929360600135925050565b600181811c90821680611c8f57607f821691505b602082108103611caf57634e487b7160e01b600052602260045260246000fd5b50919050565b8183823760009101908152919050565b81835281816020850137506000828201602090810191909152601f909101601f19169091010190565b61ffff84168152604060208201526000611221604083018486611cc5565b634e487b7160e01b600052601160045260246000fd5b81810381811115611d3557611d35611d0c565b92915050565b8284823760609190911b6001600160601b0319169101908152601401919050565b601f8211156117f857600081815260208120601f850160051c81016020861015611d835750805b601f850160051c820191505b81811015610a5a57828155600101611d8f565b600019600383901b1c191660019190911b1790565b81516001600160401b03811115611dd057611dd061199d565b611de481611dde8454611c7b565b84611d5c565b602080601f831160018114611e135760008415611e015750858301515b611e0b8582611da2565b865550610a5a565b600085815260208120601f198616915b82811015611e4257888601518255948401946001909101908401611e23565b5085821015611e605787850151600019600388901b60f8161c191681555b5050505050600190811b01905550565b600061ffff808816835280871660208401525084604083015260806060830152611e9e608083018486611cc5565b979650505050505050565b61ffff86168152608060208201526000611ec7608083018688611cc5565b6001600160401b0394909416604083015250606001529392505050565b6001600160401b03831115611efb57611efb61199d565b611f0f83611f098354611c7b565b83611d5c565b6000601f841160018114611f3d5760008515611f2b5750838201355b611f358682611da2565b8455506107b6565b600083815260209020601f19861690835b82811015611f6e5786850135825560209485019460019092019101611f4e565b5086821015611f8b5760001960f88860031b161c19848701351681555b505060018560011b0183555050505050565b600060208284031215611faf57600080fd5b81516001600160401b03811115611fc557600080fd5b8201601f81018413611fd657600080fd5b8051611fe4611a62826119e3565b818152856020838501011115611ff957600080fd5b611221826020830160208601611aaa565b61ffff851681526080602082015260006120276080830186611ace565b6001600160401b03851660408401528281036060840152611e9e8185611ace565b80820180821115611d3557611d35611d0c565b61ffff8716815260c06020820152600061207860c0830188611ace565b828103604084015261208a8188611ace565b6001600160a01b0387811660608601528616608085015283810360a085015290506120b58185611ace565b9998505050505050505050565b600082516120d4818460208701611aaa565b9190910192915050565b61ffff8616815260a0602082015260006120fb60a0830187611ace565b6001600160401b0386166040840152828103606084015261211c8186611ace565b905082810360808401526121308185611ace565b9897505050505050505056fea264697066735822122069d02bb99517248373587d98c0040a248b38e45094bd178ca428bd7a03e153d064736f6c63430008110033",
  "devdoc": {
    "kind": "dev",
    "methods": {
      "owner()": {
        "details": "Returns the address of the current owner."
      },
      "renounceOwnership()": {
        "details": "Leaves the contract without owner. It will not be possible to call `onlyOwner` functions. Can only be called by the current owner. NOTE: Renouncing ownership will leave the contract without an owner, thereby disabling any functionality that is only available to the owner."
      },
      "transferOwnership(address)": {
        "details": "Transfers ownership of the contract to a new account (`newOwner`). Can only be called by the current owner."
      }
    },
    "title": "A LayerZero example sending a cross chain message from a source chain to a destination chain to increment a counter",
    "version": 1
  },
  "userdoc": {
    "kind": "user",
    "methods": {},
    "version": 1
  },
  "storageLayout": {
    "storage": [
      {
        "astId": 7,
        "contract": "contracts/VotingContracts/VotingExecutor.sol:VotingExecutor",
        "label": "_owner",
        "offset": 0,
        "slot": "0",
        "type": "t_address"
      },
      {
        "astId": 432,
        "contract": "contracts/VotingContracts/VotingExecutor.sol:VotingExecutor",
        "label": "trustedRemoteLookup",
        "offset": 0,
        "slot": "1",
        "type": "t_mapping(t_uint16,t_bytes_storage)"
      },
      {
        "astId": 438,
        "contract": "contracts/VotingContracts/VotingExecutor.sol:VotingExecutor",
        "label": "minDstGasLookup",
        "offset": 0,
        "slot": "2",
        "type": "t_mapping(t_uint16,t_mapping(t_uint16,t_uint256))"
      },
      {
        "astId": 442,
        "contract": "contracts/VotingContracts/VotingExecutor.sol:VotingExecutor",
        "label": "payloadSizeLimitLookup",
        "offset": 0,
        "slot": "3",
        "type": "t_mapping(t_uint16,t_uint256)"
      },
      {
        "astId": 444,
        "contract": "contracts/VotingContracts/VotingExecutor.sol:VotingExecutor",
        "label": "precrime",
        "offset": 0,
        "slot": "4",
        "type": "t_address"
      },
      {
        "astId": 981,
        "contract": "contracts/VotingContracts/VotingExecutor.sol:VotingExecutor",
        "label": "failedMessages",
        "offset": 0,
        "slot": "5",
        "type": "t_mapping(t_uint16,t_mapping(t_bytes_memory_ptr,t_mapping(t_uint64,t_bytes32)))"
      },
      {
        "astId": 143,
        "contract": "contracts/VotingContracts/VotingExecutor.sol:VotingExecutor",
        "label": "counter",
        "offset": 0,
        "slot": "6",
        "type": "t_uint256"
      }
    ],
    "types": {
      "t_address": {
        "encoding": "inplace",
        "label": "address",
        "numberOfBytes": "20"
      },
      "t_bytes32": {
        "encoding": "inplace",
        "label": "bytes32",
        "numberOfBytes": "32"
      },
      "t_bytes_memory_ptr": {
        "encoding": "bytes",
        "label": "bytes",
        "numberOfBytes": "32"
      },
      "t_bytes_storage": {
        "encoding": "bytes",
        "label": "bytes",
        "numberOfBytes": "32"
      },
      "t_mapping(t_bytes_memory_ptr,t_mapping(t_uint64,t_bytes32))": {
        "encoding": "mapping",
        "key": "t_bytes_memory_ptr",
        "label": "mapping(bytes => mapping(uint64 => bytes32))",
        "numberOfBytes": "32",
        "value": "t_mapping(t_uint64,t_bytes32)"
      },
      "t_mapping(t_uint16,t_bytes_storage)": {
        "encoding": "mapping",
        "key": "t_uint16",
        "label": "mapping(uint16 => bytes)",
        "numberOfBytes": "32",
        "value": "t_bytes_storage"
      },
      "t_mapping(t_uint16,t_mapping(t_bytes_memory_ptr,t_mapping(t_uint64,t_bytes32)))": {
        "encoding": "mapping",
        "key": "t_uint16",
        "label": "mapping(uint16 => mapping(bytes => mapping(uint64 => bytes32)))",
        "numberOfBytes": "32",
        "value": "t_mapping(t_bytes_memory_ptr,t_mapping(t_uint64,t_bytes32))"
      },
      "t_mapping(t_uint16,t_mapping(t_uint16,t_uint256))": {
        "encoding": "mapping",
        "key": "t_uint16",
        "label": "mapping(uint16 => mapping(uint16 => uint256))",
        "numberOfBytes": "32",
        "value": "t_mapping(t_uint16,t_uint256)"
      },
      "t_mapping(t_uint16,t_uint256)": {
        "encoding": "mapping",
        "key": "t_uint16",
        "label": "mapping(uint16 => uint256)",
        "numberOfBytes": "32",
        "value": "t_uint256"
      },
      "t_mapping(t_uint64,t_bytes32)": {
        "encoding": "mapping",
        "key": "t_uint64",
        "label": "mapping(uint64 => bytes32)",
        "numberOfBytes": "32",
        "value": "t_bytes32"
      },
      "t_uint16": {
        "encoding": "inplace",
        "label": "uint16",
        "numberOfBytes": "2"
      },
      "t_uint256": {
        "encoding": "inplace",
        "label": "uint256",
        "numberOfBytes": "32"
      },
      "t_uint64": {
        "encoding": "inplace",
        "label": "uint64",
        "numberOfBytes": "8"
      }
    }
  }
}