{
  "address": "0x0F5747438663226c80Ba01bBe0ad63DAaeB9C39d",
  "abi": [
    {
      "inputs": [
        {
          "internalType": "uint16",
          "name": "_executorChainId",
          "type": "uint16"
        },
        {
          "internalType": "address",
          "name": "_lzEndpoint",
          "type": "address"
        }
      ],
      "stateMutability": "nonpayable",
      "type": "constructor"
    },
    {
      "anonymous": false,
      "inputs": [
        {
          "indexed": false,
          "internalType": "uint16",
          "name": "_srcChainId",
          "type": "uint16"
        },
        {
          "indexed": false,
          "internalType": "bytes",
          "name": "_srcAddress",
          "type": "bytes"
        },
        {
          "indexed": false,
          "internalType": "uint64",
          "name": "_nonce",
          "type": "uint64"
        },
        {
          "indexed": false,
          "internalType": "bytes",
          "name": "_payload",
          "type": "bytes"
        },
        {
          "indexed": false,
          "internalType": "bytes",
          "name": "_reason",
          "type": "bytes"
        }
      ],
      "name": "MessageFailed",
      "type": "event"
    },
    {
      "anonymous": false,
      "inputs": [
        {
          "indexed": true,
          "internalType": "address",
          "name": "previousOwner",
          "type": "address"
        },
        {
          "indexed": true,
          "internalType": "address",
          "name": "newOwner",
          "type": "address"
        }
      ],
      "name": "OwnershipTransferred",
      "type": "event"
    },
    {
      "anonymous": false,
      "inputs": [
        {
          "indexed": false,
          "internalType": "uint16",
          "name": "_srcChainId",
          "type": "uint16"
        },
        {
          "indexed": false,
          "internalType": "bytes",
          "name": "_srcAddress",
          "type": "bytes"
        },
        {
          "indexed": false,
          "internalType": "uint64",
          "name": "_nonce",
          "type": "uint64"
        },
        {
          "indexed": false,
          "internalType": "bytes32",
          "name": "_payloadHash",
          "type": "bytes32"
        }
      ],
      "name": "RetryMessageSuccess",
      "type": "event"
    },
    {
      "anonymous": false,
      "inputs": [
        {
          "indexed": false,
          "internalType": "uint16",
          "name": "_dstChainId",
          "type": "uint16"
        },
        {
          "indexed": false,
          "internalType": "uint16",
          "name": "_type",
          "type": "uint16"
        },
        {
          "indexed": false,
          "internalType": "uint256",
          "name": "_minDstGas",
          "type": "uint256"
        }
      ],
      "name": "SetMinDstGas",
      "type": "event"
    },
    {
      "anonymous": false,
      "inputs": [
        {
          "indexed": false,
          "internalType": "address",
          "name": "precrime",
          "type": "address"
        }
      ],
      "name": "SetPrecrime",
      "type": "event"
    },
    {
      "anonymous": false,
      "inputs": [
        {
          "indexed": false,
          "internalType": "uint16",
          "name": "_remoteChainId",
          "type": "uint16"
        },
        {
          "indexed": false,
          "internalType": "bytes",
          "name": "_path",
          "type": "bytes"
        }
      ],
      "name": "SetTrustedRemote",
      "type": "event"
    },
    {
      "anonymous": false,
      "inputs": [
        {
          "indexed": false,
          "internalType": "uint16",
          "name": "_remoteChainId",
          "type": "uint16"
        },
        {
          "indexed": false,
          "internalType": "bytes",
          "name": "_remoteAddress",
          "type": "bytes"
        }
      ],
      "name": "SetTrustedRemoteAddress",
      "type": "event"
    },
    {
      "anonymous": false,
      "inputs": [
        {
          "indexed": true,
          "internalType": "uint256",
          "name": "proposalId",
          "type": "uint256"
        },
        {
          "indexed": true,
          "internalType": "uint8",
          "name": "optionId",
          "type": "uint8"
        },
        {
          "indexed": true,
          "internalType": "address",
          "name": "voter",
          "type": "address"
        },
        {
          "indexed": false,
          "internalType": "bool",
          "name": "vote",
          "type": "bool"
        }
      ],
      "name": "VoteSent",
      "type": "event"
    },
    {
      "inputs": [],
      "name": "DEFAULT_PAYLOAD_SIZE_LIMIT",
      "outputs": [
        {
          "internalType": "uint256",
          "name": "",
          "type": "uint256"
        }
      ],
      "stateMutability": "view",
      "type": "function"
    },
    {
      "inputs": [
        {
          "internalType": "uint16",
          "name": "",
          "type": "uint16"
        },
        {
          "internalType": "bytes",
          "name": "",
          "type": "bytes"
        },
        {
          "internalType": "uint64",
          "name": "",
          "type": "uint64"
        }
      ],
      "name": "failedMessages",
      "outputs": [
        {
          "internalType": "bytes32",
          "name": "",
          "type": "bytes32"
        }
      ],
      "stateMutability": "view",
      "type": "function"
    },
    {
      "inputs": [
        {
          "internalType": "uint16",
          "name": "_srcChainId",
          "type": "uint16"
        },
        {
          "internalType": "bytes",
          "name": "_srcAddress",
          "type": "bytes"
        }
      ],
      "name": "forceResumeReceive",
      "outputs": [],
      "stateMutability": "nonpayable",
      "type": "function"
    },
    {
      "inputs": [
        {
          "internalType": "uint16",
          "name": "_version",
          "type": "uint16"
        },
        {
          "internalType": "uint16",
          "name": "_chainId",
          "type": "uint16"
        },
        {
          "internalType": "address",
          "name": "",
          "type": "address"
        },
        {
          "internalType": "uint256",
          "name": "_configType",
          "type": "uint256"
        }
      ],
      "name": "getConfig",
      "outputs": [
        {
          "internalType": "bytes",
          "name": "",
          "type": "bytes"
        }
      ],
      "stateMutability": "view",
      "type": "function"
    },
    {
      "inputs": [
        {
          "internalType": "uint16",
          "name": "_remoteChainId",
          "type": "uint16"
        }
      ],
      "name": "getTrustedRemoteAddress",
      "outputs": [
        {
          "internalType": "bytes",
          "name": "",
          "type": "bytes"
        }
      ],
      "stateMutability": "view",
      "type": "function"
    },
    {
      "inputs": [
        {
          "internalType": "uint16",
          "name": "_srcChainId",
          "type": "uint16"
        },
        {
          "internalType": "bytes",
          "name": "_srcAddress",
          "type": "bytes"
        }
      ],
      "name": "isTrustedRemote",
      "outputs": [
        {
          "internalType": "bool",
          "name": "",
          "type": "bool"
        }
      ],
      "stateMutability": "view",
      "type": "function"
    },
    {
      "inputs": [],
      "name": "lzEndpoint",
      "outputs": [
        {
          "internalType": "contract ILayerZeroEndpoint",
          "name": "",
          "type": "address"
        }
      ],
      "stateMutability": "view",
      "type": "function"
    },
    {
      "inputs": [
        {
          "internalType": "uint16",
          "name": "_srcChainId",
          "type": "uint16"
        },
        {
          "internalType": "bytes",
          "name": "_srcAddress",
          "type": "bytes"
        },
        {
          "internalType": "uint64",
          "name": "_nonce",
          "type": "uint64"
        },
        {
          "internalType": "bytes",
          "name": "_payload",
          "type": "bytes"
        }
      ],
      "name": "lzReceive",
      "outputs": [],
      "stateMutability": "nonpayable",
      "type": "function"
    },
    {
      "inputs": [
        {
          "internalType": "uint16",
          "name": "",
          "type": "uint16"
        },
        {
          "internalType": "uint16",
          "name": "",
          "type": "uint16"
        }
      ],
      "name": "minDstGasLookup",
      "outputs": [
        {
          "internalType": "uint256",
          "name": "",
          "type": "uint256"
        }
      ],
      "stateMutability": "view",
      "type": "function"
    },
    {
      "inputs": [
        {
          "internalType": "uint16",
          "name": "_srcChainId",
          "type": "uint16"
        },
        {
          "internalType": "bytes",
          "name": "_srcAddress",
          "type": "bytes"
        },
        {
          "internalType": "uint64",
          "name": "_nonce",
          "type": "uint64"
        },
        {
          "internalType": "bytes",
          "name": "_payload",
          "type": "bytes"
        }
      ],
      "name": "nonblockingLzReceive",
      "outputs": [],
      "stateMutability": "nonpayable",
      "type": "function"
    },
    {
      "inputs": [],
      "name": "owner",
      "outputs": [
        {
          "internalType": "address",
          "name": "",
          "type": "address"
        }
      ],
      "stateMutability": "view",
      "type": "function"
    },
    {
      "inputs": [
        {
          "internalType": "uint16",
          "name": "",
          "type": "uint16"
        }
      ],
      "name": "payloadSizeLimitLookup",
      "outputs": [
        {
          "internalType": "uint256",
          "name": "",
          "type": "uint256"
        }
      ],
      "stateMutability": "view",
      "type": "function"
    },
    {
      "inputs": [],
      "name": "precrime",
      "outputs": [
        {
          "internalType": "address",
          "name": "",
          "type": "address"
        }
      ],
      "stateMutability": "view",
      "type": "function"
    },
    {
      "inputs": [],
      "name": "renounceOwnership",
      "outputs": [],
      "stateMutability": "nonpayable",
      "type": "function"
    },
    {
      "inputs": [
        {
          "internalType": "uint16",
          "name": "_srcChainId",
          "type": "uint16"
        },
        {
          "internalType": "bytes",
          "name": "_srcAddress",
          "type": "bytes"
        },
        {
          "internalType": "uint64",
          "name": "_nonce",
          "type": "uint64"
        },
        {
          "internalType": "bytes",
          "name": "_payload",
          "type": "bytes"
        }
      ],
      "name": "retryMessage",
      "outputs": [],
      "stateMutability": "payable",
      "type": "function"
    },
    {
      "inputs": [
        {
          "internalType": "uint256",
          "name": "proposalId",
          "type": "uint256"
        },
        {
          "internalType": "uint8",
          "name": "optionId",
          "type": "uint8"
        },
        {
          "internalType": "bool",
          "name": "vote",
          "type": "bool"
        },
        {
          "internalType": "bytes32[]",
          "name": "proof",
          "type": "bytes32[]"
        }
      ],
      "name": "sendVote",
      "outputs": [],
      "stateMutability": "payable",
      "type": "function"
    },
    {
      "inputs": [
        {
          "internalType": "uint16",
          "name": "_version",
          "type": "uint16"
        },
        {
          "internalType": "uint16",
          "name": "_chainId",
          "type": "uint16"
        },
        {
          "internalType": "uint256",
          "name": "_configType",
          "type": "uint256"
        },
        {
          "internalType": "bytes",
          "name": "_config",
          "type": "bytes"
        }
      ],
      "name": "setConfig",
      "outputs": [],
      "stateMutability": "nonpayable",
      "type": "function"
    },
    {
      "inputs": [
        {
          "internalType": "uint16",
          "name": "_dstChainId",
          "type": "uint16"
        },
        {
          "internalType": "uint16",
          "name": "_packetType",
          "type": "uint16"
        },
        {
          "internalType": "uint256",
          "name": "_minGas",
          "type": "uint256"
        }
      ],
      "name": "setMinDstGas",
      "outputs": [],
      "stateMutability": "nonpayable",
      "type": "function"
    },
    {
      "inputs": [
        {
          "internalType": "uint16",
          "name": "_dstChainId",
          "type": "uint16"
        },
        {
          "internalType": "uint256",
          "name": "_size",
          "type": "uint256"
        }
      ],
      "name": "setPayloadSizeLimit",
      "outputs": [],
      "stateMutability": "nonpayable",
      "type": "function"
    },
    {
      "inputs": [
        {
          "internalType": "address",
          "name": "_precrime",
          "type": "address"
        }
      ],
      "name": "setPrecrime",
      "outputs": [],
      "stateMutability": "nonpayable",
      "type": "function"
    },
    {
      "inputs": [
        {
          "internalType": "uint16",
          "name": "_version",
          "type": "uint16"
        }
      ],
      "name": "setReceiveVersion",
      "outputs": [],
      "stateMutability": "nonpayable",
      "type": "function"
    },
    {
      "inputs": [
        {
          "internalType": "uint16",
          "name": "_version",
          "type": "uint16"
        }
      ],
      "name": "setSendVersion",
      "outputs": [],
      "stateMutability": "nonpayable",
      "type": "function"
    },
    {
      "inputs": [
        {
          "internalType": "uint16",
          "name": "_remoteChainId",
          "type": "uint16"
        },
        {
          "internalType": "bytes",
          "name": "_path",
          "type": "bytes"
        }
      ],
      "name": "setTrustedRemote",
      "outputs": [],
      "stateMutability": "nonpayable",
      "type": "function"
    },
    {
      "inputs": [
        {
          "internalType": "uint16",
          "name": "_remoteChainId",
          "type": "uint16"
        },
        {
          "internalType": "bytes",
          "name": "_remoteAddress",
          "type": "bytes"
        }
      ],
      "name": "setTrustedRemoteAddress",
      "outputs": [],
      "stateMutability": "nonpayable",
      "type": "function"
    },
    {
      "inputs": [
        {
          "internalType": "address",
          "name": "newOwner",
          "type": "address"
        }
      ],
      "name": "transferOwnership",
      "outputs": [],
      "stateMutability": "nonpayable",
      "type": "function"
    },
    {
      "inputs": [
        {
          "internalType": "uint16",
          "name": "",
          "type": "uint16"
        }
      ],
      "name": "trustedRemoteLookup",
      "outputs": [
        {
          "internalType": "bytes",
          "name": "",
          "type": "bytes"
        }
      ],
      "stateMutability": "view",
      "type": "function"
    }
  ],
  "transactionHash": "0xf9204a8aca1463bf9be09a392d768d8bc51b3dbbe4a6250340979a907321fdb8",
  "args": [
    10112,
    "0x6Fcb97553D41516Cb228ac03FdC8B9a0a9df04A1"
  ],
  "numDeployments": 1,
  "solcInputHash": "e8b504a5d876124bfd254097946a8c9c",
  "bytecode": "0x60a06040523480156200001157600080fd5b5060405162002a9838038062002a988339810160408190526200003491620000c6565b808062000041336200006b565b6001600160a01b031660805250506000805461ffff191661ffff9290921691909117905562000116565b600080546001600160a01b038381166201000081810262010000600160b01b0319851617855560405193049190911692909183917f8be0079c531659141344cd1fd0a4f28419497f9722a3daafe3b4186f6b6457e091a35050565b60008060408385031215620000da57600080fd5b825161ffff81168114620000ed57600080fd5b60208401519092506001600160a01b03811681146200010b57600080fd5b809150509250929050565b608051612935620001636000396000818161048401528181610592015281816108520152818161092001528181610b3f01528181610ffe01528181611525015261189301526129356000f3fe6080604052600436106101a05760003560e01c80638da5cb5b116100e1578063c44618341161008a578063df2a5b3b11610064578063df2a5b3b1461050f578063eb8d72b71461052f578063f2fde38b1461054f578063f5ecbdbc1461056f57600080fd5b8063c4461834146104c6578063cbed8b9c146104dc578063d1deba1f146104fc57600080fd5b8063a6c3d165116100bb578063a6c3d16514610452578063b353aaa714610472578063baf3292d146104a657600080fd5b80638da5cb5b146103b3578063950c8a74146104055780639f38369a1461043257600080fd5b80633f1f4fa41161014e57806366ad5c8a1161012857806366ad5c8a14610319578063715018a6146103395780637533d7881461034e5780638cfd8f5c1461037b57600080fd5b80633f1f4fa41461026f57806342d65a8d146102aa5780635b8c41e6146102ca57600080fd5b806310ddb1371161017f57806310ddb137146102075780631bf96a2d146102275780633d8b38f61461023a57600080fd5b80621d3567146101a557806307e0db17146101c75780630df37483146101e7575b600080fd5b3480156101b157600080fd5b506101c56101c0366004611d3e565b61058f565b005b3480156101d357600080fd5b506101c56101e2366004611dd2565b610818565b3480156101f357600080fd5b506101c5610202366004611ded565b6108c7565b34801561021357600080fd5b506101c5610222366004611dd2565b6108e6565b6101c5610235366004611e95565b610964565b34801561024657600080fd5b5061025a610255366004611f75565b610a2e565b60405190151581526020015b60405180910390f35b34801561027b57600080fd5b5061029c61028a366004611dd2565b60036020526000908152604090205481565b604051908152602001610266565b3480156102b657600080fd5b506101c56102c5366004611f75565b610afa565b3480156102d657600080fd5b5061029c6102e536600461200e565b6005602090815260009384526040808520845180860184018051928152908401958401959095209452929052825290205481565b34801561032557600080fd5b506101c5610334366004611d3e565b610ba6565b34801561034557600080fd5b506101c5610cb3565b34801561035a57600080fd5b5061036e610369366004611dd2565b610cc7565b604051610266919061211d565b34801561038757600080fd5b5061029c610396366004612130565b600260209081526000928352604080842090915290825290205481565b3480156103bf57600080fd5b5060005462010000900473ffffffffffffffffffffffffffffffffffffffff165b60405173ffffffffffffffffffffffffffffffffffffffff9091168152602001610266565b34801561041157600080fd5b506004546103e09073ffffffffffffffffffffffffffffffffffffffff1681565b34801561043e57600080fd5b5061036e61044d366004611dd2565b610d61565b34801561045e57600080fd5b506101c561046d366004611f75565b610e91565b34801561047e57600080fd5b506103e07f000000000000000000000000000000000000000000000000000000000000000081565b3480156104b257600080fd5b506101c56104c1366004612187565b610f38565b3480156104d257600080fd5b5061029c61271081565b3480156104e857600080fd5b506101c56104f73660046121a2565b610fb9565b6101c561050a366004611d3e565b611074565b34801561051b57600080fd5b506101c561052a366004612211565b6112f6565b34801561053b57600080fd5b506101c561054a366004611f75565b6113ca565b34801561055b57600080fd5b506101c561056a366004612187565b611424565b34801561057b57600080fd5b5061036e61058a36600461224d565b6114db565b337f000000000000000000000000000000000000000000000000000000000000000073ffffffffffffffffffffffffffffffffffffffff1614610633576040517f08c379a000000000000000000000000000000000000000000000000000000000815260206004820152601e60248201527f4c7a4170703a20696e76616c696420656e64706f696e742063616c6c6572000060448201526064015b60405180910390fd5b61ffff86166000908152600160205260408120805461065190612298565b80601f016020809104026020016040519081016040528092919081815260200182805461067d90612298565b80156106ca5780601f1061069f576101008083540402835291602001916106ca565b820191906000526020600020905b8154815290600101906020018083116106ad57829003601f168201915b505050505090508051868690501480156106e5575060008151115b801561070d57508051602082012060405161070390889088906122eb565b6040518091039020145b610799576040517f08c379a000000000000000000000000000000000000000000000000000000000815260206004820152602660248201527f4c7a4170703a20696e76616c696420736f757263652073656e64696e6720636f60448201527f6e74726163740000000000000000000000000000000000000000000000000000606482015260840161062a565b61080f8787878080601f01602080910402602001604051908101604052809392919081815260200183838082843760009201919091525050604080516020601f8a018190048102820181019092528881528a9350915088908890819084018382808284376000920191909152506115d092505050565b50505050505050565b610820611694565b6040517f07e0db1700000000000000000000000000000000000000000000000000000000815261ffff821660048201527f000000000000000000000000000000000000000000000000000000000000000073ffffffffffffffffffffffffffffffffffffffff16906307e0db17906024015b600060405180830381600087803b1580156108ac57600080fd5b505af11580156108c0573d6000803e3d6000fd5b5050505050565b6108cf611694565b61ffff909116600090815260036020526040902055565b6108ee611694565b6040517f10ddb13700000000000000000000000000000000000000000000000000000000815261ffff821660048201527f000000000000000000000000000000000000000000000000000000000000000073ffffffffffffffffffffffffffffffffffffffff16906310ddb13790602401610892565b6000338585858560405160200161097f9594939291906122fb565b604080517fffffffffffffffffffffffffffffffffffffffffffffffffffffffffffffffe081840301815260008054602085019093528084529093506109d09261ffff90921691849133913461171c565b3373ffffffffffffffffffffffffffffffffffffffff168460ff16867f7395e4bbd68b881bb53b0247d74e841ec3818d61d2406f96c835d9386008fb2b86604051610a1f911515815260200190565b60405180910390a45050505050565b61ffff831660009081526001602052604081208054829190610a4f90612298565b80601f0160208091040260200160405190810160405280929190818152602001828054610a7b90612298565b8015610ac85780601f10610a9d57610100808354040283529160200191610ac8565b820191906000526020600020905b815481529060010190602001808311610aab57829003601f168201915b505050505090508383604051610adf9291906122eb565b60405180910390208180519060200120149150509392505050565b610b02611694565b6040517f42d65a8d00000000000000000000000000000000000000000000000000000000815273ffffffffffffffffffffffffffffffffffffffff7f000000000000000000000000000000000000000000000000000000000000000016906342d65a8d90610b78908690869086906004016123c2565b600060405180830381600087803b158015610b9257600080fd5b505af115801561080f573d6000803e3d6000fd5b333014610c35576040517f08c379a000000000000000000000000000000000000000000000000000000000815260206004820152602660248201527f4e6f6e626c6f636b696e674c7a4170703a2063616c6c6572206d75737420626560448201527f204c7a4170700000000000000000000000000000000000000000000000000000606482015260840161062a565b610cab8686868080601f01602080910402602001604051908101604052809392919081815260200183838082843760009201919091525050604080516020601f89018190048102820181019092528781528993509150879087908190840183828082843760009201919091525061190f92505050565b505050505050565b610cbb611694565b610cc56000611915565b565b60016020526000908152604090208054610ce090612298565b80601f0160208091040260200160405190810160405280929190818152602001828054610d0c90612298565b8015610d595780601f10610d2e57610100808354040283529160200191610d59565b820191906000526020600020905b815481529060010190602001808311610d3c57829003601f168201915b505050505081565b61ffff8116600090815260016020526040812080546060929190610d8490612298565b80601f0160208091040260200160405190810160405280929190818152602001828054610db090612298565b8015610dfd5780601f10610dd257610100808354040283529160200191610dfd565b820191906000526020600020905b815481529060010190602001808311610de057829003601f168201915b505050505090508051600003610e6f576040517f08c379a000000000000000000000000000000000000000000000000000000000815260206004820152601d60248201527f4c7a4170703a206e6f20747275737465642070617468207265636f7264000000604482015260640161062a565b610e8a600060148351610e82919061240f565b839190611993565b9392505050565b610e99611694565b818130604051602001610eae93929190612428565b604080517fffffffffffffffffffffffffffffffffffffffffffffffffffffffffffffffe081840301815291815261ffff8516600090815260016020522090610ef790826124a7565b507f8c0400cfe2d1199b1a725c78960bcc2a344d869b80590d0f2bd005db15a572ce838383604051610f2b939291906123c2565b60405180910390a1505050565b610f40611694565b600480547fffffffffffffffffffffffff00000000000000000000000000000000000000001673ffffffffffffffffffffffffffffffffffffffff83169081179091556040519081527f5db758e995a17ec1ad84bdef7e8c3293a0bd6179bcce400dff5d4c3d87db726b9060200160405180910390a150565b610fc1611694565b6040517fcbed8b9c00000000000000000000000000000000000000000000000000000000815273ffffffffffffffffffffffffffffffffffffffff7f0000000000000000000000000000000000000000000000000000000000000000169063cbed8b9c9061103b90889088908890889088906004016125c1565b600060405180830381600087803b15801561105557600080fd5b505af1158015611069573d6000803e3d6000fd5b505050505050505050565b61ffff8616600090815260056020526040808220905161109790889088906122eb565b908152604080516020928190038301902067ffffffffffffffff87166000908152925290205490508061114c576040517f08c379a000000000000000000000000000000000000000000000000000000000815260206004820152602360248201527f4e6f6e626c6f636b696e674c7a4170703a206e6f2073746f726564206d65737360448201527f6167650000000000000000000000000000000000000000000000000000000000606482015260840161062a565b80838360405161115d9291906122eb565b6040518091039020146111f2576040517f08c379a000000000000000000000000000000000000000000000000000000000815260206004820152602160248201527f4e6f6e626c6f636b696e674c7a4170703a20696e76616c6964207061796c6f6160448201527f6400000000000000000000000000000000000000000000000000000000000000606482015260840161062a565b61ffff8716600090815260056020526040808220905161121590899089906122eb565b908152604080516020928190038301812067ffffffffffffffff8916600090815290845282902093909355601f880182900482028301820190528682526112ae918991899089908190840183828082843760009201919091525050604080516020601f8a018190048102820181019092528881528a93509150889088908190840183828082843760009201919091525061190f92505050565b7fc264d91f3adc5588250e1551f547752ca0cfa8f6b530d243b9f9f4cab10ea8e587878787856040516112e59594939291906125fa565b60405180910390a150505050505050565b6112fe611694565b60008111611368576040517f08c379a000000000000000000000000000000000000000000000000000000000815260206004820152601560248201527f4c7a4170703a20696e76616c6964206d696e4761730000000000000000000000604482015260640161062a565b61ffff83811660008181526002602090815260408083209487168084529482529182902085905581519283528201929092529081018290527f9d5c7c0b934da8fefa9c7760c98383778a12dfbfc0c3b3106518f43fb9508ac090606001610f2b565b6113d2611694565b61ffff831660009081526001602052604090206113f0828483612636565b507ffa41487ad5d6728f0b19276fa1eddc16558578f5109fc39d2dc33c3230470dab838383604051610f2b939291906123c2565b61142c611694565b73ffffffffffffffffffffffffffffffffffffffff81166114cf576040517f08c379a000000000000000000000000000000000000000000000000000000000815260206004820152602660248201527f4f776e61626c653a206e6577206f776e657220697320746865207a65726f206160448201527f6464726573730000000000000000000000000000000000000000000000000000606482015260840161062a565b6114d881611915565b50565b6040517ff5ecbdbc00000000000000000000000000000000000000000000000000000000815261ffff808616600483015284166024820152306044820152606481018290526060907f000000000000000000000000000000000000000000000000000000000000000073ffffffffffffffffffffffffffffffffffffffff169063f5ecbdbc90608401600060405180830381865afa158015611581573d6000803e3d6000fd5b505050506040513d6000823e601f3d9081017fffffffffffffffffffffffffffffffffffffffffffffffffffffffffffffffe01682016040526115c79190810190612750565b95945050505050565b60008061167e5a60966366ad5c8a60e01b898989896040516024016115f894939291906127be565b604080517fffffffffffffffffffffffffffffffffffffffffffffffffffffffffffffffe08184030181529190526020810180517bffffffffffffffffffffffffffffffffffffffffffffffffffffffff167fffffffff000000000000000000000000000000000000000000000000000000009093169290921790915230929190611b0d565b9150915081610cab57610cab8686868685611b98565b60005473ffffffffffffffffffffffffffffffffffffffff62010000909104163314610cc5576040517f08c379a000000000000000000000000000000000000000000000000000000000815260206004820181905260248201527f4f776e61626c653a2063616c6c6572206973206e6f7420746865206f776e6572604482015260640161062a565b61ffff86166000908152600160205260408120805461173a90612298565b80601f016020809104026020016040519081016040528092919081815260200182805461176690612298565b80156117b35780601f10611788576101008083540402835291602001916117b3565b820191906000526020600020905b81548152906001019060200180831161179657829003601f168201915b50505050509050805160000361184b576040517f08c379a000000000000000000000000000000000000000000000000000000000815260206004820152603060248201527f4c7a4170703a2064657374696e6174696f6e20636861696e206973206e6f742060448201527f61207472757374656420736f7572636500000000000000000000000000000000606482015260840161062a565b611856878751611c36565b6040517fc580310000000000000000000000000000000000000000000000000000000000815273ffffffffffffffffffffffffffffffffffffffff7f0000000000000000000000000000000000000000000000000000000000000000169063c58031009084906118d4908b9086908c908c908c908c906004016127fd565b6000604051808303818588803b1580156118ed57600080fd5b505af1158015611901573d6000803e3d6000fd5b505050505050505050505050565b50505050565b6000805473ffffffffffffffffffffffffffffffffffffffff838116620100008181027fffffffffffffffffffff0000000000000000000000000000000000000000ffff851617855560405193049190911692909183917f8be0079c531659141344cd1fd0a4f28419497f9722a3daafe3b4186f6b6457e091a35050565b6060816119a181601f612871565b1015611a09576040517f08c379a000000000000000000000000000000000000000000000000000000000815260206004820152600e60248201527f736c6963655f6f766572666c6f77000000000000000000000000000000000000604482015260640161062a565b611a138284612871565b84511015611a7d576040517f08c379a000000000000000000000000000000000000000000000000000000000815260206004820152601160248201527f736c6963655f6f75744f66426f756e6473000000000000000000000000000000604482015260640161062a565b606082158015611a9c5760405191506000825260208201604052611b04565b6040519150601f8416801560200281840101858101878315602002848b0101015b81831015611ad5578051835260209283019201611abd565b5050858452601f017fffffffffffffffffffffffffffffffffffffffffffffffffffffffffffffffe016604052505b50949350505050565b6000606060008060008661ffff1667ffffffffffffffff811115611b3357611b33611e17565b6040519080825280601f01601f191660200182016040528015611b5d576020820181803683370190505b50905060008087516020890160008d8df191503d925086831115611b7f578692505b828152826000602083013e909890975095505050505050565b8180519060200120600560008761ffff1661ffff16815260200190815260200160002085604051611bc99190612884565b90815260408051918290036020908101832067ffffffffffffffff88166000908152915220919091557fe183f33de2837795525b4792ca4cd60535bd77c53b7e7030060bfcf5734d6b0c90611c2790879087908790879087906128a0565b60405180910390a15050505050565b61ffff821660009081526003602052604081205490819003611c5757506127105b80821115611cc1576040517f08c379a000000000000000000000000000000000000000000000000000000000815260206004820181905260248201527f4c7a4170703a207061796c6f61642073697a6520697320746f6f206c61726765604482015260640161062a565b505050565b803561ffff81168114611cd857600080fd5b919050565b60008083601f840112611cef57600080fd5b50813567ffffffffffffffff811115611d0757600080fd5b602083019150836020828501011115611d1f57600080fd5b9250929050565b803567ffffffffffffffff81168114611cd857600080fd5b60008060008060008060808789031215611d5757600080fd5b611d6087611cc6565b9550602087013567ffffffffffffffff80821115611d7d57600080fd5b611d898a838b01611cdd565b9097509550859150611d9d60408a01611d26565b94506060890135915080821115611db357600080fd5b50611dc089828a01611cdd565b979a9699509497509295939492505050565b600060208284031215611de457600080fd5b610e8a82611cc6565b60008060408385031215611e0057600080fd5b611e0983611cc6565b946020939093013593505050565b7f4e487b7100000000000000000000000000000000000000000000000000000000600052604160045260246000fd5b604051601f82017fffffffffffffffffffffffffffffffffffffffffffffffffffffffffffffffe016810167ffffffffffffffff81118282101715611e8d57611e8d611e17565b604052919050565b60008060008060808587031215611eab57600080fd5b8435935060208086013560ff81168114611ec457600080fd5b935060408601358015158114611ed957600080fd5b9250606086013567ffffffffffffffff80821115611ef657600080fd5b818801915088601f830112611f0a57600080fd5b813581811115611f1c57611f1c611e17565b8060051b9150611f2d848301611e46565b818152918301840191848101908b841115611f4757600080fd5b938501935b83851015611f6557843582529385019390850190611f4c565b989b979a50959850505050505050565b600080600060408486031215611f8a57600080fd5b611f9384611cc6565b9250602084013567ffffffffffffffff811115611faf57600080fd5b611fbb86828701611cdd565b9497909650939450505050565b600067ffffffffffffffff821115611fe257611fe2611e17565b50601f017fffffffffffffffffffffffffffffffffffffffffffffffffffffffffffffffe01660200190565b60008060006060848603121561202357600080fd5b61202c84611cc6565b9250602084013567ffffffffffffffff81111561204857600080fd5b8401601f8101861361205957600080fd5b803561206c61206782611fc8565b611e46565b81815287602083850101111561208157600080fd5b816020840160208301376000602083830101528094505050506120a660408501611d26565b90509250925092565b60005b838110156120ca5781810151838201526020016120b2565b50506000910152565b600081518084526120eb8160208601602086016120af565b601f017fffffffffffffffffffffffffffffffffffffffffffffffffffffffffffffffe0169290920160200192915050565b602081526000610e8a60208301846120d3565b6000806040838503121561214357600080fd5b61214c83611cc6565b915061215a60208401611cc6565b90509250929050565b803573ffffffffffffffffffffffffffffffffffffffff81168114611cd857600080fd5b60006020828403121561219957600080fd5b610e8a82612163565b6000806000806000608086880312156121ba57600080fd5b6121c386611cc6565b94506121d160208701611cc6565b935060408601359250606086013567ffffffffffffffff8111156121f457600080fd5b61220088828901611cdd565b969995985093965092949392505050565b60008060006060848603121561222657600080fd5b61222f84611cc6565b925061223d60208501611cc6565b9150604084013590509250925092565b6000806000806080858703121561226357600080fd5b61226c85611cc6565b935061227a60208601611cc6565b925061228860408601612163565b9396929550929360600135925050565b600181811c908216806122ac57607f821691505b6020821081036122e5577f4e487b7100000000000000000000000000000000000000000000000000000000600052602260045260246000fd5b50919050565b8183823760009101908152919050565b600060a0820173ffffffffffffffffffffffffffffffffffffffff881683526020878185015260ff87166040850152851515606085015260a0608085015281855180845260c086019150828701935060005b818110156123695784518352938301939183019160010161234d565b50909a9950505050505050505050565b8183528181602085013750600060208284010152600060207fffffffffffffffffffffffffffffffffffffffffffffffffffffffffffffffe0601f840116840101905092915050565b61ffff841681526040602082015260006115c7604083018486612379565b7f4e487b7100000000000000000000000000000000000000000000000000000000600052601160045260246000fd5b81810381811115612422576124226123e0565b92915050565b8284823760609190911b7fffffffffffffffffffffffffffffffffffffffff000000000000000000000000169101908152601401919050565b601f821115611cc157600081815260208120601f850160051c810160208610156124885750805b601f850160051c820191505b81811015610cab57828155600101612494565b815167ffffffffffffffff8111156124c1576124c1611e17565b6124d5816124cf8454612298565b84612461565b602080601f83116001811461252857600084156124f25750858301515b7fffffffffffffffffffffffffffffffffffffffffffffffffffffffffffffffff600386901b1c1916600185901b178555610cab565b6000858152602081207fffffffffffffffffffffffffffffffffffffffffffffffffffffffffffffffe08616915b8281101561257557888601518255948401946001909101908401612556565b50858210156125b157878501517fffffffffffffffffffffffffffffffffffffffffffffffffffffffffffffffff600388901b60f8161c191681555b5050505050600190811b01905550565b600061ffff8088168352808716602084015250846040830152608060608301526125ef608083018486612379565b979650505050505050565b61ffff86168152608060208201526000612618608083018688612379565b67ffffffffffffffff94909416604083015250606001529392505050565b67ffffffffffffffff83111561264e5761264e611e17565b6126628361265c8354612298565b83612461565b6000601f8411600181146126b4576000851561267e5750838201355b7fffffffffffffffffffffffffffffffffffffffffffffffffffffffffffffffff600387901b1c1916600186901b1783556108c0565b6000838152602090207fffffffffffffffffffffffffffffffffffffffffffffffffffffffffffffffe0861690835b8281101561270357868501358255602094850194600190920191016126e3565b508682101561273e577fffffffffffffffffffffffffffffffffffffffffffffffffffffffffffffffff60f88860031b161c19848701351681555b505060018560011b0183555050505050565b60006020828403121561276257600080fd5b815167ffffffffffffffff81111561277957600080fd5b8201601f8101841361278a57600080fd5b805161279861206782611fc8565b8181528560208385010111156127ad57600080fd5b6115c78260208301602086016120af565b61ffff851681526080602082015260006127db60808301866120d3565b67ffffffffffffffff8516604084015282810360608401526125ef81856120d3565b61ffff8716815260c06020820152600061281a60c08301886120d3565b828103604084015261282c81886120d3565b73ffffffffffffffffffffffffffffffffffffffff87811660608601528616608085015283810360a0850152905061286481856120d3565b9998505050505050505050565b80820180821115612422576124226123e0565b600082516128968184602087016120af565b9190910192915050565b61ffff8616815260a0602082015260006128bd60a08301876120d3565b67ffffffffffffffff8616604084015282810360608401526128df81866120d3565b905082810360808401526128f381856120d3565b9897505050505050505056fea264697066735822122073a3365eb9e263b9a8b363b2ebad0c6b6562c32d0cff97a21416939b9595678764736f6c63430008110033",
  "devdoc": {
    "author": "Bloxauce",
    "kind": "dev",
    "methods": {
      "owner()": {
        "details": "Returns the address of the current owner."
      },
      "renounceOwnership()": {
        "details": "Leaves the contract without owner. It will not be possible to call `onlyOwner` functions. Can only be called by the current owner. NOTE: Renouncing ownership will leave the contract without an owner, thereby disabling any functionality that is only available to the owner."
      },
      "sendVote(uint256,uint8,bool,bytes32[])": {
        "params": {
          "optionId": "Id of the option",
          "proof": "For merkle tree if applicable",
          "proposalId": "Id of the proposal to vote for",
          "vote": "True = positive, false = negative"
        }
      },
      "transferOwnership(address)": {
        "details": "Transfers ownership of the contract to a new account (`newOwner`). Can only be called by the current owner."
      }
    },
    "title": "Voting Sender",
    "version": 1
  },
  "userdoc": {
    "events": {
      "VoteSent(uint256,uint8,address,bool)": {
        "notice": "Event emitted when a vote is sent"
      }
    },
    "kind": "user",
    "methods": {
      "sendVote(uint256,uint8,bool,bytes32[])": {
        "notice": "Sends a vote to executor"
      }
    },
    "notice": "Sends a crosschain message to Voting Executor",
    "version": 1
  },
  "storageLayout": {
    "storage": [
      {
        "astId": 2884,
        "contract": "contracts/Voting/Sender/VotingSender.sol:VotingSender",
        "label": "executorChainId",
        "offset": 0,
        "slot": "0",
        "type": "t_uint16"
      },
      {
        "astId": 7,
        "contract": "contracts/Voting/Sender/VotingSender.sol:VotingSender",
        "label": "_owner",
        "offset": 2,
        "slot": "0",
        "type": "t_address"
      },
      {
        "astId": 3101,
        "contract": "contracts/Voting/Sender/VotingSender.sol:VotingSender",
        "label": "trustedRemoteLookup",
        "offset": 0,
        "slot": "1",
        "type": "t_mapping(t_uint16,t_bytes_storage)"
      },
      {
        "astId": 3107,
        "contract": "contracts/Voting/Sender/VotingSender.sol:VotingSender",
        "label": "minDstGasLookup",
        "offset": 0,
        "slot": "2",
        "type": "t_mapping(t_uint16,t_mapping(t_uint16,t_uint256))"
      },
      {
        "astId": 3111,
        "contract": "contracts/Voting/Sender/VotingSender.sol:VotingSender",
        "label": "payloadSizeLimitLookup",
        "offset": 0,
        "slot": "3",
        "type": "t_mapping(t_uint16,t_uint256)"
      },
      {
        "astId": 3113,
        "contract": "contracts/Voting/Sender/VotingSender.sol:VotingSender",
        "label": "precrime",
        "offset": 0,
        "slot": "4",
        "type": "t_address"
      },
      {
        "astId": 3650,
        "contract": "contracts/Voting/Sender/VotingSender.sol:VotingSender",
        "label": "failedMessages",
        "offset": 0,
        "slot": "5",
        "type": "t_mapping(t_uint16,t_mapping(t_bytes_memory_ptr,t_mapping(t_uint64,t_bytes32)))"
      }
    ],
    "types": {
      "t_address": {
        "encoding": "inplace",
        "label": "address",
        "numberOfBytes": "20"
      },
      "t_bytes32": {
        "encoding": "inplace",
        "label": "bytes32",
        "numberOfBytes": "32"
      },
      "t_bytes_memory_ptr": {
        "encoding": "bytes",
        "label": "bytes",
        "numberOfBytes": "32"
      },
      "t_bytes_storage": {
        "encoding": "bytes",
        "label": "bytes",
        "numberOfBytes": "32"
      },
      "t_mapping(t_bytes_memory_ptr,t_mapping(t_uint64,t_bytes32))": {
        "encoding": "mapping",
        "key": "t_bytes_memory_ptr",
        "label": "mapping(bytes => mapping(uint64 => bytes32))",
        "numberOfBytes": "32",
        "value": "t_mapping(t_uint64,t_bytes32)"
      },
      "t_mapping(t_uint16,t_bytes_storage)": {
        "encoding": "mapping",
        "key": "t_uint16",
        "label": "mapping(uint16 => bytes)",
        "numberOfBytes": "32",
        "value": "t_bytes_storage"
      },
      "t_mapping(t_uint16,t_mapping(t_bytes_memory_ptr,t_mapping(t_uint64,t_bytes32)))": {
        "encoding": "mapping",
        "key": "t_uint16",
        "label": "mapping(uint16 => mapping(bytes => mapping(uint64 => bytes32)))",
        "numberOfBytes": "32",
        "value": "t_mapping(t_bytes_memory_ptr,t_mapping(t_uint64,t_bytes32))"
      },
      "t_mapping(t_uint16,t_mapping(t_uint16,t_uint256))": {
        "encoding": "mapping",
        "key": "t_uint16",
        "label": "mapping(uint16 => mapping(uint16 => uint256))",
        "numberOfBytes": "32",
        "value": "t_mapping(t_uint16,t_uint256)"
      },
      "t_mapping(t_uint16,t_uint256)": {
        "encoding": "mapping",
        "key": "t_uint16",
        "label": "mapping(uint16 => uint256)",
        "numberOfBytes": "32",
        "value": "t_uint256"
      },
      "t_mapping(t_uint64,t_bytes32)": {
        "encoding": "mapping",
        "key": "t_uint64",
        "label": "mapping(uint64 => bytes32)",
        "numberOfBytes": "32",
        "value": "t_bytes32"
      },
      "t_uint16": {
        "encoding": "inplace",
        "label": "uint16",
        "numberOfBytes": "2"
      },
      "t_uint256": {
        "encoding": "inplace",
        "label": "uint256",
        "numberOfBytes": "32"
      },
      "t_uint64": {
        "encoding": "inplace",
        "label": "uint64",
        "numberOfBytes": "8"
      }
    }
  }
}