{
  "address": "0x085543750e56663faba65C2e94E2344691aA7AD6",
  "abi": [
    {
      "inputs": [
        {
          "internalType": "address",
          "name": "_lzEndpoint",
          "type": "address"
        }
      ],
      "stateMutability": "nonpayable",
      "type": "constructor"
    },
    {
      "anonymous": false,
      "inputs": [
        {
          "indexed": false,
          "internalType": "uint16",
          "name": "_srcChainId",
          "type": "uint16"
        },
        {
          "indexed": false,
          "internalType": "bytes",
          "name": "_srcAddress",
          "type": "bytes"
        },
        {
          "indexed": false,
          "internalType": "uint64",
          "name": "_nonce",
          "type": "uint64"
        },
        {
          "indexed": false,
          "internalType": "bytes",
          "name": "_payload",
          "type": "bytes"
        },
        {
          "indexed": false,
          "internalType": "bytes",
          "name": "_reason",
          "type": "bytes"
        }
      ],
      "name": "MessageFailed",
      "type": "event"
    },
    {
      "anonymous": false,
      "inputs": [
        {
          "indexed": true,
          "internalType": "address",
          "name": "previousOwner",
          "type": "address"
        },
        {
          "indexed": true,
          "internalType": "address",
          "name": "newOwner",
          "type": "address"
        }
      ],
      "name": "OwnershipTransferred",
      "type": "event"
    },
    {
      "anonymous": false,
      "inputs": [
        {
          "indexed": false,
          "internalType": "uint16",
          "name": "_srcChainId",
          "type": "uint16"
        },
        {
          "indexed": false,
          "internalType": "bytes",
          "name": "_srcAddress",
          "type": "bytes"
        },
        {
          "indexed": false,
          "internalType": "uint64",
          "name": "_nonce",
          "type": "uint64"
        },
        {
          "indexed": false,
          "internalType": "bytes32",
          "name": "_payloadHash",
          "type": "bytes32"
        }
      ],
      "name": "RetryMessageSuccess",
      "type": "event"
    },
    {
      "anonymous": false,
      "inputs": [
        {
          "indexed": false,
          "internalType": "uint16",
          "name": "_dstChainId",
          "type": "uint16"
        },
        {
          "indexed": false,
          "internalType": "uint16",
          "name": "_type",
          "type": "uint16"
        },
        {
          "indexed": false,
          "internalType": "uint256",
          "name": "_minDstGas",
          "type": "uint256"
        }
      ],
      "name": "SetMinDstGas",
      "type": "event"
    },
    {
      "anonymous": false,
      "inputs": [
        {
          "indexed": false,
          "internalType": "address",
          "name": "precrime",
          "type": "address"
        }
      ],
      "name": "SetPrecrime",
      "type": "event"
    },
    {
      "anonymous": false,
      "inputs": [
        {
          "indexed": false,
          "internalType": "uint16",
          "name": "_remoteChainId",
          "type": "uint16"
        },
        {
          "indexed": false,
          "internalType": "bytes",
          "name": "_path",
          "type": "bytes"
        }
      ],
      "name": "SetTrustedRemote",
      "type": "event"
    },
    {
      "anonymous": false,
      "inputs": [
        {
          "indexed": false,
          "internalType": "uint16",
          "name": "_remoteChainId",
          "type": "uint16"
        },
        {
          "indexed": false,
          "internalType": "bytes",
          "name": "_remoteAddress",
          "type": "bytes"
        }
      ],
      "name": "SetTrustedRemoteAddress",
      "type": "event"
    },
    {
      "inputs": [],
      "name": "DEFAULT_PAYLOAD_SIZE_LIMIT",
      "outputs": [
        {
          "internalType": "uint256",
          "name": "",
          "type": "uint256"
        }
      ],
      "stateMutability": "view",
      "type": "function"
    },
    {
      "inputs": [
        {
          "internalType": "uint16",
          "name": "",
          "type": "uint16"
        },
        {
          "internalType": "bytes",
          "name": "",
          "type": "bytes"
        },
        {
          "internalType": "uint64",
          "name": "",
          "type": "uint64"
        }
      ],
      "name": "failedMessages",
      "outputs": [
        {
          "internalType": "bytes32",
          "name": "",
          "type": "bytes32"
        }
      ],
      "stateMutability": "view",
      "type": "function"
    },
    {
      "inputs": [
        {
          "internalType": "uint16",
          "name": "_srcChainId",
          "type": "uint16"
        },
        {
          "internalType": "bytes",
          "name": "_srcAddress",
          "type": "bytes"
        }
      ],
      "name": "forceResumeReceive",
      "outputs": [],
      "stateMutability": "nonpayable",
      "type": "function"
    },
    {
      "inputs": [
        {
          "internalType": "uint16",
          "name": "_version",
          "type": "uint16"
        },
        {
          "internalType": "uint16",
          "name": "_chainId",
          "type": "uint16"
        },
        {
          "internalType": "address",
          "name": "",
          "type": "address"
        },
        {
          "internalType": "uint256",
          "name": "_configType",
          "type": "uint256"
        }
      ],
      "name": "getConfig",
      "outputs": [
        {
          "internalType": "bytes",
          "name": "",
          "type": "bytes"
        }
      ],
      "stateMutability": "view",
      "type": "function"
    },
    {
      "inputs": [
        {
          "internalType": "uint16",
          "name": "_remoteChainId",
          "type": "uint16"
        }
      ],
      "name": "getTrustedRemoteAddress",
      "outputs": [
        {
          "internalType": "bytes",
          "name": "",
          "type": "bytes"
        }
      ],
      "stateMutability": "view",
      "type": "function"
    },
    {
      "inputs": [
        {
          "internalType": "uint16",
          "name": "_dstChainId",
          "type": "uint16"
        },
        {
          "internalType": "bytes",
          "name": "_payload",
          "type": "bytes"
        }
      ],
      "name": "incrementCounter",
      "outputs": [],
      "stateMutability": "payable",
      "type": "function"
    },
    {
      "inputs": [
        {
          "internalType": "uint16",
          "name": "_srcChainId",
          "type": "uint16"
        },
        {
          "internalType": "bytes",
          "name": "_srcAddress",
          "type": "bytes"
        }
      ],
      "name": "isTrustedRemote",
      "outputs": [
        {
          "internalType": "bool",
          "name": "",
          "type": "bool"
        }
      ],
      "stateMutability": "view",
      "type": "function"
    },
    {
      "inputs": [],
      "name": "lzEndpoint",
      "outputs": [
        {
          "internalType": "contract ILayerZeroEndpoint",
          "name": "",
          "type": "address"
        }
      ],
      "stateMutability": "view",
      "type": "function"
    },
    {
      "inputs": [
        {
          "internalType": "uint16",
          "name": "_srcChainId",
          "type": "uint16"
        },
        {
          "internalType": "bytes",
          "name": "_srcAddress",
          "type": "bytes"
        },
        {
          "internalType": "uint64",
          "name": "_nonce",
          "type": "uint64"
        },
        {
          "internalType": "bytes",
          "name": "_payload",
          "type": "bytes"
        }
      ],
      "name": "lzReceive",
      "outputs": [],
      "stateMutability": "nonpayable",
      "type": "function"
    },
    {
      "inputs": [
        {
          "internalType": "uint16",
          "name": "",
          "type": "uint16"
        },
        {
          "internalType": "uint16",
          "name": "",
          "type": "uint16"
        }
      ],
      "name": "minDstGasLookup",
      "outputs": [
        {
          "internalType": "uint256",
          "name": "",
          "type": "uint256"
        }
      ],
      "stateMutability": "view",
      "type": "function"
    },
    {
      "inputs": [
        {
          "internalType": "uint16",
          "name": "_srcChainId",
          "type": "uint16"
        },
        {
          "internalType": "bytes",
          "name": "_srcAddress",
          "type": "bytes"
        },
        {
          "internalType": "uint64",
          "name": "_nonce",
          "type": "uint64"
        },
        {
          "internalType": "bytes",
          "name": "_payload",
          "type": "bytes"
        }
      ],
      "name": "nonblockingLzReceive",
      "outputs": [],
      "stateMutability": "nonpayable",
      "type": "function"
    },
    {
      "inputs": [],
      "name": "owner",
      "outputs": [
        {
          "internalType": "address",
          "name": "",
          "type": "address"
        }
      ],
      "stateMutability": "view",
      "type": "function"
    },
    {
      "inputs": [
        {
          "internalType": "uint16",
          "name": "",
          "type": "uint16"
        }
      ],
      "name": "payloadSizeLimitLookup",
      "outputs": [
        {
          "internalType": "uint256",
          "name": "",
          "type": "uint256"
        }
      ],
      "stateMutability": "view",
      "type": "function"
    },
    {
      "inputs": [],
      "name": "precrime",
      "outputs": [
        {
          "internalType": "address",
          "name": "",
          "type": "address"
        }
      ],
      "stateMutability": "view",
      "type": "function"
    },
    {
      "inputs": [],
      "name": "renounceOwnership",
      "outputs": [],
      "stateMutability": "nonpayable",
      "type": "function"
    },
    {
      "inputs": [
        {
          "internalType": "uint16",
          "name": "_srcChainId",
          "type": "uint16"
        },
        {
          "internalType": "bytes",
          "name": "_srcAddress",
          "type": "bytes"
        },
        {
          "internalType": "uint64",
          "name": "_nonce",
          "type": "uint64"
        },
        {
          "internalType": "bytes",
          "name": "_payload",
          "type": "bytes"
        }
      ],
      "name": "retryMessage",
      "outputs": [],
      "stateMutability": "payable",
      "type": "function"
    },
    {
      "inputs": [
        {
          "internalType": "uint16",
          "name": "_version",
          "type": "uint16"
        },
        {
          "internalType": "uint16",
          "name": "_chainId",
          "type": "uint16"
        },
        {
          "internalType": "uint256",
          "name": "_configType",
          "type": "uint256"
        },
        {
          "internalType": "bytes",
          "name": "_config",
          "type": "bytes"
        }
      ],
      "name": "setConfig",
      "outputs": [],
      "stateMutability": "nonpayable",
      "type": "function"
    },
    {
      "inputs": [
        {
          "internalType": "uint16",
          "name": "_dstChainId",
          "type": "uint16"
        },
        {
          "internalType": "uint16",
          "name": "_packetType",
          "type": "uint16"
        },
        {
          "internalType": "uint256",
          "name": "_minGas",
          "type": "uint256"
        }
      ],
      "name": "setMinDstGas",
      "outputs": [],
      "stateMutability": "nonpayable",
      "type": "function"
    },
    {
      "inputs": [
        {
          "internalType": "uint16",
          "name": "_dstChainId",
          "type": "uint16"
        },
        {
          "internalType": "uint256",
          "name": "_size",
          "type": "uint256"
        }
      ],
      "name": "setPayloadSizeLimit",
      "outputs": [],
      "stateMutability": "nonpayable",
      "type": "function"
    },
    {
      "inputs": [
        {
          "internalType": "address",
          "name": "_precrime",
          "type": "address"
        }
      ],
      "name": "setPrecrime",
      "outputs": [],
      "stateMutability": "nonpayable",
      "type": "function"
    },
    {
      "inputs": [
        {
          "internalType": "uint16",
          "name": "_version",
          "type": "uint16"
        }
      ],
      "name": "setReceiveVersion",
      "outputs": [],
      "stateMutability": "nonpayable",
      "type": "function"
    },
    {
      "inputs": [
        {
          "internalType": "uint16",
          "name": "_version",
          "type": "uint16"
        }
      ],
      "name": "setSendVersion",
      "outputs": [],
      "stateMutability": "nonpayable",
      "type": "function"
    },
    {
      "inputs": [
        {
          "internalType": "uint16",
          "name": "_remoteChainId",
          "type": "uint16"
        },
        {
          "internalType": "bytes",
          "name": "_path",
          "type": "bytes"
        }
      ],
      "name": "setTrustedRemote",
      "outputs": [],
      "stateMutability": "nonpayable",
      "type": "function"
    },
    {
      "inputs": [
        {
          "internalType": "uint16",
          "name": "_remoteChainId",
          "type": "uint16"
        },
        {
          "internalType": "bytes",
          "name": "_remoteAddress",
          "type": "bytes"
        }
      ],
      "name": "setTrustedRemoteAddress",
      "outputs": [],
      "stateMutability": "nonpayable",
      "type": "function"
    },
    {
      "inputs": [
        {
          "internalType": "address",
          "name": "newOwner",
          "type": "address"
        }
      ],
      "name": "transferOwnership",
      "outputs": [],
      "stateMutability": "nonpayable",
      "type": "function"
    },
    {
      "inputs": [
        {
          "internalType": "uint16",
          "name": "",
          "type": "uint16"
        }
      ],
      "name": "trustedRemoteLookup",
      "outputs": [
        {
          "internalType": "bytes",
          "name": "",
          "type": "bytes"
        }
      ],
      "stateMutability": "view",
      "type": "function"
    }
  ],
  "transactionHash": "0x4e3a49d2acbe746de84ad91f550e03e37ead1e47d1dd170a50ed168c090c31a2",
  "args": [
    "0xae92d5aD7583AD66E49A0c67BAd18F6ba52dDDc1"
  ],
  "numDeployments": 3,
  "solcInputHash": "4e44b337749bf6b4314cada92b3fe217",
  "bytecode": "0x60a06040523480156200001157600080fd5b5060405162002275380380620022758339810160408190526200003491620000a6565b8080620000413362000056565b6001600160a01b031660805250620000d89050565b600080546001600160a01b038381166001600160a01b0319831681178455604051919092169283917f8be0079c531659141344cd1fd0a4f28419497f9722a3daafe3b4186f6b6457e09190a35050565b600060208284031215620000b957600080fd5b81516001600160a01b0381168114620000d157600080fd5b9392505050565b60805161215062000125600039600081816103c4015281816104e501528181610734015281816107dc015281816108fe01528181610d1a0152818161117e015261156201526121506000f3fe6080604052600436106101305760003560e01c80621d35671461013557806307e0db17146101575780630df374831461017757806310ddb137146101975780633d8b38f6146101b75780633f1f4fa4146101ec57806342d65a8d146102275780635b8c41e61461024757806366ad5c8a14610296578063715018a6146102b65780637533d788146102cb5780638cfd8f5c146102f85780638da5cb5b14610330578063950c8a74146103525780639f38369a14610372578063a6c3d16514610392578063b353aaa7146103b2578063baf3292d146103e6578063c446183414610406578063cbed8b9c1461041c578063d1deba1f1461043c578063df2a5b3b1461044f578063eb8d72b71461046f578063ed0cc14f1461048f578063f2fde38b146104a2578063f5ecbdbc146104c2575b600080fd5b34801561014157600080fd5b506101556101503660046117f1565b6104e2565b005b34801561016357600080fd5b50610155610172366004611884565b610713565b34801561018357600080fd5b5061015561019236600461189f565b61079c565b3480156101a357600080fd5b506101556101b2366004611884565b6107bb565b3480156101c357600080fd5b506101d76101d23660046118c9565b610813565b60405190151581526020015b60405180910390f35b3480156101f857600080fd5b50610219610207366004611884565b60036020526000908152604090205481565b6040519081526020016101e3565b34801561023357600080fd5b506101556102423660046118c9565b6108df565b34801561025357600080fd5b506102196102623660046119de565b6005602090815260009384526040808520845180860184018051928152908401958401959095209452929052825290205481565b3480156102a257600080fd5b506101556102b13660046117f1565b610965565b3480156102c257600080fd5b50610155610a41565b3480156102d757600080fd5b506102eb6102e6366004611884565b610a55565b6040516101e39190611a8b565b34801561030457600080fd5b50610219610313366004611a9e565b600260209081526000928352604080842090915290825290205481565b34801561033c57600080fd5b50610345610aef565b6040516101e39190611ad1565b34801561035e57600080fd5b50600454610345906001600160a01b031681565b34801561037e57600080fd5b506102eb61038d366004611884565b610afe565b34801561039e57600080fd5b506101556103ad3660046118c9565b610c14565b3480156103be57600080fd5b506103457f000000000000000000000000000000000000000000000000000000000000000081565b3480156103f257600080fd5b50610155610401366004611afc565b610c9d565b34801561041257600080fd5b5061021961271081565b34801561042857600080fd5b50610155610437366004611b17565b610cfb565b61015561044a3660046117f1565b610d90565b34801561045b57600080fd5b5061015561046a366004611b85565b610fa6565b34801561047b57600080fd5b5061015561048a3660046118c9565b611058565b61015561049d366004611bc1565b6110b2565b3480156104ae57600080fd5b506101556104bd366004611afc565b6110d4565b3480156104ce57600080fd5b506102eb6104dd366004611c0e565b61114d565b337f00000000000000000000000000000000000000000000000000000000000000006001600160a01b03161461055f5760405162461bcd60e51b815260206004820152601e60248201527f4c7a4170703a20696e76616c696420656e64706f696e742063616c6c6572000060448201526064015b60405180910390fd5b61ffff86166000908152600160205260408120805461057d90611c59565b80601f01602080910402602001604051908101604052809291908181526020018280546105a990611c59565b80156105f65780601f106105cb576101008083540402835291602001916105f6565b820191906000526020600020905b8154815290600101906020018083116105d957829003601f168201915b50505050509050805186869050148015610611575060008151115b801561063957508051602082012060405161062f9088908890611c93565b6040518091039020145b6106945760405162461bcd60e51b815260206004820152602660248201527f4c7a4170703a20696e76616c696420736f757263652073656e64696e6720636f6044820152651b9d1c9858dd60d21b6064820152608401610556565b61070a8787878080601f01602080910402602001604051908101604052809392919081815260200183838082843760009201919091525050604080516020601f8a018190048102820181019092528881528a9350915088908890819084018382808284376000920191909152506111fe92505050565b50505050505050565b61071b611277565b6040516307e0db1760e01b815261ffff821660048201527f00000000000000000000000000000000000000000000000000000000000000006001600160a01b0316906307e0db17906024015b600060405180830381600087803b15801561078157600080fd5b505af1158015610795573d6000803e3d6000fd5b5050505050565b6107a4611277565b61ffff909116600090815260036020526040902055565b6107c3611277565b6040516310ddb13760e01b815261ffff821660048201527f00000000000000000000000000000000000000000000000000000000000000006001600160a01b0316906310ddb13790602401610767565b61ffff83166000908152600160205260408120805482919061083490611c59565b80601f016020809104026020016040519081016040528092919081815260200182805461086090611c59565b80156108ad5780601f10610882576101008083540402835291602001916108ad565b820191906000526020600020905b81548152906001019060200180831161089057829003601f168201915b5050505050905083836040516108c4929190611c93565b60405180910390208180519060200120149150509392505050565b6108e7611277565b6040516342d65a8d60e01b81526001600160a01b037f000000000000000000000000000000000000000000000000000000000000000016906342d65a8d9061093790869086908690600401611ccc565b600060405180830381600087803b15801561095157600080fd5b505af115801561070a573d6000803e3d6000fd5b3330146109c35760405162461bcd60e51b815260206004820152602660248201527f4e6f6e626c6f636b696e674c7a4170703a2063616c6c6572206d7573742062656044820152650204c7a4170760d41b6064820152608401610556565b610a398686868080601f01602080910402602001604051908101604052809392919081815260200183838082843760009201919091525050604080516020601f8901819004810282018101909252878152899350915087908790819084018382808284376000920191909152506112d692505050565b505050505050565b610a49611277565b610a5360006112dc565b565b60016020526000908152604090208054610a6e90611c59565b80601f0160208091040260200160405190810160405280929190818152602001828054610a9a90611c59565b8015610ae75780601f10610abc57610100808354040283529160200191610ae7565b820191906000526020600020905b815481529060010190602001808311610aca57829003601f168201915b505050505081565b6000546001600160a01b031690565b61ffff8116600090815260016020526040812080546060929190610b2190611c59565b80601f0160208091040260200160405190810160405280929190818152602001828054610b4d90611c59565b8015610b9a5780601f10610b6f57610100808354040283529160200191610b9a565b820191906000526020600020905b815481529060010190602001808311610b7d57829003601f168201915b505050505090508051600003610bf25760405162461bcd60e51b815260206004820152601d60248201527f4c7a4170703a206e6f20747275737465642070617468207265636f72640000006044820152606401610556565b610c0d600060148351610c059190611d00565b83919061132c565b9392505050565b610c1c611277565b818130604051602001610c3193929190611d19565b60408051601f1981840301815291815261ffff8516600090815260016020522090610c5c9082611d95565b507f8c0400cfe2d1199b1a725c78960bcc2a344d869b80590d0f2bd005db15a572ce838383604051610c9093929190611ccc565b60405180910390a1505050565b610ca5611277565b600480546001600160a01b0319166001600160a01b0383161790556040517f5db758e995a17ec1ad84bdef7e8c3293a0bd6179bcce400dff5d4c3d87db726b90610cf0908390611ad1565b60405180910390a150565b610d03611277565b6040516332fb62e760e21b81526001600160a01b037f0000000000000000000000000000000000000000000000000000000000000000169063cbed8b9c90610d579088908890889088908890600401611e4e565b600060405180830381600087803b158015610d7157600080fd5b505af1158015610d85573d6000803e3d6000fd5b505050505050505050565b61ffff86166000908152600560205260408082209051610db39088908890611c93565b90815260408051602092819003830190206001600160401b03871660009081529252902054905080610e335760405162461bcd60e51b815260206004820152602360248201527f4e6f6e626c6f636b696e674c7a4170703a206e6f2073746f726564206d65737360448201526261676560e81b6064820152608401610556565b808383604051610e44929190611c93565b604051809103902014610ea35760405162461bcd60e51b815260206004820152602160248201527f4e6f6e626c6f636b696e674c7a4170703a20696e76616c6964207061796c6f616044820152601960fa1b6064820152608401610556565b61ffff87166000908152600560205260408082209051610ec69089908990611c93565b90815260408051602092819003830181206001600160401b038916600090815290845282902093909355601f88018290048202830182019052868252610f5e918991899089908190840183828082843760009201919091525050604080516020601f8a018190048102820181019092528881528a9350915088908890819084018382808284376000920191909152506112d692505050565b7fc264d91f3adc5588250e1551f547752ca0cfa8f6b530d243b9f9f4cab10ea8e58787878785604051610f95959493929190611e87565b60405180910390a150505050505050565b610fae611277565b60008111610ff65760405162461bcd60e51b81526020600482015260156024820152744c7a4170703a20696e76616c6964206d696e47617360581b6044820152606401610556565b61ffff83811660008181526002602090815260408083209487168084529482529182902085905581519283528201929092529081018290527f9d5c7c0b934da8fefa9c7760c98383778a12dfbfc0c3b3106518f43fb9508ac090606001610c90565b611060611277565b61ffff8316600090815260016020526040902061107e828483611ec2565b507ffa41487ad5d6728f0b19276fa1eddc16558578f5109fc39d2dc33c3230470dab838383604051610c9093929190611ccc565b6110d082823360006040518060200160405280600081525034611439565b5050565b6110dc611277565b6001600160a01b0381166111415760405162461bcd60e51b815260206004820152602660248201527f4f776e61626c653a206e6577206f776e657220697320746865207a65726f206160448201526564647265737360d01b6064820152608401610556565b61114a816112dc565b50565b604051633d7b2f6f60e21b815261ffff808616600483015284166024820152306044820152606481018290526060907f00000000000000000000000000000000000000000000000000000000000000006001600160a01b03169063f5ecbdbc90608401600060405180830381865afa1580156111cd573d6000803e3d6000fd5b505050506040513d6000823e601f3d908101601f191682016040526111f59190810190611f7b565b95945050505050565b6000806112615a60966366ad5c8a60e01b898989896040516024016112269493929190611fe8565b60408051601f198184030181529190526020810180516001600160e01b03166001600160e01b031990931692909217909152309291906115de565b9150915081610a3957610a398686868685611668565b33611280610aef565b6001600160a01b031614610a535760405162461bcd60e51b815260206004820181905260248201527f4f776e61626c653a2063616c6c6572206973206e6f7420746865206f776e65726044820152606401610556565b50505050565b600080546001600160a01b038381166001600160a01b0319831681178455604051919092169283917f8be0079c531659141344cd1fd0a4f28419497f9722a3daafe3b4186f6b6457e09190a35050565b60608161133a81601f612026565b10156113795760405162461bcd60e51b815260206004820152600e60248201526d736c6963655f6f766572666c6f7760901b6044820152606401610556565b6113838284612026565b845110156113c75760405162461bcd60e51b8152602060048201526011602482015270736c6963655f6f75744f66426f756e647360781b6044820152606401610556565b6060821580156113e65760405191506000825260208201604052611430565b6040519150601f8416801560200281840101858101878315602002848b0101015b8183101561141f578051835260209283019201611407565b5050858452601f01601f1916604052505b50949350505050565b61ffff86166000908152600160205260408120805461145790611c59565b80601f016020809104026020016040519081016040528092919081815260200182805461148390611c59565b80156114d05780601f106114a5576101008083540402835291602001916114d0565b820191906000526020600020905b8154815290600101906020018083116114b357829003601f168201915b5050505050905080516000036115415760405162461bcd60e51b815260206004820152603060248201527f4c7a4170703a2064657374696e6174696f6e20636861696e206973206e6f742060448201526f61207472757374656420736f7572636560801b6064820152608401610556565b61154c878751611705565b60405162c5803160e81b81526001600160a01b037f0000000000000000000000000000000000000000000000000000000000000000169063c58031009084906115a3908b9086908c908c908c908c90600401612039565b6000604051808303818588803b1580156115bc57600080fd5b505af11580156115d0573d6000803e3d6000fd5b505050505050505050505050565b6000606060008060008661ffff166001600160401b038111156116035761160361191b565b6040519080825280601f01601f19166020018201604052801561162d576020820181803683370190505b50905060008087516020890160008d8df191503d92508683111561164f578692505b828152826000602083013e909890975095505050505050565b8180519060200120600560008761ffff1661ffff1681526020019081526020016000208560405161169991906120a0565b9081526040805191829003602090810183206001600160401b0388166000908152915220919091557fe183f33de2837795525b4792ca4cd60535bd77c53b7e7030060bfcf5734d6b0c906116f690879087908790879087906120bc565b60405180910390a15050505050565b61ffff82166000908152600360205260408120549081900361172657506127105b808211156117765760405162461bcd60e51b815260206004820181905260248201527f4c7a4170703a207061796c6f61642073697a6520697320746f6f206c617267656044820152606401610556565b505050565b803561ffff8116811461178d57600080fd5b919050565b60008083601f8401126117a457600080fd5b5081356001600160401b038111156117bb57600080fd5b6020830191508360208285010111156117d357600080fd5b9250929050565b80356001600160401b038116811461178d57600080fd5b6000806000806000806080878903121561180a57600080fd5b6118138761177b565b955060208701356001600160401b038082111561182f57600080fd5b61183b8a838b01611792565b909750955085915061184f60408a016117da565b9450606089013591508082111561186557600080fd5b5061187289828a01611792565b979a9699509497509295939492505050565b60006020828403121561189657600080fd5b610c0d8261177b565b600080604083850312156118b257600080fd5b6118bb8361177b565b946020939093013593505050565b6000806000604084860312156118de57600080fd5b6118e78461177b565b925060208401356001600160401b0381111561190257600080fd5b61190e86828701611792565b9497909650939450505050565b634e487b7160e01b600052604160045260246000fd5b604051601f8201601f191681016001600160401b03811182821017156119595761195961191b565b604052919050565b60006001600160401b0382111561197a5761197a61191b565b50601f01601f191660200190565b600082601f83011261199957600080fd5b81356119ac6119a782611961565b611931565b8181528460208386010111156119c157600080fd5b816020850160208301376000918101602001919091529392505050565b6000806000606084860312156119f357600080fd5b6119fc8461177b565b925060208401356001600160401b03811115611a1757600080fd5b611a2386828701611988565b925050611a32604085016117da565b90509250925092565b60005b83811015611a56578181015183820152602001611a3e565b50506000910152565b60008151808452611a77816020860160208601611a3b565b601f01601f19169290920160200192915050565b602081526000610c0d6020830184611a5f565b60008060408385031215611ab157600080fd5b611aba8361177b565b9150611ac86020840161177b565b90509250929050565b6001600160a01b0391909116815260200190565b80356001600160a01b038116811461178d57600080fd5b600060208284031215611b0e57600080fd5b610c0d82611ae5565b600080600080600060808688031215611b2f57600080fd5b611b388661177b565b9450611b466020870161177b565b93506040860135925060608601356001600160401b03811115611b6857600080fd5b611b7488828901611792565b969995985093965092949392505050565b600080600060608486031215611b9a57600080fd5b611ba38461177b565b9250611bb16020850161177b565b9150604084013590509250925092565b60008060408385031215611bd457600080fd5b611bdd8361177b565b915060208301356001600160401b03811115611bf857600080fd5b611c0485828601611988565b9150509250929050565b60008060008060808587031215611c2457600080fd5b611c2d8561177b565b9350611c3b6020860161177b565b9250611c4960408601611ae5565b9396929550929360600135925050565b600181811c90821680611c6d57607f821691505b602082108103611c8d57634e487b7160e01b600052602260045260246000fd5b50919050565b8183823760009101908152919050565b81835281816020850137506000828201602090810191909152601f909101601f19169091010190565b61ffff841681526040602082015260006111f5604083018486611ca3565b634e487b7160e01b600052601160045260246000fd5b81810381811115611d1357611d13611cea565b92915050565b8284823760609190911b6001600160601b0319169101908152601401919050565b601f82111561177657600081815260208120601f850160051c81016020861015611d615750805b601f850160051c820191505b81811015610a3957828155600101611d6d565b600019600383901b1c191660019190911b1790565b81516001600160401b03811115611dae57611dae61191b565b611dc281611dbc8454611c59565b84611d3a565b602080601f831160018114611df15760008415611ddf5750858301515b611de98582611d80565b865550610a39565b600085815260208120601f198616915b82811015611e2057888601518255948401946001909101908401611e01565b5085821015611e3e5787850151600019600388901b60f8161c191681555b5050505050600190811b01905550565b600061ffff808816835280871660208401525084604083015260806060830152611e7c608083018486611ca3565b979650505050505050565b61ffff86168152608060208201526000611ea5608083018688611ca3565b6001600160401b0394909416604083015250606001529392505050565b6001600160401b03831115611ed957611ed961191b565b611eed83611ee78354611c59565b83611d3a565b6000601f841160018114611f1b5760008515611f095750838201355b611f138682611d80565b845550610795565b600083815260209020601f19861690835b82811015611f4c5786850135825560209485019460019092019101611f2c565b5086821015611f695760001960f88860031b161c19848701351681555b505060018560011b0183555050505050565b600060208284031215611f8d57600080fd5b81516001600160401b03811115611fa357600080fd5b8201601f81018413611fb457600080fd5b8051611fc26119a782611961565b818152856020838501011115611fd757600080fd5b6111f5826020830160208601611a3b565b61ffff851681526080602082015260006120056080830186611a5f565b6001600160401b03851660408401528281036060840152611e7c8185611a5f565b80820180821115611d1357611d13611cea565b61ffff8716815260c06020820152600061205660c0830188611a5f565b82810360408401526120688188611a5f565b6001600160a01b0387811660608601528616608085015283810360a085015290506120938185611a5f565b9998505050505050505050565b600082516120b2818460208701611a3b565b9190910192915050565b61ffff8616815260a0602082015260006120d960a0830187611a5f565b6001600160401b038616604084015282810360608401526120fa8186611a5f565b9050828103608084015261210e8185611a5f565b9897505050505050505056fea264697066735822122054db647ac825cf27a58c8b2816d15ef90d5afaad372a963c256348e83526233d64736f6c63430008110033",
  "devdoc": {
    "kind": "dev",
    "methods": {
      "owner()": {
        "details": "Returns the address of the current owner."
      },
      "renounceOwnership()": {
        "details": "Leaves the contract without owner. It will not be possible to call `onlyOwner` functions. Can only be called by the current owner. NOTE: Renouncing ownership will leave the contract without an owner, thereby disabling any functionality that is only available to the owner."
      },
      "transferOwnership(address)": {
        "details": "Transfers ownership of the contract to a new account (`newOwner`). Can only be called by the current owner."
      }
    },
    "title": "A LayerZero example sending a cross chain message from a source chain to a destination chain to increment a counter",
    "version": 1
  },
  "userdoc": {
    "kind": "user",
    "methods": {},
    "version": 1
  },
  "storageLayout": {
    "storage": [
      {
        "astId": 7,
        "contract": "contracts/VotingContracts/VotingSender.sol:VotingSender",
        "label": "_owner",
        "offset": 0,
        "slot": "0",
        "type": "t_address"
      },
      {
        "astId": 411,
        "contract": "contracts/VotingContracts/VotingSender.sol:VotingSender",
        "label": "trustedRemoteLookup",
        "offset": 0,
        "slot": "1",
        "type": "t_mapping(t_uint16,t_bytes_storage)"
      },
      {
        "astId": 417,
        "contract": "contracts/VotingContracts/VotingSender.sol:VotingSender",
        "label": "minDstGasLookup",
        "offset": 0,
        "slot": "2",
        "type": "t_mapping(t_uint16,t_mapping(t_uint16,t_uint256))"
      },
      {
        "astId": 421,
        "contract": "contracts/VotingContracts/VotingSender.sol:VotingSender",
        "label": "payloadSizeLimitLookup",
        "offset": 0,
        "slot": "3",
        "type": "t_mapping(t_uint16,t_uint256)"
      },
      {
        "astId": 423,
        "contract": "contracts/VotingContracts/VotingSender.sol:VotingSender",
        "label": "precrime",
        "offset": 0,
        "slot": "4",
        "type": "t_address"
      },
      {
        "astId": 960,
        "contract": "contracts/VotingContracts/VotingSender.sol:VotingSender",
        "label": "failedMessages",
        "offset": 0,
        "slot": "5",
        "type": "t_mapping(t_uint16,t_mapping(t_bytes_memory_ptr,t_mapping(t_uint64,t_bytes32)))"
      }
    ],
    "types": {
      "t_address": {
        "encoding": "inplace",
        "label": "address",
        "numberOfBytes": "20"
      },
      "t_bytes32": {
        "encoding": "inplace",
        "label": "bytes32",
        "numberOfBytes": "32"
      },
      "t_bytes_memory_ptr": {
        "encoding": "bytes",
        "label": "bytes",
        "numberOfBytes": "32"
      },
      "t_bytes_storage": {
        "encoding": "bytes",
        "label": "bytes",
        "numberOfBytes": "32"
      },
      "t_mapping(t_bytes_memory_ptr,t_mapping(t_uint64,t_bytes32))": {
        "encoding": "mapping",
        "key": "t_bytes_memory_ptr",
        "label": "mapping(bytes => mapping(uint64 => bytes32))",
        "numberOfBytes": "32",
        "value": "t_mapping(t_uint64,t_bytes32)"
      },
      "t_mapping(t_uint16,t_bytes_storage)": {
        "encoding": "mapping",
        "key": "t_uint16",
        "label": "mapping(uint16 => bytes)",
        "numberOfBytes": "32",
        "value": "t_bytes_storage"
      },
      "t_mapping(t_uint16,t_mapping(t_bytes_memory_ptr,t_mapping(t_uint64,t_bytes32)))": {
        "encoding": "mapping",
        "key": "t_uint16",
        "label": "mapping(uint16 => mapping(bytes => mapping(uint64 => bytes32)))",
        "numberOfBytes": "32",
        "value": "t_mapping(t_bytes_memory_ptr,t_mapping(t_uint64,t_bytes32))"
      },
      "t_mapping(t_uint16,t_mapping(t_uint16,t_uint256))": {
        "encoding": "mapping",
        "key": "t_uint16",
        "label": "mapping(uint16 => mapping(uint16 => uint256))",
        "numberOfBytes": "32",
        "value": "t_mapping(t_uint16,t_uint256)"
      },
      "t_mapping(t_uint16,t_uint256)": {
        "encoding": "mapping",
        "key": "t_uint16",
        "label": "mapping(uint16 => uint256)",
        "numberOfBytes": "32",
        "value": "t_uint256"
      },
      "t_mapping(t_uint64,t_bytes32)": {
        "encoding": "mapping",
        "key": "t_uint64",
        "label": "mapping(uint64 => bytes32)",
        "numberOfBytes": "32",
        "value": "t_bytes32"
      },
      "t_uint16": {
        "encoding": "inplace",
        "label": "uint16",
        "numberOfBytes": "2"
      },
      "t_uint256": {
        "encoding": "inplace",
        "label": "uint256",
        "numberOfBytes": "32"
      },
      "t_uint64": {
        "encoding": "inplace",
        "label": "uint64",
        "numberOfBytes": "8"
      }
    }
  }
}