{
  "address": "0x84792066918262d50eA9F4755F843A2c0c63b551",
  "abi": [
    {
      "inputs": [
        {
          "internalType": "address",
          "name": "_lzEndpoint",
          "type": "address"
        }
      ],
      "stateMutability": "nonpayable",
      "type": "constructor"
    },
    {
      "anonymous": false,
      "inputs": [
        {
          "indexed": false,
          "internalType": "uint16",
          "name": "_srcChainId",
          "type": "uint16"
        },
        {
          "indexed": false,
          "internalType": "bytes",
          "name": "_srcAddress",
          "type": "bytes"
        },
        {
          "indexed": false,
          "internalType": "uint64",
          "name": "_nonce",
          "type": "uint64"
        },
        {
          "indexed": false,
          "internalType": "bytes",
          "name": "_payload",
          "type": "bytes"
        },
        {
          "indexed": false,
          "internalType": "bytes",
          "name": "_reason",
          "type": "bytes"
        }
      ],
      "name": "MessageFailed",
      "type": "event"
    },
    {
      "anonymous": false,
      "inputs": [
        {
          "indexed": true,
          "internalType": "address",
          "name": "previousOwner",
          "type": "address"
        },
        {
          "indexed": true,
          "internalType": "address",
          "name": "newOwner",
          "type": "address"
        }
      ],
      "name": "OwnershipTransferred",
      "type": "event"
    },
    {
      "anonymous": false,
      "inputs": [
        {
          "indexed": false,
          "internalType": "uint16",
          "name": "_srcChainId",
          "type": "uint16"
        },
        {
          "indexed": false,
          "internalType": "bytes",
          "name": "_srcAddress",
          "type": "bytes"
        },
        {
          "indexed": false,
          "internalType": "uint64",
          "name": "_nonce",
          "type": "uint64"
        },
        {
          "indexed": false,
          "internalType": "bytes32",
          "name": "_payloadHash",
          "type": "bytes32"
        }
      ],
      "name": "RetryMessageSuccess",
      "type": "event"
    },
    {
      "anonymous": false,
      "inputs": [
        {
          "indexed": false,
          "internalType": "uint16",
          "name": "_dstChainId",
          "type": "uint16"
        },
        {
          "indexed": false,
          "internalType": "uint16",
          "name": "_type",
          "type": "uint16"
        },
        {
          "indexed": false,
          "internalType": "uint256",
          "name": "_minDstGas",
          "type": "uint256"
        }
      ],
      "name": "SetMinDstGas",
      "type": "event"
    },
    {
      "anonymous": false,
      "inputs": [
        {
          "indexed": false,
          "internalType": "address",
          "name": "precrime",
          "type": "address"
        }
      ],
      "name": "SetPrecrime",
      "type": "event"
    },
    {
      "anonymous": false,
      "inputs": [
        {
          "indexed": false,
          "internalType": "uint16",
          "name": "_remoteChainId",
          "type": "uint16"
        },
        {
          "indexed": false,
          "internalType": "bytes",
          "name": "_path",
          "type": "bytes"
        }
      ],
      "name": "SetTrustedRemote",
      "type": "event"
    },
    {
      "anonymous": false,
      "inputs": [
        {
          "indexed": false,
          "internalType": "uint16",
          "name": "_remoteChainId",
          "type": "uint16"
        },
        {
          "indexed": false,
          "internalType": "bytes",
          "name": "_remoteAddress",
          "type": "bytes"
        }
      ],
      "name": "SetTrustedRemoteAddress",
      "type": "event"
    },
    {
      "inputs": [],
      "name": "DEFAULT_PAYLOAD_SIZE_LIMIT",
      "outputs": [
        {
          "internalType": "uint256",
          "name": "",
          "type": "uint256"
        }
      ],
      "stateMutability": "view",
      "type": "function"
    },
    {
      "inputs": [
        {
          "internalType": "uint16",
          "name": "",
          "type": "uint16"
        },
        {
          "internalType": "bytes",
          "name": "",
          "type": "bytes"
        },
        {
          "internalType": "uint64",
          "name": "",
          "type": "uint64"
        }
      ],
      "name": "failedMessages",
      "outputs": [
        {
          "internalType": "bytes32",
          "name": "",
          "type": "bytes32"
        }
      ],
      "stateMutability": "view",
      "type": "function"
    },
    {
      "inputs": [
        {
          "internalType": "uint16",
          "name": "_srcChainId",
          "type": "uint16"
        },
        {
          "internalType": "bytes",
          "name": "_srcAddress",
          "type": "bytes"
        }
      ],
      "name": "forceResumeReceive",
      "outputs": [],
      "stateMutability": "nonpayable",
      "type": "function"
    },
    {
      "inputs": [
        {
          "internalType": "uint16",
          "name": "_version",
          "type": "uint16"
        },
        {
          "internalType": "uint16",
          "name": "_chainId",
          "type": "uint16"
        },
        {
          "internalType": "address",
          "name": "",
          "type": "address"
        },
        {
          "internalType": "uint256",
          "name": "_configType",
          "type": "uint256"
        }
      ],
      "name": "getConfig",
      "outputs": [
        {
          "internalType": "bytes",
          "name": "",
          "type": "bytes"
        }
      ],
      "stateMutability": "view",
      "type": "function"
    },
    {
      "inputs": [
        {
          "internalType": "uint16",
          "name": "_remoteChainId",
          "type": "uint16"
        }
      ],
      "name": "getTrustedRemoteAddress",
      "outputs": [
        {
          "internalType": "bytes",
          "name": "",
          "type": "bytes"
        }
      ],
      "stateMutability": "view",
      "type": "function"
    },
    {
      "inputs": [
        {
          "internalType": "uint16",
          "name": "_dstChainId",
          "type": "uint16"
        }
      ],
      "name": "incrementCounter",
      "outputs": [],
      "stateMutability": "payable",
      "type": "function"
    },
    {
      "inputs": [
        {
          "internalType": "uint16",
          "name": "_srcChainId",
          "type": "uint16"
        },
        {
          "internalType": "bytes",
          "name": "_srcAddress",
          "type": "bytes"
        }
      ],
      "name": "isTrustedRemote",
      "outputs": [
        {
          "internalType": "bool",
          "name": "",
          "type": "bool"
        }
      ],
      "stateMutability": "view",
      "type": "function"
    },
    {
      "inputs": [],
      "name": "lzEndpoint",
      "outputs": [
        {
          "internalType": "contract ILayerZeroEndpoint",
          "name": "",
          "type": "address"
        }
      ],
      "stateMutability": "view",
      "type": "function"
    },
    {
      "inputs": [
        {
          "internalType": "uint16",
          "name": "_srcChainId",
          "type": "uint16"
        },
        {
          "internalType": "bytes",
          "name": "_srcAddress",
          "type": "bytes"
        },
        {
          "internalType": "uint64",
          "name": "_nonce",
          "type": "uint64"
        },
        {
          "internalType": "bytes",
          "name": "_payload",
          "type": "bytes"
        }
      ],
      "name": "lzReceive",
      "outputs": [],
      "stateMutability": "nonpayable",
      "type": "function"
    },
    {
      "inputs": [
        {
          "internalType": "uint16",
          "name": "",
          "type": "uint16"
        },
        {
          "internalType": "uint16",
          "name": "",
          "type": "uint16"
        }
      ],
      "name": "minDstGasLookup",
      "outputs": [
        {
          "internalType": "uint256",
          "name": "",
          "type": "uint256"
        }
      ],
      "stateMutability": "view",
      "type": "function"
    },
    {
      "inputs": [
        {
          "internalType": "uint16",
          "name": "_srcChainId",
          "type": "uint16"
        },
        {
          "internalType": "bytes",
          "name": "_srcAddress",
          "type": "bytes"
        },
        {
          "internalType": "uint64",
          "name": "_nonce",
          "type": "uint64"
        },
        {
          "internalType": "bytes",
          "name": "_payload",
          "type": "bytes"
        }
      ],
      "name": "nonblockingLzReceive",
      "outputs": [],
      "stateMutability": "nonpayable",
      "type": "function"
    },
    {
      "inputs": [],
      "name": "owner",
      "outputs": [
        {
          "internalType": "address",
          "name": "",
          "type": "address"
        }
      ],
      "stateMutability": "view",
      "type": "function"
    },
    {
      "inputs": [
        {
          "internalType": "uint16",
          "name": "",
          "type": "uint16"
        }
      ],
      "name": "payloadSizeLimitLookup",
      "outputs": [
        {
          "internalType": "uint256",
          "name": "",
          "type": "uint256"
        }
      ],
      "stateMutability": "view",
      "type": "function"
    },
    {
      "inputs": [],
      "name": "precrime",
      "outputs": [
        {
          "internalType": "address",
          "name": "",
          "type": "address"
        }
      ],
      "stateMutability": "view",
      "type": "function"
    },
    {
      "inputs": [],
      "name": "renounceOwnership",
      "outputs": [],
      "stateMutability": "nonpayable",
      "type": "function"
    },
    {
      "inputs": [
        {
          "internalType": "uint16",
          "name": "_srcChainId",
          "type": "uint16"
        },
        {
          "internalType": "bytes",
          "name": "_srcAddress",
          "type": "bytes"
        },
        {
          "internalType": "uint64",
          "name": "_nonce",
          "type": "uint64"
        },
        {
          "internalType": "bytes",
          "name": "_payload",
          "type": "bytes"
        }
      ],
      "name": "retryMessage",
      "outputs": [],
      "stateMutability": "payable",
      "type": "function"
    },
    {
      "inputs": [
        {
          "internalType": "uint16",
          "name": "_version",
          "type": "uint16"
        },
        {
          "internalType": "uint16",
          "name": "_chainId",
          "type": "uint16"
        },
        {
          "internalType": "uint256",
          "name": "_configType",
          "type": "uint256"
        },
        {
          "internalType": "bytes",
          "name": "_config",
          "type": "bytes"
        }
      ],
      "name": "setConfig",
      "outputs": [],
      "stateMutability": "nonpayable",
      "type": "function"
    },
    {
      "inputs": [
        {
          "internalType": "uint16",
          "name": "_dstChainId",
          "type": "uint16"
        },
        {
          "internalType": "uint16",
          "name": "_packetType",
          "type": "uint16"
        },
        {
          "internalType": "uint256",
          "name": "_minGas",
          "type": "uint256"
        }
      ],
      "name": "setMinDstGas",
      "outputs": [],
      "stateMutability": "nonpayable",
      "type": "function"
    },
    {
      "inputs": [
        {
          "internalType": "uint16",
          "name": "_dstChainId",
          "type": "uint16"
        },
        {
          "internalType": "uint256",
          "name": "_size",
          "type": "uint256"
        }
      ],
      "name": "setPayloadSizeLimit",
      "outputs": [],
      "stateMutability": "nonpayable",
      "type": "function"
    },
    {
      "inputs": [
        {
          "internalType": "address",
          "name": "_precrime",
          "type": "address"
        }
      ],
      "name": "setPrecrime",
      "outputs": [],
      "stateMutability": "nonpayable",
      "type": "function"
    },
    {
      "inputs": [
        {
          "internalType": "uint16",
          "name": "_version",
          "type": "uint16"
        }
      ],
      "name": "setReceiveVersion",
      "outputs": [],
      "stateMutability": "nonpayable",
      "type": "function"
    },
    {
      "inputs": [
        {
          "internalType": "uint16",
          "name": "_version",
          "type": "uint16"
        }
      ],
      "name": "setSendVersion",
      "outputs": [],
      "stateMutability": "nonpayable",
      "type": "function"
    },
    {
      "inputs": [
        {
          "internalType": "uint16",
          "name": "_remoteChainId",
          "type": "uint16"
        },
        {
          "internalType": "bytes",
          "name": "_path",
          "type": "bytes"
        }
      ],
      "name": "setTrustedRemote",
      "outputs": [],
      "stateMutability": "nonpayable",
      "type": "function"
    },
    {
      "inputs": [
        {
          "internalType": "uint16",
          "name": "_remoteChainId",
          "type": "uint16"
        },
        {
          "internalType": "bytes",
          "name": "_remoteAddress",
          "type": "bytes"
        }
      ],
      "name": "setTrustedRemoteAddress",
      "outputs": [],
      "stateMutability": "nonpayable",
      "type": "function"
    },
    {
      "inputs": [
        {
          "internalType": "address",
          "name": "newOwner",
          "type": "address"
        }
      ],
      "name": "transferOwnership",
      "outputs": [],
      "stateMutability": "nonpayable",
      "type": "function"
    },
    {
      "inputs": [
        {
          "internalType": "uint16",
          "name": "",
          "type": "uint16"
        }
      ],
      "name": "trustedRemoteLookup",
      "outputs": [
        {
          "internalType": "bytes",
          "name": "",
          "type": "bytes"
        }
      ],
      "stateMutability": "view",
      "type": "function"
    }
  ],
  "transactionHash": "0x79a388bf77cbae09e4962c71c4f6b760f0e37db453bbbf124c35633c75b4832d",
  "args": [
    "0xf69186dfBa60DdB133E91E9A4B5673624293d8F8"
  ],
  "numDeployments": 1,
  "solcInputHash": "9d902c7e5c62ec7b4e61d81994ec3486",
  "bytecode": "0x60a06040523480156200001157600080fd5b5060405162002220380380620022208339810160408190526200003491620000a6565b8080620000413362000056565b6001600160a01b031660805250620000d89050565b600080546001600160a01b038381166001600160a01b0319831681178455604051919092169283917f8be0079c531659141344cd1fd0a4f28419497f9722a3daafe3b4186f6b6457e09190a35050565b600060208284031215620000b957600080fd5b81516001600160a01b0381168114620000d157600080fd5b9392505050565b6080516120fb62000125600039600081816103d7015281816104e501528181610734015281816107dc015281816108fe01528181610d4a01528181611189015261146001526120fb6000f3fe6080604052600436106101305760003560e01c80621d35671461013557806307e0db17146101575780630df374831461017757806310ddb137146101975780633d8b38f6146101b75780633f1f4fa4146101ec57806342d65a8d146102275780635b8c41e61461024757806366ad5c8a14610296578063715018a6146102b65780637533d788146102cb5780638cfd8f5c146102f85780638da5cb5b14610330578063950c8a74146103525780639917565c146103725780639f38369a14610385578063a6c3d165146103a5578063b353aaa7146103c5578063baf3292d146103f9578063c446183414610419578063cbed8b9c1461042f578063d1deba1f1461044f578063df2a5b3b14610462578063eb8d72b714610482578063f2fde38b146104a2578063f5ecbdbc146104c2575b600080fd5b34801561014157600080fd5b506101556101503660046117fc565b6104e2565b005b34801561016357600080fd5b5061015561017236600461188f565b610713565b34801561018357600080fd5b506101556101923660046118aa565b61079c565b3480156101a357600080fd5b506101556101b236600461188f565b6107bb565b3480156101c357600080fd5b506101d76101d23660046118d4565b610813565b60405190151581526020015b60405180910390f35b3480156101f857600080fd5b5061021961020736600461188f565b60036020526000908152604090205481565b6040519081526020016101e3565b34801561023357600080fd5b506101556102423660046118d4565b6108df565b34801561025357600080fd5b50610219610262366004611993565b6005602090815260009384526040808520845180860184018051928152908401958401959095209452929052825290205481565b3480156102a257600080fd5b506101556102b13660046117fc565b610965565b3480156102c257600080fd5b50610155610a41565b3480156102d757600080fd5b506102eb6102e636600461188f565b610a55565b6040516101e39190611a83565b34801561030457600080fd5b50610219610313366004611a96565b600260209081526000928352604080842090915290825290205481565b34801561033c57600080fd5b50610345610aef565b6040516101e39190611ac9565b34801561035e57600080fd5b50600454610345906001600160a01b031681565b61015561038036600461188f565b610afe565b34801561039157600080fd5b506102eb6103a036600461188f565b610b2e565b3480156103b157600080fd5b506101556103c03660046118d4565b610c44565b3480156103d157600080fd5b506103457f000000000000000000000000000000000000000000000000000000000000000081565b34801561040557600080fd5b50610155610414366004611af4565b610ccd565b34801561042557600080fd5b5061021961271081565b34801561043b57600080fd5b5061015561044a366004611b0f565b610d2b565b61015561045d3660046117fc565b610dc0565b34801561046e57600080fd5b5061015561047d366004611b7d565b610fd6565b34801561048e57600080fd5b5061015561049d3660046118d4565b611088565b3480156104ae57600080fd5b506101556104bd366004611af4565b6110e2565b3480156104ce57600080fd5b506102eb6104dd366004611bb9565b611158565b337f00000000000000000000000000000000000000000000000000000000000000006001600160a01b03161461055f5760405162461bcd60e51b815260206004820152601e60248201527f4c7a4170703a20696e76616c696420656e64706f696e742063616c6c6572000060448201526064015b60405180910390fd5b61ffff86166000908152600160205260408120805461057d90611c04565b80601f01602080910402602001604051908101604052809291908181526020018280546105a990611c04565b80156105f65780601f106105cb576101008083540402835291602001916105f6565b820191906000526020600020905b8154815290600101906020018083116105d957829003601f168201915b50505050509050805186869050148015610611575060008151115b801561063957508051602082012060405161062f9088908890611c3e565b6040518091039020145b6106945760405162461bcd60e51b815260206004820152602660248201527f4c7a4170703a20696e76616c696420736f757263652073656e64696e6720636f6044820152651b9d1c9858dd60d21b6064820152608401610556565b61070a8787878080601f01602080910402602001604051908101604052809392919081815260200183838082843760009201919091525050604080516020601f8a018190048102820181019092528881528a93509150889088908190840183828082843760009201919091525061120992505050565b50505050505050565b61071b611282565b6040516307e0db1760e01b815261ffff821660048201527f00000000000000000000000000000000000000000000000000000000000000006001600160a01b0316906307e0db17906024015b600060405180830381600087803b15801561078157600080fd5b505af1158015610795573d6000803e3d6000fd5b5050505050565b6107a4611282565b61ffff909116600090815260036020526040902055565b6107c3611282565b6040516310ddb13760e01b815261ffff821660048201527f00000000000000000000000000000000000000000000000000000000000000006001600160a01b0316906310ddb13790602401610767565b61ffff83166000908152600160205260408120805482919061083490611c04565b80601f016020809104026020016040519081016040528092919081815260200182805461086090611c04565b80156108ad5780601f10610882576101008083540402835291602001916108ad565b820191906000526020600020905b81548152906001019060200180831161089057829003601f168201915b5050505050905083836040516108c4929190611c3e565b60405180910390208180519060200120149150509392505050565b6108e7611282565b6040516342d65a8d60e01b81526001600160a01b037f000000000000000000000000000000000000000000000000000000000000000016906342d65a8d9061093790869086908690600401611c77565b600060405180830381600087803b15801561095157600080fd5b505af115801561070a573d6000803e3d6000fd5b3330146109c35760405162461bcd60e51b815260206004820152602660248201527f4e6f6e626c6f636b696e674c7a4170703a2063616c6c6572206d7573742062656044820152650204c7a4170760d41b6064820152608401610556565b610a398686868080601f01602080910402602001604051908101604052809392919081815260200183838082843760009201919091525050604080516020601f8901819004810282018101909252878152899350915087908790819084018382808284376000920191909152506112e192505050565b505050505050565b610a49611282565b610a5360006112e7565b565b60016020526000908152604090208054610a6e90611c04565b80601f0160208091040260200160405190810160405280929190818152602001828054610a9a90611c04565b8015610ae75780601f10610abc57610100808354040283529160200191610ae7565b820191906000526020600020905b815481529060010190602001808311610aca57829003601f168201915b505050505081565b6000546001600160a01b031690565b610b2b81604051806020016040528060008152503360006040518060200160405280600081525034611337565b50565b61ffff8116600090815260016020526040812080546060929190610b5190611c04565b80601f0160208091040260200160405190810160405280929190818152602001828054610b7d90611c04565b8015610bca5780601f10610b9f57610100808354040283529160200191610bca565b820191906000526020600020905b815481529060010190602001808311610bad57829003601f168201915b505050505090508051600003610c225760405162461bcd60e51b815260206004820152601d60248201527f4c7a4170703a206e6f20747275737465642070617468207265636f72640000006044820152606401610556565b610c3d600060148351610c359190611cab565b8391906114dc565b9392505050565b610c4c611282565b818130604051602001610c6193929190611cc4565b60408051601f1981840301815291815261ffff8516600090815260016020522090610c8c9082611d40565b507f8c0400cfe2d1199b1a725c78960bcc2a344d869b80590d0f2bd005db15a572ce838383604051610cc093929190611c77565b60405180910390a1505050565b610cd5611282565b600480546001600160a01b0319166001600160a01b0383161790556040517f5db758e995a17ec1ad84bdef7e8c3293a0bd6179bcce400dff5d4c3d87db726b90610d20908390611ac9565b60405180910390a150565b610d33611282565b6040516332fb62e760e21b81526001600160a01b037f0000000000000000000000000000000000000000000000000000000000000000169063cbed8b9c90610d879088908890889088908890600401611df9565b600060405180830381600087803b158015610da157600080fd5b505af1158015610db5573d6000803e3d6000fd5b505050505050505050565b61ffff86166000908152600560205260408082209051610de39088908890611c3e565b90815260408051602092819003830190206001600160401b03871660009081529252902054905080610e635760405162461bcd60e51b815260206004820152602360248201527f4e6f6e626c6f636b696e674c7a4170703a206e6f2073746f726564206d65737360448201526261676560e81b6064820152608401610556565b808383604051610e74929190611c3e565b604051809103902014610ed35760405162461bcd60e51b815260206004820152602160248201527f4e6f6e626c6f636b696e674c7a4170703a20696e76616c6964207061796c6f616044820152601960fa1b6064820152608401610556565b61ffff87166000908152600560205260408082209051610ef69089908990611c3e565b90815260408051602092819003830181206001600160401b038916600090815290845282902093909355601f88018290048202830182019052868252610f8e918991899089908190840183828082843760009201919091525050604080516020601f8a018190048102820181019092528881528a9350915088908890819084018382808284376000920191909152506112e192505050565b7fc264d91f3adc5588250e1551f547752ca0cfa8f6b530d243b9f9f4cab10ea8e58787878785604051610fc5959493929190611e32565b60405180910390a150505050505050565b610fde611282565b600081116110265760405162461bcd60e51b81526020600482015260156024820152744c7a4170703a20696e76616c6964206d696e47617360581b6044820152606401610556565b61ffff83811660008181526002602090815260408083209487168084529482529182902085905581519283528201929092529081018290527f9d5c7c0b934da8fefa9c7760c98383778a12dfbfc0c3b3106518f43fb9508ac090606001610cc0565b611090611282565b61ffff831660009081526001602052604090206110ae828483611e6d565b507ffa41487ad5d6728f0b19276fa1eddc16558578f5109fc39d2dc33c3230470dab838383604051610cc093929190611c77565b6110ea611282565b6001600160a01b03811661114f5760405162461bcd60e51b815260206004820152602660248201527f4f776e61626c653a206e6577206f776e657220697320746865207a65726f206160448201526564647265737360d01b6064820152608401610556565b610b2b816112e7565b604051633d7b2f6f60e21b815261ffff808616600483015284166024820152306044820152606481018290526060907f00000000000000000000000000000000000000000000000000000000000000006001600160a01b03169063f5ecbdbc90608401600060405180830381865afa1580156111d8573d6000803e3d6000fd5b505050506040513d6000823e601f3d908101601f191682016040526112009190810190611f26565b95945050505050565b60008061126c5a60966366ad5c8a60e01b898989896040516024016112319493929190611f93565b60408051601f198184030181529190526020810180516001600160e01b03166001600160e01b031990931692909217909152309291906115e9565b9150915081610a3957610a398686868685611673565b3361128b610aef565b6001600160a01b031614610a535760405162461bcd60e51b815260206004820181905260248201527f4f776e61626c653a2063616c6c6572206973206e6f7420746865206f776e65726044820152606401610556565b50505050565b600080546001600160a01b038381166001600160a01b0319831681178455604051919092169283917f8be0079c531659141344cd1fd0a4f28419497f9722a3daafe3b4186f6b6457e09190a35050565b61ffff86166000908152600160205260408120805461135590611c04565b80601f016020809104026020016040519081016040528092919081815260200182805461138190611c04565b80156113ce5780601f106113a3576101008083540402835291602001916113ce565b820191906000526020600020905b8154815290600101906020018083116113b157829003601f168201915b50505050509050805160000361143f5760405162461bcd60e51b815260206004820152603060248201527f4c7a4170703a2064657374696e6174696f6e20636861696e206973206e6f742060448201526f61207472757374656420736f7572636560801b6064820152608401610556565b61144a878751611710565b60405162c5803160e81b81526001600160a01b037f0000000000000000000000000000000000000000000000000000000000000000169063c58031009084906114a1908b9086908c908c908c908c90600401611fd1565b6000604051808303818588803b1580156114ba57600080fd5b505af11580156114ce573d6000803e3d6000fd5b505050505050505050505050565b6060816114ea81601f612038565b10156115295760405162461bcd60e51b815260206004820152600e60248201526d736c6963655f6f766572666c6f7760901b6044820152606401610556565b6115338284612038565b845110156115775760405162461bcd60e51b8152602060048201526011602482015270736c6963655f6f75744f66426f756e647360781b6044820152606401610556565b60608215801561159657604051915060008252602082016040526115e0565b6040519150601f8416801560200281840101858101878315602002848b0101015b818310156115cf5780518352602092830192016115b7565b5050858452601f01601f1916604052505b50949350505050565b6000606060008060008661ffff166001600160401b0381111561160e5761160e611926565b6040519080825280601f01601f191660200182016040528015611638576020820181803683370190505b50905060008087516020890160008d8df191503d92508683111561165a578692505b828152826000602083013e909890975095505050505050565b8180519060200120600560008761ffff1661ffff168152602001908152602001600020856040516116a4919061204b565b9081526040805191829003602090810183206001600160401b0388166000908152915220919091557fe183f33de2837795525b4792ca4cd60535bd77c53b7e7030060bfcf5734d6b0c906117019087908790879087908790612067565b60405180910390a15050505050565b61ffff82166000908152600360205260408120549081900361173157506127105b808211156117815760405162461bcd60e51b815260206004820181905260248201527f4c7a4170703a207061796c6f61642073697a6520697320746f6f206c617267656044820152606401610556565b505050565b803561ffff8116811461179857600080fd5b919050565b60008083601f8401126117af57600080fd5b5081356001600160401b038111156117c657600080fd5b6020830191508360208285010111156117de57600080fd5b9250929050565b80356001600160401b038116811461179857600080fd5b6000806000806000806080878903121561181557600080fd5b61181e87611786565b955060208701356001600160401b038082111561183a57600080fd5b6118468a838b0161179d565b909750955085915061185a60408a016117e5565b9450606089013591508082111561187057600080fd5b5061187d89828a0161179d565b979a9699509497509295939492505050565b6000602082840312156118a157600080fd5b610c3d82611786565b600080604083850312156118bd57600080fd5b6118c683611786565b946020939093013593505050565b6000806000604084860312156118e957600080fd5b6118f284611786565b925060208401356001600160401b0381111561190d57600080fd5b6119198682870161179d565b9497909650939450505050565b634e487b7160e01b600052604160045260246000fd5b604051601f8201601f191681016001600160401b038111828210171561196457611964611926565b604052919050565b60006001600160401b0382111561198557611985611926565b50601f01601f191660200190565b6000806000606084860312156119a857600080fd5b6119b184611786565b925060208401356001600160401b038111156119cc57600080fd5b8401601f810186136119dd57600080fd5b80356119f06119eb8261196c565b61193c565b818152876020838501011115611a0557600080fd5b81602084016020830137600060208383010152809450505050611a2a604085016117e5565b90509250925092565b60005b83811015611a4e578181015183820152602001611a36565b50506000910152565b60008151808452611a6f816020860160208601611a33565b601f01601f19169290920160200192915050565b602081526000610c3d6020830184611a57565b60008060408385031215611aa957600080fd5b611ab283611786565b9150611ac060208401611786565b90509250929050565b6001600160a01b0391909116815260200190565b80356001600160a01b038116811461179857600080fd5b600060208284031215611b0657600080fd5b610c3d82611add565b600080600080600060808688031215611b2757600080fd5b611b3086611786565b9450611b3e60208701611786565b93506040860135925060608601356001600160401b03811115611b6057600080fd5b611b6c8882890161179d565b969995985093965092949392505050565b600080600060608486031215611b9257600080fd5b611b9b84611786565b9250611ba960208501611786565b9150604084013590509250925092565b60008060008060808587031215611bcf57600080fd5b611bd885611786565b9350611be660208601611786565b9250611bf460408601611add565b9396929550929360600135925050565b600181811c90821680611c1857607f821691505b602082108103611c3857634e487b7160e01b600052602260045260246000fd5b50919050565b8183823760009101908152919050565b81835281816020850137506000828201602090810191909152601f909101601f19169091010190565b61ffff84168152604060208201526000611200604083018486611c4e565b634e487b7160e01b600052601160045260246000fd5b81810381811115611cbe57611cbe611c95565b92915050565b8284823760609190911b6001600160601b0319169101908152601401919050565b601f82111561178157600081815260208120601f850160051c81016020861015611d0c5750805b601f850160051c820191505b81811015610a3957828155600101611d18565b600019600383901b1c191660019190911b1790565b81516001600160401b03811115611d5957611d59611926565b611d6d81611d678454611c04565b84611ce5565b602080601f831160018114611d9c5760008415611d8a5750858301515b611d948582611d2b565b865550610a39565b600085815260208120601f198616915b82811015611dcb57888601518255948401946001909101908401611dac565b5085821015611de95787850151600019600388901b60f8161c191681555b5050505050600190811b01905550565b600061ffff808816835280871660208401525084604083015260806060830152611e27608083018486611c4e565b979650505050505050565b61ffff86168152608060208201526000611e50608083018688611c4e565b6001600160401b0394909416604083015250606001529392505050565b6001600160401b03831115611e8457611e84611926565b611e9883611e928354611c04565b83611ce5565b6000601f841160018114611ec65760008515611eb45750838201355b611ebe8682611d2b565b845550610795565b600083815260209020601f19861690835b82811015611ef75786850135825560209485019460019092019101611ed7565b5086821015611f145760001960f88860031b161c19848701351681555b505060018560011b0183555050505050565b600060208284031215611f3857600080fd5b81516001600160401b03811115611f4e57600080fd5b8201601f81018413611f5f57600080fd5b8051611f6d6119eb8261196c565b818152856020838501011115611f8257600080fd5b611200826020830160208601611a33565b61ffff85168152608060208201526000611fb06080830186611a57565b6001600160401b03851660408401528281036060840152611e278185611a57565b61ffff8716815260c060208201526000611fee60c0830188611a57565b82810360408401526120008188611a57565b6001600160a01b0387811660608601528616608085015283810360a0850152905061202b8185611a57565b9998505050505050505050565b80820180821115611cbe57611cbe611c95565b6000825161205d818460208701611a33565b9190910192915050565b61ffff8616815260a06020820152600061208460a0830187611a57565b6001600160401b038616604084015282810360608401526120a58186611a57565b905082810360808401526120b98185611a57565b9897505050505050505056fea2646970667358221220ea2785a3de34567b8cf7f0b98007fa5fe166fdc5105e9964c0f241c9a049eb3f64736f6c63430008110033",
  "devdoc": {
    "kind": "dev",
    "methods": {
      "owner()": {
        "details": "Returns the address of the current owner."
      },
      "renounceOwnership()": {
        "details": "Leaves the contract without owner. It will not be possible to call `onlyOwner` functions. Can only be called by the current owner. NOTE: Renouncing ownership will leave the contract without an owner, thereby disabling any functionality that is only available to the owner."
      },
      "transferOwnership(address)": {
        "details": "Transfers ownership of the contract to a new account (`newOwner`). Can only be called by the current owner."
      }
    },
    "title": "A LayerZero example sending a cross chain message from a source chain to a destination chain to increment a counter",
    "version": 1
  },
  "userdoc": {
    "kind": "user",
    "methods": {},
    "version": 1
  },
  "storageLayout": {
    "storage": [
      {
        "astId": 7,
        "contract": "contracts/VotingContracts/VotingSender.sol:VotingSender",
        "label": "_owner",
        "offset": 0,
        "slot": "0",
        "type": "t_address"
      },
      {
        "astId": 718,
        "contract": "contracts/VotingContracts/VotingSender.sol:VotingSender",
        "label": "trustedRemoteLookup",
        "offset": 0,
        "slot": "1",
        "type": "t_mapping(t_uint16,t_bytes_storage)"
      },
      {
        "astId": 724,
        "contract": "contracts/VotingContracts/VotingSender.sol:VotingSender",
        "label": "minDstGasLookup",
        "offset": 0,
        "slot": "2",
        "type": "t_mapping(t_uint16,t_mapping(t_uint16,t_uint256))"
      },
      {
        "astId": 728,
        "contract": "contracts/VotingContracts/VotingSender.sol:VotingSender",
        "label": "payloadSizeLimitLookup",
        "offset": 0,
        "slot": "3",
        "type": "t_mapping(t_uint16,t_uint256)"
      },
      {
        "astId": 730,
        "contract": "contracts/VotingContracts/VotingSender.sol:VotingSender",
        "label": "precrime",
        "offset": 0,
        "slot": "4",
        "type": "t_address"
      },
      {
        "astId": 1267,
        "contract": "contracts/VotingContracts/VotingSender.sol:VotingSender",
        "label": "failedMessages",
        "offset": 0,
        "slot": "5",
        "type": "t_mapping(t_uint16,t_mapping(t_bytes_memory_ptr,t_mapping(t_uint64,t_bytes32)))"
      }
    ],
    "types": {
      "t_address": {
        "encoding": "inplace",
        "label": "address",
        "numberOfBytes": "20"
      },
      "t_bytes32": {
        "encoding": "inplace",
        "label": "bytes32",
        "numberOfBytes": "32"
      },
      "t_bytes_memory_ptr": {
        "encoding": "bytes",
        "label": "bytes",
        "numberOfBytes": "32"
      },
      "t_bytes_storage": {
        "encoding": "bytes",
        "label": "bytes",
        "numberOfBytes": "32"
      },
      "t_mapping(t_bytes_memory_ptr,t_mapping(t_uint64,t_bytes32))": {
        "encoding": "mapping",
        "key": "t_bytes_memory_ptr",
        "label": "mapping(bytes => mapping(uint64 => bytes32))",
        "numberOfBytes": "32",
        "value": "t_mapping(t_uint64,t_bytes32)"
      },
      "t_mapping(t_uint16,t_bytes_storage)": {
        "encoding": "mapping",
        "key": "t_uint16",
        "label": "mapping(uint16 => bytes)",
        "numberOfBytes": "32",
        "value": "t_bytes_storage"
      },
      "t_mapping(t_uint16,t_mapping(t_bytes_memory_ptr,t_mapping(t_uint64,t_bytes32)))": {
        "encoding": "mapping",
        "key": "t_uint16",
        "label": "mapping(uint16 => mapping(bytes => mapping(uint64 => bytes32)))",
        "numberOfBytes": "32",
        "value": "t_mapping(t_bytes_memory_ptr,t_mapping(t_uint64,t_bytes32))"
      },
      "t_mapping(t_uint16,t_mapping(t_uint16,t_uint256))": {
        "encoding": "mapping",
        "key": "t_uint16",
        "label": "mapping(uint16 => mapping(uint16 => uint256))",
        "numberOfBytes": "32",
        "value": "t_mapping(t_uint16,t_uint256)"
      },
      "t_mapping(t_uint16,t_uint256)": {
        "encoding": "mapping",
        "key": "t_uint16",
        "label": "mapping(uint16 => uint256)",
        "numberOfBytes": "32",
        "value": "t_uint256"
      },
      "t_mapping(t_uint64,t_bytes32)": {
        "encoding": "mapping",
        "key": "t_uint64",
        "label": "mapping(uint64 => bytes32)",
        "numberOfBytes": "32",
        "value": "t_bytes32"
      },
      "t_uint16": {
        "encoding": "inplace",
        "label": "uint16",
        "numberOfBytes": "2"
      },
      "t_uint256": {
        "encoding": "inplace",
        "label": "uint256",
        "numberOfBytes": "32"
      },
      "t_uint64": {
        "encoding": "inplace",
        "label": "uint64",
        "numberOfBytes": "8"
      }
    }
  }
}